{"abi":[{"type":"constructor","inputs":[{"name":"admin","type":"address","internalType":"address"}],"stateMutability":"nonpayable"},{"type":"function","name":"AGENT_ROLE","inputs":[],"outputs":[{"name":"","type":"bytes32","internalType":"bytes32"}],"stateMutability":"view"},{"type":"function","name":"DEFAULT_ADMIN_ROLE","inputs":[],"outputs":[{"name":"","type":"bytes32","internalType":"bytes32"}],"stateMutability":"view"},{"type":"function","name":"getRoleAdmin","inputs":[{"name":"role","type":"bytes32","internalType":"bytes32"}],"outputs":[{"name":"","type":"bytes32","internalType":"bytes32"}],"stateMutability":"view"},{"type":"function","name":"grantRole","inputs":[{"name":"role","type":"bytes32","internalType":"bytes32"},{"name":"account","type":"address","internalType":"address"}],"outputs":[],"stateMutability":"nonpayable"},{"type":"function","name":"hasRole","inputs":[{"name":"role","type":"bytes32","internalType":"bytes32"},{"name":"account","type":"address","internalType":"address"}],"outputs":[{"name":"","type":"bool","internalType":"bool"}],"stateMutability":"view"},{"type":"function","name":"isVerified","inputs":[{"name":"actionHash","type":"bytes32","internalType":"bytes32"}],"outputs":[{"name":"","type":"bool","internalType":"bool"}],"stateMutability":"view"},{"type":"function","name":"markVerified","inputs":[{"name":"actionHash","type":"bytes32","internalType":"bytes32"},{"name":"isVerified","type":"bool","internalType":"bool"}],"outputs":[],"stateMutability":"nonpayable"},{"type":"function","name":"renounceRole","inputs":[{"name":"role","type":"bytes32","internalType":"bytes32"},{"name":"account","type":"address","internalType":"address"}],"outputs":[],"stateMutability":"nonpayable"},{"type":"function","name":"revokeRole","inputs":[{"name":"role","type":"bytes32","internalType":"bytes32"},{"name":"account","type":"address","internalType":"address"}],"outputs":[],"stateMutability":"nonpayable"},{"type":"function","name":"supportsInterface","inputs":[{"name":"interfaceId","type":"bytes4","internalType":"bytes4"}],"outputs":[{"name":"","type":"bool","internalType":"bool"}],"stateMutability":"view"},{"type":"event","name":"ActionMarked","inputs":[{"name":"actionHash","type":"bytes32","indexed":true,"internalType":"bytes32"},{"name":"verified","type":"bool","indexed":false,"internalType":"bool"}],"anonymous":false},{"type":"event","name":"RoleAdminChanged","inputs":[{"name":"role","type":"bytes32","indexed":true,"internalType":"bytes32"},{"name":"previousAdminRole","type":"bytes32","indexed":true,"internalType":"bytes32"},{"name":"newAdminRole","type":"bytes32","indexed":true,"internalType":"bytes32"}],"anonymous":false},{"type":"event","name":"RoleGranted","inputs":[{"name":"role","type":"bytes32","indexed":true,"internalType":"bytes32"},{"name":"account","type":"address","indexed":true,"internalType":"address"},{"name":"sender","type":"address","indexed":true,"internalType":"address"}],"anonymous":false},{"type":"event","name":"RoleRevoked","inputs":[{"name":"role","type":"bytes32","indexed":true,"internalType":"bytes32"},{"name":"account","type":"address","indexed":true,"internalType":"address"},{"name":"sender","type":"address","indexed":true,"internalType":"address"}],"anonymous":false}],"bytecode":{"object":"0x60803461012d57601f610b5a38819003918201601f1916830192916001600160401b03841183851017610132578083926040958652833960209283918101031261012d57516001600160a01b0381169081900361012d57600091828052828152838320828452815260ff8484205416156100f7575b7fcab5a0bfe0b79d2c4b1c2e02599fa044d115b7511f9659307cb427695096770990818452838152848420838552815260ff8585205416156100bf575b84516109f190816101498239f35b8184528381528484209083855252838320600160ff19825416179055600080516020610b3a833981519152339380a4388080806100b1565b8280528281528383208284528152838320805460ff19166001179055338284600080516020610b3a8339815191528180a4610074565b600080fd5b634e487b7160e01b600052604160045260246000fdfe608060408181526004918236101561001657600080fd5b600092833560e01c91826301ffc9a7146105605750816322459e1814610525578163248a9ca3146104fb5781632f2ff15d1461045d57816336568abe146103d5578163828c32ac1461014f57816391d1485414610115578163a217fddf146100fa578163c181b273146100c9575063d547741f1461009357600080fd5b346100c55760016100c2916100bd6100aa366105b3565b93909283875286602052862001546105de565b610811565b80f35b5080fd5b9050346100f65760203660031901126100f6578160209360ff923581526001855220541690519015158152f35b8280fd5b5050346100c557816003193601126100c55751908152602090f35b5050346100c55760ff8160209361012b366105b3565b9082528186528282206001600160a01b039091168252855220549151911615158152f35b8383346100c557806003193601126100c5578235906024908135908115158092036103d1577fcab5a0bfe0b79d2c4b1c2e02599fa044d115b7511f9659307cb427695096770995868652602093868552828720338852855260ff8388205416156101f8575050907f1b05ab8ec01e32391b97b9644223a688a2862ca5e624f9d0c9b2acc41e13b42492918486526001835280862060ff1981541660ff841617905551908152a280f35b84928789610205336108ac565b835191610211836107bd565b604283528783019360603686378351156103bf57603085538351906001918210156103ad5790607860218601536041915b8183116103445750505061030457836102d56048896102f69660449a99966102c661029d9776020b1b1b2b9b9a1b7b73a3937b61d1030b1b1b7bab73a1604d1b9b5198858a9687019d8e52825192839160378901910161079a565b8401917001034b99036b4b9b9b4b733903937b6329607d1b60378401525180938684019061079a565b010360288101855201836107ef565b5196879562461bcd60e51b875286015251928380928601528585019061079a565b601f01601f19168101030190fd5b60648688878188519362461bcd60e51b85528401528201527f537472696e67733a20686578206c656e67746820696e73756666696369656e746044820152fd5b909192600f8116601081101561039b576f181899199a1a9b1b9c1cb0b131b232b360811b901a6103748588610885565b53891c92801561038957600019019190610242565b634e487b7160e01b825260118a528882fd5b634e487b7160e01b835260328b528983fd5b634e487b7160e01b8152603289528790fd5b634e487b7160e01b8152603288528690fd5b8480fd5b839150346100c5576103e6366105b3565b91336001600160a01b038416036104025750906100c291610811565b608490602086519162461bcd60e51b8352820152602f60248201527f416363657373436f6e74726f6c3a2063616e206f6e6c792072656e6f756e636560448201526e103937b632b9903337b91039b2b63360891b6064820152fd5b5050346100c55761046d366105b3565b909182845283602052610485600182862001546105de565b82845260208481528185206001600160a01b039093168086529290528084205460ff16156104b1578380f35b828452836020528084208285526020528320600160ff1982541617905533917f2f8788117e7eff1d82e926ec794901d17c78024a50270940304540a733656f0d8480a43880808380f35b9050346100f65760203660031901126100f657816020936001923581528085522001549051908152f35b5050346100c557816003193601126100c557602090517fcab5a0bfe0b79d2c4b1c2e02599fa044d115b7511f9659307cb42769509677098152f35b8491346100f65760203660031901126100f6573563ffffffff60e01b81168091036100f65760209250637965db0b60e01b81149081156105a2575b5015158152f35b6301ffc9a760e01b1490508361059b565b60409060031901126105d957600435906024356001600160a01b03811681036105d95790565b600080fd5b60008181526020818152604092838320338452825260ff8484205416156106055750505050565b61060e336108ac565b9084519061061b826107bd565b6042825283820194606036873782511561078657603086538251906001918210156107865790607860218501536041915b818311610718575050506106d657846106b260486102f69360449798519889916106a38984019876020b1b1b2b9b9a1b7b73a3937b61d1030b1b1b7bab73a1604d1b8a5261029d815180928d60378901910161079a565b010360288101895201876107ef565b5194859362461bcd60e51b855260048501525180928160248601528585019061079a565b60648386519062461bcd60e51b825280600483015260248201527f537472696e67733a20686578206c656e67746820696e73756666696369656e746044820152fd5b909192600f81166010811015610772576f181899199a1a9b1b9c1cb0b131b232b360811b901a6107488587610885565b5360041c92801561075e5760001901919061064c565b634e487b7160e01b82526011600452602482fd5b634e487b7160e01b83526032600452602483fd5b634e487b7160e01b81526032600452602490fd5b60005b8381106107ad5750506000910152565b818101518382015260200161079d565b6080810190811067ffffffffffffffff8211176107d957604052565b634e487b7160e01b600052604160045260246000fd5b90601f8019910116810190811067ffffffffffffffff8211176107d957604052565b9060009180835282602052604083209160018060a01b03169182845260205260ff60408420541661084157505050565b80835282602052604083208284526020526040832060ff1981541690557ff6391f5c32d9c69d2a47ea670b442974b53935d1edc7fd64eb21e047a839171b339380a4565b908151811015610896570160200190565b634e487b7160e01b600052603260045260246000fd5b604051906060820182811067ffffffffffffffff8211176107d957604052602a82526020820160403682378251156108965760309053815160019081101561089657607860218401536029905b80821161094d5750506109095790565b606460405162461bcd60e51b815260206004820152602060248201527f537472696e67733a20686578206c656e67746820696e73756666696369656e746044820152fd5b9091600f811660108110156109a6576f181899199a1a9b1b9c1cb0b131b232b360811b901a61097c8486610885565b5360041c9180156109915760001901906108f9565b60246000634e487b7160e01b81526011600452fd5b60246000634e487b7160e01b81526032600452fdfea26469706673582212207c022ca39c67d0bb323778590a440176a73aa9194ad515c6a343f5086cc5eb3c64736f6c634300081300332f8788117e7eff1d82e926ec794901d17c78024a50270940304540a733656f0d","linkReferences":{}},"methodIdentifiers":{"AGENT_ROLE()":"22459e18","DEFAULT_ADMIN_ROLE()":"a217fddf","getRoleAdmin(bytes32)":"248a9ca3","grantRole(bytes32,address)":"2f2ff15d","hasRole(bytes32,address)":"91d14854","isVerified(bytes32)":"c181b273","markVerified(bytes32,bool)":"828c32ac","renounceRole(bytes32,address)":"36568abe","revokeRole(bytes32,address)":"d547741f","supportsInterface(bytes4)":"01ffc9a7"},"id":1}