{"abi":[{"type":"constructor","inputs":[{"name":"_voterRegistry","type":"address","internalType":"address"},{"name":"_civicToken","type":"address","internalType":"address"},{"name":"_verifier","type":"address","internalType":"address"},{"name":"_params","type":"address","internalType":"address"}],"stateMutability":"nonpayable"},{"type":"function","name":"ADMIN_ROLE","inputs":[],"outputs":[{"name":"","type":"bytes32","internalType":"bytes32"}],"stateMutability":"view"},{"type":"function","name":"DEFAULT_ADMIN_ROLE","inputs":[],"outputs":[{"name":"","type":"bytes32","internalType":"bytes32"}],"stateMutability":"view"},{"type":"function","name":"PAUSER_ROLE","inputs":[],"outputs":[{"name":"","type":"bytes32","internalType":"bytes32"}],"stateMutability":"view"},{"type":"function","name":"actionActive","inputs":[{"name":"","type":"uint8","internalType":"enum VOTERRegistry.ActionType"}],"outputs":[{"name":"","type":"bool","internalType":"bool"}],"stateMutability":"view"},{"type":"function","name":"batchProcessActions","inputs":[{"name":"users","type":"address[]","internalType":"address[]"},{"name":"actionTypes","type":"uint8[]","internalType":"enum VOTERRegistry.ActionType[]"},{"name":"actionHashes","type":"bytes32[]","internalType":"bytes32[]"},{"name":"metadataArray","type":"string[]","internalType":"string[]"}],"outputs":[],"stateMutability":"nonpayable"},{"type":"function","name":"civicToken","inputs":[],"outputs":[{"name":"","type":"address","internalType":"contract CIVICToken"}],"stateMutability":"view"},{"type":"function","name":"consensus","inputs":[],"outputs":[{"name":"","type":"address","internalType":"contract IAgentConsensus"}],"stateMutability":"view"},{"type":"function","name":"districtUsers","inputs":[{"name":"","type":"bytes32","internalType":"bytes32"},{"name":"","type":"uint256","internalType":"uint256"}],"outputs":[{"name":"","type":"address","internalType":"address"}],"stateMutability":"view"},{"type":"function","name":"getDistrictLeaderboard","inputs":[{"name":"districtHash","type":"bytes32","internalType":"bytes32"},{"name":"limit","type":"uint256","internalType":"uint256"}],"outputs":[{"name":"","type":"tuple[]","internalType":"struct CommuniqueCore.LeaderboardEntry[]","components":[{"name":"citizen","type":"address","internalType":"address"},{"name":"actionCount","type":"uint256","internalType":"uint256"},{"name":"civicEarned","type":"uint256","internalType":"uint256"},{"name":"districtHash","type":"bytes32","internalType":"bytes32"}]}],"stateMutability":"view"},{"type":"function","name":"getPlatformStats","inputs":[],"outputs":[{"name":"","type":"tuple","internalType":"struct CommuniqueCore.PlatformStats","components":[{"name":"totalUsers","type":"uint256","internalType":"uint256"},{"name":"totalActions","type":"uint256","internalType":"uint256"},{"name":"totalCivicMinted","type":"uint256","internalType":"uint256"},{"name":"avgActionsPerUser","type":"uint256","internalType":"uint256"},{"name":"activeUsersLast30Days","type":"uint256","internalType":"uint256"}]}],"stateMutability":"view"},{"type":"function","name":"getRoleAdmin","inputs":[{"name":"role","type":"bytes32","internalType":"bytes32"}],"outputs":[{"name":"","type":"bytes32","internalType":"bytes32"}],"stateMutability":"view"},{"type":"function","name":"grantRole","inputs":[{"name":"role","type":"bytes32","internalType":"bytes32"},{"name":"account","type":"address","internalType":"address"}],"outputs":[],"stateMutability":"nonpayable"},{"type":"function","name":"hasRole","inputs":[{"name":"role","type":"bytes32","internalType":"bytes32"},{"name":"account","type":"address","internalType":"address"}],"outputs":[{"name":"","type":"bool","internalType":"bool"}],"stateMutability":"view"},{"type":"function","name":"minActionInterval","inputs":[],"outputs":[{"name":"","type":"uint256","internalType":"uint256"}],"stateMutability":"view"},{"type":"function","name":"params","inputs":[],"outputs":[{"name":"","type":"address","internalType":"contract AgentParameters"}],"stateMutability":"view"},{"type":"function","name":"pause","inputs":[],"outputs":[],"stateMutability":"nonpayable"},{"type":"function","name":"paused","inputs":[],"outputs":[{"name":"","type":"bool","internalType":"bool"}],"stateMutability":"view"},{"type":"function","name":"processCivicAction","inputs":[{"name":"user","type":"address","internalType":"address"},{"name":"actionType","type":"uint8","internalType":"enum VOTERRegistry.ActionType"},{"name":"actionHash","type":"bytes32","internalType":"bytes32"},{"name":"metadata","type":"string","internalType":"string"}],"outputs":[],"stateMutability":"nonpayable"},{"type":"function","name":"protocolDailyMinted","inputs":[{"name":"","type":"uint256","internalType":"uint256"}],"outputs":[{"name":"","type":"uint256","internalType":"uint256"}],"stateMutability":"view"},{"type":"function","name":"registerUser","inputs":[{"name":"user","type":"address","internalType":"address"},{"name":"districtHash","type":"bytes32","internalType":"bytes32"},{"name":"selfProof","type":"bytes","internalType":"bytes"}],"outputs":[],"stateMutability":"nonpayable"},{"type":"function","name":"registeredUsers","inputs":[{"name":"","type":"address","internalType":"address"}],"outputs":[{"name":"","type":"bool","internalType":"bool"}],"stateMutability":"view"},{"type":"function","name":"renounceRole","inputs":[{"name":"role","type":"bytes32","internalType":"bytes32"},{"name":"account","type":"address","internalType":"address"}],"outputs":[],"stateMutability":"nonpayable"},{"type":"function","name":"revokeRole","inputs":[{"name":"role","type":"bytes32","internalType":"bytes32"},{"name":"account","type":"address","internalType":"address"}],"outputs":[],"stateMutability":"nonpayable"},{"type":"function","name":"setActionActive","inputs":[{"name":"actionType","type":"uint8","internalType":"enum VOTERRegistry.ActionType"},{"name":"active","type":"bool","internalType":"bool"}],"outputs":[],"stateMutability":"nonpayable"},{"type":"function","name":"setConsensus","inputs":[{"name":"newConsensus","type":"address","internalType":"address"}],"outputs":[],"stateMutability":"nonpayable"},{"type":"function","name":"supportsInterface","inputs":[{"name":"interfaceId","type":"bytes4","internalType":"bytes4"}],"outputs":[{"name":"","type":"bool","internalType":"bool"}],"stateMutability":"view"},{"type":"function","name":"totalCivicMinted","inputs":[],"outputs":[{"name":"","type":"uint256","internalType":"uint256"}],"stateMutability":"view"},{"type":"function","name":"totalRegisteredUsers","inputs":[],"outputs":[{"name":"","type":"uint256","internalType":"uint256"}],"stateMutability":"view"},{"type":"function","name":"unpause","inputs":[],"outputs":[],"stateMutability":"nonpayable"},{"type":"function","name":"userDailyMinted","inputs":[{"name":"","type":"address","internalType":"address"},{"name":"","type":"uint256","internalType":"uint256"}],"outputs":[{"name":"","type":"uint256","internalType":"uint256"}],"stateMutability":"view"},{"type":"function","name":"userLastActionTime","inputs":[{"name":"","type":"address","internalType":"address"}],"outputs":[{"name":"","type":"uint256","internalType":"uint256"}],"stateMutability":"view"},{"type":"function","name":"verifier","inputs":[],"outputs":[{"name":"","type":"address","internalType":"contract IActionVerifier"}],"stateMutability":"view"},{"type":"function","name":"voterRegistry","inputs":[],"outputs":[{"name":"","type":"address","internalType":"contract VOTERRegistry"}],"stateMutability":"view"},{"type":"event","name":"ActionProcessed","inputs":[{"name":"user","type":"address","indexed":true,"internalType":"address"},{"name":"actionType","type":"uint8","indexed":false,"internalType":"enum VOTERRegistry.ActionType"},{"name":"civicRewarded","type":"uint256","indexed":false,"internalType":"uint256"},{"name":"actionHash","type":"bytes32","indexed":false,"internalType":"bytes32"}],"anonymous":false},{"type":"event","name":"Paused","inputs":[{"name":"account","type":"address","indexed":false,"internalType":"address"}],"anonymous":false},{"type":"event","name":"RewardFlagUpdated","inputs":[{"name":"actionType","type":"uint8","indexed":false,"internalType":"enum VOTERRegistry.ActionType"},{"name":"active","type":"bool","indexed":false,"internalType":"bool"}],"anonymous":false},{"type":"event","name":"RoleAdminChanged","inputs":[{"name":"role","type":"bytes32","indexed":true,"internalType":"bytes32"},{"name":"previousAdminRole","type":"bytes32","indexed":true,"internalType":"bytes32"},{"name":"newAdminRole","type":"bytes32","indexed":true,"internalType":"bytes32"}],"anonymous":false},{"type":"event","name":"RoleGranted","inputs":[{"name":"role","type":"bytes32","indexed":true,"internalType":"bytes32"},{"name":"account","type":"address","indexed":true,"internalType":"address"},{"name":"sender","type":"address","indexed":true,"internalType":"address"}],"anonymous":false},{"type":"event","name":"RoleRevoked","inputs":[{"name":"role","type":"bytes32","indexed":true,"internalType":"bytes32"},{"name":"account","type":"address","indexed":true,"internalType":"address"},{"name":"sender","type":"address","indexed":true,"internalType":"address"}],"anonymous":false},{"type":"event","name":"Unpaused","inputs":[{"name":"account","type":"address","indexed":false,"internalType":"address"}],"anonymous":false},{"type":"event","name":"UserRegistered","inputs":[{"name":"user","type":"address","indexed":true,"internalType":"address"},{"name":"districtHash","type":"bytes32","indexed":false,"internalType":"bytes32"}],"anonymous":false}],"bytecode":{"object":"0x610100346200029857601f62002c1b38819003918201601f191683019291906001600160401b038411838510176200029d57816080928492604096875283398101031262000298576200005281620002b3565b82602062000062818501620002b3565b6200007d606062000075858801620002b3565b9601620002b3565b60019485805560ff19968760025416600255610e1060095560018060a01b038094818094166080521660a0521660c0521660e0526003600091828052828152838320338452815260ff84842054161562000263575b7fa49807205ce4d355092ef5a8a18f56e8913cf4a201fbe287825b095693c21775808452838252848420338552825260ff8585205416156200022c575b507f65d7a28e3265b37a6474929f336521b332c1681b933f6cb9f3376673440d862a808452838252848420338552825260ff858520541615620001f5575b508280525281812083858254161790558281522091825416179055516129329081620002c98239608051818181610492015281816108cd015281816109c801528181610e3a015281816112f101526116dd015260a0518181816105ed01528181610a7c01526115c8015260c05181818161160d0152611bfe015260e05181818161022601528181611ced01528181611f0e01528181611fda0152818161212301526121d40152f35b808452838252848420338552825284842086888254161790553390339060008051602062002bfb8339815191528680a4386200014d565b808452838252848420338552825284842086888254161790553390339060008051602062002bfb8339815191528680a4386200010f565b8280528281528383203384528152838320858782541617905533338460008051602062002bfb8339815191528180a4620000d2565b600080fd5b634e487b7160e01b600052604160045260246000fd5b51906001600160a01b0382168203620002985756fe608060408181526004918236101561001657600080fd5b60009260e08435811c92836301ffc9a71461181c575082630e50cee5146117dd578263136d888314611690578263223d6eac14611667578263248a9ca31461163c5782632b7ac3f3146115f75782632e2c138c146115b25782632f2ff15d1461150857826336568abe146114765782633c5e076b146112725782633c7afca5146112525782633f4ba83a146111bb5782634c5d31a71461113a5782635c975abb146111155782635da7560c146110cb578263611b19af1461108157826371a16a6c1461103f57826375b238fc1461100357826379f9260d14610da3575081638336c0a414610d845781638456cb5914610d295781638ef3f76114610cfc57816391d1485414610cb75781639ef86c1114610c7d578163a217fddf14610c62578163af8d18de14610c43578163bad152bd146108fc578163be60040e146108b8578163cf9a7d6614610882578163cfd588a714610255578163cff0ab9614610211578163d547741f146101cf575063e63ab1e91461019257600080fd5b346101cb57816003193601126101cb57602090517f65d7a28e3265b37a6474929f336521b332c1681b933f6cb9f3376673440d862a8152f35b5080fd5b9190503461020d578060031936011261020d5761020a913561020560016101f4611886565b9383875286602052862001546125a4565b6126ae565b80f35b8280fd5b5050346101cb57816003193601126101cb57517f00000000000000000000000000000000000000000000000000000000000000006001600160a01b03168152602090f35b839150346101cb5760803660031901126101cb57803567ffffffffffffffff93848211610764573660238301121561076457818301359461029586611a06565b6102a18351918261198d565b868152602095868201946024958660059a8b1b83010191368311610764578701905b82821061085e575050508435958387116101cb57366023880112156101cb5786810135966102f088611a06565b976102fd8751998a61198d565b808952878a8a01918c1b83010191368311610732578801905b828210610846575050506044359584871161020d573660238801121561020d57868201359661034488611a06565b976103518851998a61198d565b808952828b8a01918d1b8301019136831161084257838c9101915b8383106108325750505050606435948086116107645736602387011215610764578a86840135968361039d89611a06565b986103aa8b519a8b61198d565b808a528d8a01931b8201019236841161082e57848201925b8484106108085750505050506103d6612766565b6103de612722565b6103ef6103e961219a565b15611a43565b8351885180911490816107fd575b50806107f2575b156107b85750815b83518110156107b0576001600160a01b03806104288387611b9b565b5116845260088a5260ff808886205416158015610781575b6107765761045e610459610454858d611b9b565b611baf565b6118e0565b5416610474575b5061046f90611a1e565b61040c565b61048f61048a610484848b611b9b565b51611bc9565b611a8b565b807f000000000000000000000000000000000000000000000000000000000000000016816104bd8488611b9b565b5116906104cd610454858d611b9b565b906104d8858c611b9b565b51926104e4868b611b9b565b51823b15610772578b51639e15996d60e01b815294899486949385938793859361051093858f01611b22565b03925af1801561076857899392868c938e93610744575b5088908b8861054961054461053f6104548b8b611b9b565b611ec2565b611f9e565b9561056087876105598c89611b9b565b5116611ca2565b866105d1575b61045489876105ae828961046f9f9a996105bc9983996000805160206128dd8339815191529f9e996105b69a6105a06105c89f8890611b9b565b511684525242912055611b9b565b511699611b9b565b93611b9b565b518c5193849384611b7e565b0390a290610465565b5050505090929193945061062061061b610454878661061382827f00000000000000000000000000000000000000000000000000000000000000001697611b9b565b511695611b9b565b61205e565b91813b156107405787918591838961064b8f5197889687958694632072b50d60e21b86528501611b5a565b03925af18015610736579187878f8f8f96908f999896928f938c93610706575b508988976105ae8261046f9e996105c8996105bc9983996000805160206128dd8339815191529f996105b69a6104549a600a6106a8838254611a7e565b90556201518042048a6106bb8a8a611b9b565b511687526006845285872081885284528587206106d9848254611a7e565b9055865282526106ed848620918254611a7e565b90559950995099509950999e5050509798505050610566565b9550505050509294955061071b919350611941565b610732578892918a9187878f8f89908e923861066b565b8480fd5b89513d88823e3d90fd5b8780fd5b9194955092506107549150611941565b6107645790888a8993868f610527565b8380fd5b88513d87823e3d90fd5b8880fd5b505061046f90611a1e565b508161078d8488611b9b565b51168552838b526107a9888620546107a36120e8565b90611a7e565b4210610440565b826001805580f35b855162461bcd60e51b815291820189905260159082015274082e4e4c2f240d8cadccee8d040dad2e6dac2e8c6d605b1b6044820152606490fd5b508651855114610404565b90508751148b6103fd565b8335828111610772578e9161082383928936918801016119af565b8152019301926103c2565b8680fd5b82358152918101918c910161036c565b8580fd5b81356002811015610842578152908a01908a01610316565b81356001600160a01b038116810361087d5781529089019089016102c3565b600080fd5b90503461020d57602036600319011261020d5760209282916001600160a01b036108aa611870565b168252845220549051908152f35b5050346101cb57816003193601126101cb57517f00000000000000000000000000000000000000000000000000000000000000006001600160a01b03168152602090f35b90503461020d57608036600319011261020d57610917611870565b9160243560028110156107325760443560643567ffffffffffffffff811161082e5761094690369086016119af565b9261094f612766565b610957612722565b6109626103e961219a565b60018060a01b0393848716968789526020916008835260ff848b20541615610c0a5760ff61098f876118e0565b541615610bc7576109b06109a16120e8565b8a8c52898552858c2054611a7e565b4210610b8e579089916109c561048a87611bc9565b877f000000000000000000000000000000000000000000000000000000000000000016803b156107645787849184838d610a148c978c5198899788968795639e15996d60e01b87528601611b22565b03925af18015610b8457908391610b70575b5050610a3461054487611ec2565b96610a3f8883611ca2565b87610a7a575b505095610a70939291886000805160206128dd83398151915298525242818920555193849384611b7e565b0390a26001805580f35b7f000000000000000000000000000000000000000000000000000000000000000016610aa58761205e565b91813b156107645783918991838c610ad08a5197889687958694632072b50d60e21b86528501611b5a565b03925af18015610b6657610b4c575b5050906000805160206128dd83398151915295610a709392610b0387600a54611a7e565b600a55620151804204898b5260068252838b20818c528252838b20610b29898254611a7e565b90558a5260058152828a20610b3f888254611a7e565b9055919293899197610a45565b610b599094939294611941565b6107405790918738610adf565b84513d84823e3d90fd5b610b7990611941565b6101cb578138610a26565b85513d85823e3d90fd5b835162461bcd60e51b815280890184905260136024820152721058dd1a5bdb881d1bdbc8199c995c5d595b9d606a1b6044820152606490fd5b835162461bcd60e51b8152808901849052601960248201527f416374696f6e2074797065206e6f7420737570706f72746564000000000000006044820152606490fd5b835162461bcd60e51b81528089018490526013602482015272155cd95c881b9bdd081c9959da5cdd195c9959606a1b6044820152606490fd5b5050346101cb57816003193601126101cb576020906009549051908152f35b5050346101cb57816003193601126101cb5751908152602090f35b90503461020d57602036600319011261020d5735916002831015610cb4575060ff610ca96020936118e0565b541690519015158152f35b80fd5b90503461020d578160031936011261020d5781602093610cd5611886565b92358152808552209060018060a01b0316600052825260ff81600020541690519015158152f35b5050346101cb57816003193601126101cb57600254905160089190911c6001600160a01b03168152602090f35b5050346101cb57816003193601126101cb5760207f62e78cea01bee320cd4e420270b5ea74000d11b0c9f74754ebdbfc544b05a25891610d67612244565b610d6f612722565b600160ff19600254161760025551338152a180f35b5050346101cb57816003193601126101cb57602090600a549051908152f35b8385913461020d57610db43661189c565b92818552602092600784528186209482518087878299549384815201908a52878a20928a5b89828210610fe457505050610df09250038761198d565b85519081811115610fdb575094935b610e0886611a06565b94610e158451968761198d565b868652601f19610e2488611a06565b01885b818110610fa95750506001600160a01b037f0000000000000000000000000000000000000000000000000000000000000000811691895b89811080610f9f575b15610f3e578083610e798e9385611b9b565b511680895193637d97b57760e01b85528401528783602481895afa8015610f34578d90610ee3575b610ede9350895191610eb283611955565b8252878201528c89820152896060820152610ecd828c611b9b565b52610ed8818b611b9b565b50611a1e565b610e5e565b5090918781813d8311610f2d575b610efb818361198d565b81010312610f29579081610f12610ede9493611bbc565b50610f2360808b8301519201611bbc565b50610ea1565b8c80fd5b503d610ef1565b89513d8f823e3d90fd5b86858a8d8684519380850191818652845180935281878701950193905b838210610f685786860387f35b8451805182168752808401518785015288810151898801526060908101519087015260809095019493820193600190910190610f5b565b5081518110610e67565b83908699939951610fb981611955565b8b81528b838201528b888201528b606082015282828b01015201979197610e27565b90509493610dff565b85546001600160a01b031684526001958601958c955093019201610dd9565b505050346101cb57816003193601126101cb57602090517fa49807205ce4d355092ef5a8a18f56e8913cf4a201fbe287825b095693c217758152f35b505050346101cb57806003193601126101cb5760209181906001600160a01b03611067611870565b168152600684528181206024358252845220549051908152f35b505050346101cb576110923661189c565b929081526007602052818120908154841015610cb457506020926110b5916118b2565b905491519160018060a01b039160031b1c168152f35b8434610cb4576020366003190112610cb4576110e5611870565b6110ed61245f565b60028054610100600160a81b03191660089290921b610100600160a81b031691909117905580f35b505050346101cb57816003193601126101cb5760209060ff6002541690519015158152f35b5090503461020d578160031936011261020d573590600282101561020d5760243591821515809303610764577f331642b2ef6ec4db5a710111ef7d16727b0314e5a399305c82224f83877380d99261119061245f565b611199826118e0565b60ff1981541660ff83161790556111b283518093611acd565b6020820152a180f35b5090503461020d578260031936011261020d576111d6612244565b6002549060ff821615611218575060ff1916600255513381527f5db9ee0a495bf2e6ff9c91a7834c1ba4fdd244a5e8aa4e537bd38aeae4b073aa90602090a180f35b606490602084519162461bcd60e51b8352820152601460248201527314185d5cd8589b194e881b9bdd081c185d5cd95960621b6044820152fd5b505050346101cb57816003193601126101cb57602090600b549051908152f35b5090503461020d57606036600319011261020d5761128e611870565b916024928335926044359467ffffffffffffffff95868111610740573660238201121561074057808301359687116107405736828883010111610740576001600160a01b0393841680895260086020528589205490979060ff16611434578890857f000000000000000000000000000000000000000000000000000000000000000016803b1561020d578983608488858d968a8e519a8b998a9889966327e95d9d60e21b8852870152828601526060604486015282606486015201848401378181018301849052601f01601f191681010301925af1801561142a57611417575b508587526008602052838720600160ff1982541617905584875260076020528387209081549268010000000000000000841015611406575050916113dd827f4c5d15f5779ae1ecd7d55bd3283d898e29c35743d172bd7b83a16e17bc0afe2a96946001602097950181556118b2565b819291549060031b9188831b921b19161790556113fb600b54611a1e565b600b5551908152a280f35b634e487b7160e01b89526041905287fd5b61142390979197611941565b953861136e565b85513d8a823e3d90fd5b855162461bcd60e51b81526020818601526017818501527f5573657220616c726561647920726567697374657265640000000000000000006044820152606490fd5b838583346101cb57826003193601126101cb57611491611886565b90336001600160a01b038316036114ad579061020a91356126ae565b608490602085519162461bcd60e51b8352820152602f60248201527f416363657373436f6e74726f6c3a2063616e206f6e6c792072656e6f756e636560448201526e103937b632b9903337b91039b2b63360891b6064820152fd5b5090503461020d578160031936011261020d573590611525611886565b908284528360205261153c600182862001546125a4565b82845260208481528185206001600160a01b039093168086529290528084205460ff1615611568578380f35b828452836020528084208285526020528320600160ff1982541617905533917f2f8788117e7eff1d82e926ec794901d17c78024a50270940304540a733656f0d8480a43880808380f35b505050346101cb57816003193601126101cb57517f00000000000000000000000000000000000000000000000000000000000000006001600160a01b03168152602090f35b505050346101cb57816003193601126101cb57517f00000000000000000000000000000000000000000000000000000000000000006001600160a01b03168152602090f35b5090503461020d57602036600319011261020d57816020936001923581528085522001549051908152f35b5090503461020d57602036600319011261020d5760209282913581526005845220549051908152f35b508383346101cb57816003193601126101cb5781608082516116b18161190f565b82815260208101839052838101839052606081018390520152805163136d888360e01b815290808285817f00000000000000000000000000000000000000000000000000000000000000006001600160a01b03165afa9283156117d2578092819461179b575b508315806117905761177d575060a09350828204905b600a54600a600b540493608083516117448161190f565b87815260208101928352848101938452606081019586520194855282519586525160208601525190840152516060830152516080820152f35b634e487b7160e01b815260128552602490fd5b5060a094509061172d565b82809295508194503d83116117cb575b6117b5818361198d565b8101031261020d57602082519201519285611717565b503d6117ab565b9051903d90823e3d90fd5b505050346101cb5760203660031901126101cb5760209160ff9082906001600160a01b03611809611870565b1681526008855220541690519015158152f35b8590833461020d57602036600319011261020d573563ffffffff60e01b811680910361020d5760209250637965db0b60e01b811490811561185f575b5015158152f35b6301ffc9a760e01b14905083611858565b600435906001600160a01b038216820361087d57565b602435906001600160a01b038216820361087d57565b604090600319011261087d576004359060243590565b80548210156118ca5760005260206000200190600090565b634e487b7160e01b600052603260045260246000fd5b60028110156118f9576000526003602052604060002090565b634e487b7160e01b600052602160045260246000fd5b60a0810190811067ffffffffffffffff82111761192b57604052565b634e487b7160e01b600052604160045260246000fd5b67ffffffffffffffff811161192b57604052565b6080810190811067ffffffffffffffff82111761192b57604052565b6040810190811067ffffffffffffffff82111761192b57604052565b90601f8019910116810190811067ffffffffffffffff82111761192b57604052565b81601f8201121561087d5780359067ffffffffffffffff821161192b57604051926119e4601f8401601f19166020018561198d565b8284526020838301011161087d57816000926020809301838601378301015290565b67ffffffffffffffff811161192b5760051b60200190565b6000198114611a2d5760010190565b634e487b7160e01b600052601160045260246000fd5b15611a4a57565b60405162461bcd60e51b815260206004820152600c60248201526b476c6f62616c20706175736560a01b6044820152606490fd5b91908201809211611a2d57565b15611a9257565b60405162461bcd60e51b81526020600482015260136024820152721058dd1a5bdb881b9bdd081d995c9a599a5959606a1b6044820152606490fd5b9060028210156118f95752565b60005b838110611aed5750506000910152565b8181015183820152602001611add565b90602091611b1681518092818552858086019101611ada565b601f01601f1916010190565b6001600160a01b039091168152611b579392608092611b45906020840190611acd565b60408201528160608201520190611afd565b90565b611b57939260609260018060a01b0316825260208201528160408201520190611afd565b604091949392611b92826060810197611acd565b60208201520152565b80518210156118ca5760209160051b010190565b5160028110156118f95790565b5190811515820361087d57565b6002546001600160a01b03919060081c821680611c715750602090602460405180948193635b3c70b360e11b835260048301527f0000000000000000000000000000000000000000000000000000000000000000165afa908115611c6557600091611c32575090565b906020823d8211611c5d575b81611c4b6020938361198d565b81010312610cb45750611b5790611bbc565b3d9150611c3e565b6040513d6000823e3d90fd5b915060209060246040518094819363c181b27360e01b835260048301525afa908115611c6557600091611c32575090565b908015611ebe576040805163bd02d0f560e01b8082527fd87ea0f72c0c7e1d1fcd55b25785a25937291fbd098289256ce22ce7e14e0306600483015260209492936001600160a01b037f000000000000000000000000000000000000000000000000000000000000000081169462015180420494929388846024818a5afa938415611eb357908991600095611e81575b50602489518099819382527f2249d0c9e7a10266ad4d0f5fb9737afca074083482ae77a97de7d258ccc051b360048301525afa958615611e7657600096611e47575b5082611de5575b50505082611d8b575b5050505050565b611da091600052600585528360002054611a7e565b11611dad57808080611d84565b60649250519062461bcd60e51b825260048201526012602482015271050726f746f636f6c206461696c79206361760741b6044820152fd5b166000526006865284600020836000528652611e05828660002054611a7e565b11611e1257388080611d7b565b835162461bcd60e51b815260048101869052600e60248201526d055736572206461696c79206361760941b6044820152606490fd5b90958882813d8311611e6f575b611e5e818361198d565b81010312610cb45750519438611d74565b503d611e54565b87513d6000823e3d90fd5b9182819692963d8311611eac575b611e99818361198d565b81010312610cb457508890519338611d32565b503d611e8f565b88513d6000823e3d90fd5b5050565b60028110156118f957611f78577f992acf9d923526e1248c33898b350030c364ec44ab699cc7629114e92cdab3e35b60405163bd02d0f560e01b815260048101919091526020816024817f00000000000000000000000000000000000000000000000000000000000000006001600160a01b03165afa908115611c6557600091611f4a575090565b906020823d8211611f70575b81611f636020938361198d565b81010312610cb457505190565b3d9150611f56565b7f1ee14b420ee8af9ee1d2d4adaa03b5adf49131a6fee9bfb98d1d651eed23e7ed611ef1565b60405163bd02d0f560e01b81527fb14c9998e4d6b948d20c55fee9f424641b52177720c83f266da79a7367bac0f86004820152906020826024817f00000000000000000000000000000000000000000000000000000000000000006001600160a01b03165afa918215611c655760009261202b575b5081156120265781811115612026575090565b905090565b90916020823d8211612056575b816120456020938361198d565b81010312610cb45750519038612013565b3d9150612038565b60028110156118f95780156120c0576001146120975760405161208081611971565b60078152662aa725a727aba760c91b602082015290565b6040516120a381611971565b600d81526c2224a922a1aa2fa0a1aa24a7a760991b602082015290565b506040516120cd81611971565b600b81526a4357435f4d45535341474560a81b602082015290565b60405163bd02d0f560e01b81527f9f09ba540332598ab052646141d07f6f01b4b6ef71f21693b9466789684ef90460048201526020816024817f00000000000000000000000000000000000000000000000000000000000000006001600160a01b03165afa908115611c6557600091612169575b5080611b57575060095490565b906020823d8211612192575b816121826020938361198d565b81010312610cb45750513861215c565b3d9150612175565b60405163bd02d0f560e01b81527edc9ed1a645a4e29d67dbabcbb07097101a46185dc84fe1146ab5a876b421ba60048201526020816024817f00000000000000000000000000000000000000000000000000000000000000006001600160a01b03165afa908115611c6557600091612213575b50151590565b906020823d821161223c575b8161222c6020938361198d565b81010312610cb45750513861220d565b3d915061221f565b3360009081527ff7c9542c591017a21c74b6f3fab6263c7952fc0aaf9db4c22a2a04ddc7f8674f602090815260408083205490927f65d7a28e3265b37a6474929f336521b332c1681b933f6cb9f3376673440d862a9160ff16156122a85750505050565b6122b1336127cd565b918451906122be82611955565b6042825284820192606036853782511561244b576030845382519060019182101561244b5790607860218501536041915b8183116123dd5750505061239b57604861239793869361237b9361236c985198899376020b1b1b2b9b9a1b7b73a3937b61d1030b1b1b7bab73a1604d1b8a860152612343815180928c603789019101611ada565b8401917001034b99036b4b9b9b4b733903937b6329607d1b603784015251809386840190611ada565b0103602881018752018561198d565b5192839262461bcd60e51b845260048401526024830190611afd565b0390fd5b60648486519062461bcd60e51b825280600483015260248201527f537472696e67733a20686578206c656e67746820696e73756666696369656e746044820152fd5b909192600f81166010811015612437576f181899199a1a9b1b9c1cb0b131b232b360811b901a61240d85876127bc565b5360041c928015612423576000190191906122ef565b634e487b7160e01b82526011600452602482fd5b634e487b7160e01b83526032600452602483fd5b634e487b7160e01b81526032600452602490fd5b3360009081527f7d7ffb7a348e1c6a02869081a26547b49160dd3df72d1d75a570eb9b698292ec602090815260408083205490927fa49807205ce4d355092ef5a8a18f56e8913cf4a201fbe287825b095693c217759160ff16156124c35750505050565b6124cc336127cd565b918451906124d982611955565b6042825284820192606036853782511561244b576030845382519060019182101561244b5790607860218501536041915b81831161255e5750505061239b57604861239793869361237b9361236c985198899376020b1b1b2b9b9a1b7b73a3937b61d1030b1b1b7bab73a1604d1b8a860152612343815180928c603789019101611ada565b909192600f81166010811015612437576f181899199a1a9b1b9c1cb0b131b232b360811b901a61258e85876127bc565b5360041c9280156124235760001901919061250a565b600090808252602090828252604092838120338252835260ff8482205416156125cd5750505050565b6125d6336127cd565b918451906125e382611955565b6042825284820192606036853782511561244b576030845382519060019182101561244b5790607860218501536041915b8183116126685750505061239b57604861239793869361237b9361236c985198899376020b1b1b2b9b9a1b7b73a3937b61d1030b1b1b7bab73a1604d1b8a860152612343815180928c603789019101611ada565b909192600f81166010811015612437576f181899199a1a9b1b9c1cb0b131b232b360811b901a61269885876127bc565b5360041c92801561242357600019019190612614565b9060009180835282602052604083209160018060a01b03169182845260205260ff6040842054166126de57505050565b80835282602052604083208284526020526040832060ff1981541690557ff6391f5c32d9c69d2a47ea670b442974b53935d1edc7fd64eb21e047a839171b339380a4565b60ff6002541661272e57565b60405162461bcd60e51b815260206004820152601060248201526f14185d5cd8589b194e881c185d5cd95960821b6044820152606490fd5b600260015414612777576002600155565b60405162461bcd60e51b815260206004820152601f60248201527f5265656e7472616e637947756172643a207265656e7472616e742063616c6c006044820152606490fd5b9081518110156118ca570160200190565b604051906060820182811067ffffffffffffffff82111761192b57604052602a82526020820160403682378251156118ca576030905381516001908110156118ca57607860218401536029905b80821161286e57505061282a5790565b606460405162461bcd60e51b815260206004820152602060248201527f537472696e67733a20686578206c656e67746820696e73756666696369656e746044820152fd5b9091600f811660108110156128c7576f181899199a1a9b1b9c1cb0b131b232b360811b901a61289d84866127bc565b5360041c9180156128b257600019019061281a565b60246000634e487b7160e01b81526011600452fd5b60246000634e487b7160e01b81526032600452fdfe60fb9dec71ed36a909fcdac20472dc2e076848dbf71f1bcb303a241f6eed0f02a2646970667358221220a2528b1541243b5787ed1d7e3c2b2e87419d0581fb7d66e06c1d6f7608bc6ddb64736f6c634300081300332f8788117e7eff1d82e926ec794901d17c78024a50270940304540a733656f0d","linkReferences":{}},"methodIdentifiers":{"ADMIN_ROLE()":"75b238fc","DEFAULT_ADMIN_ROLE()":"a217fddf","PAUSER_ROLE()":"e63ab1e9","actionActive(uint8)":"9ef86c11","batchProcessActions(address[],uint8[],bytes32[],string[])":"cfd588a7","civicToken()":"2e2c138c","consensus()":"8ef3f761","districtUsers(bytes32,uint256)":"611b19af","getDistrictLeaderboard(bytes32,uint256)":"79f9260d","getPlatformStats()":"136d8883","getRoleAdmin(bytes32)":"248a9ca3","grantRole(bytes32,address)":"2f2ff15d","hasRole(bytes32,address)":"91d14854","minActionInterval()":"af8d18de","params()":"cff0ab96","pause()":"8456cb59","paused()":"5c975abb","processCivicAction(address,uint8,bytes32,string)":"bad152bd","protocolDailyMinted(uint256)":"223d6eac","registerUser(address,bytes32,bytes)":"3c5e076b","registeredUsers(address)":"0e50cee5","renounceRole(bytes32,address)":"36568abe","revokeRole(bytes32,address)":"d547741f","setActionActive(uint8,bool)":"4c5d31a7","setConsensus(address)":"5da7560c","supportsInterface(bytes4)":"01ffc9a7","totalCivicMinted()":"8336c0a4","totalRegisteredUsers()":"3c7afca5","unpause()":"3f4ba83a","userDailyMinted(address,uint256)":"71a16a6c","userLastActionTime(address)":"cf9a7d66","verifier()":"2b7ac3f3","voterRegistry()":"be60040e"},"id":4}