{"abi":[{"type":"constructor","inputs":[{"name":"_voterRegistry","type":"address","internalType":"address"},{"name":"_civicToken","type":"address","internalType":"address"},{"name":"_verifier","type":"address","internalType":"address"}],"stateMutability":"nonpayable"},{"type":"function","name":"ADMIN_ROLE","inputs":[],"outputs":[{"name":"","type":"bytes32","internalType":"bytes32"}],"stateMutability":"view"},{"type":"function","name":"CIVIC_PER_ACTION","inputs":[],"outputs":[{"name":"","type":"uint256","internalType":"uint256"}],"stateMutability":"view"},{"type":"function","name":"DEFAULT_ADMIN_ROLE","inputs":[],"outputs":[{"name":"","type":"bytes32","internalType":"bytes32"}],"stateMutability":"view"},{"type":"function","name":"OPERATOR_ROLE","inputs":[],"outputs":[{"name":"","type":"bytes32","internalType":"bytes32"}],"stateMutability":"view"},{"type":"function","name":"actionRewards","inputs":[{"name":"","type":"uint8","internalType":"enum VOTERRegistry.ActionType"}],"outputs":[{"name":"actionType","type":"uint8","internalType":"enum VOTERRegistry.ActionType"},{"name":"civicReward","type":"uint256","internalType":"uint256"},{"name":"active","type":"bool","internalType":"bool"}],"stateMutability":"view"},{"type":"function","name":"batchProcessActions","inputs":[{"name":"users","type":"address[]","internalType":"address[]"},{"name":"actionTypes","type":"uint8[]","internalType":"enum VOTERRegistry.ActionType[]"},{"name":"actionHashes","type":"bytes32[]","internalType":"bytes32[]"},{"name":"metadataArray","type":"string[]","internalType":"string[]"}],"outputs":[],"stateMutability":"nonpayable"},{"type":"function","name":"civicToken","inputs":[],"outputs":[{"name":"","type":"address","internalType":"contract CIVICToken"}],"stateMutability":"view"},{"type":"function","name":"districtUsers","inputs":[{"name":"","type":"bytes32","internalType":"bytes32"},{"name":"","type":"uint256","internalType":"uint256"}],"outputs":[{"name":"","type":"address","internalType":"address"}],"stateMutability":"view"},{"type":"function","name":"getDistrictLeaderboard","inputs":[{"name":"districtHash","type":"bytes32","internalType":"bytes32"},{"name":"limit","type":"uint256","internalType":"uint256"}],"outputs":[{"name":"","type":"tuple[]","internalType":"struct CommuniqueCore.LeaderboardEntry[]","components":[{"name":"citizen","type":"address","internalType":"address"},{"name":"actionCount","type":"uint256","internalType":"uint256"},{"name":"civicEarned","type":"uint256","internalType":"uint256"},{"name":"districtHash","type":"bytes32","internalType":"bytes32"}]}],"stateMutability":"view"},{"type":"function","name":"getPlatformStats","inputs":[],"outputs":[{"name":"","type":"tuple","internalType":"struct CommuniqueCore.PlatformStats","components":[{"name":"totalUsers","type":"uint256","internalType":"uint256"},{"name":"totalActions","type":"uint256","internalType":"uint256"},{"name":"totalCivicMinted","type":"uint256","internalType":"uint256"},{"name":"avgActionsPerUser","type":"uint256","internalType":"uint256"},{"name":"activeUsersLast30Days","type":"uint256","internalType":"uint256"}]}],"stateMutability":"view"},{"type":"function","name":"getRoleAdmin","inputs":[{"name":"role","type":"bytes32","internalType":"bytes32"}],"outputs":[{"name":"","type":"bytes32","internalType":"bytes32"}],"stateMutability":"view"},{"type":"function","name":"grantRole","inputs":[{"name":"role","type":"bytes32","internalType":"bytes32"},{"name":"account","type":"address","internalType":"address"}],"outputs":[],"stateMutability":"nonpayable"},{"type":"function","name":"hasRole","inputs":[{"name":"role","type":"bytes32","internalType":"bytes32"},{"name":"account","type":"address","internalType":"address"}],"outputs":[{"name":"","type":"bool","internalType":"bool"}],"stateMutability":"view"},{"type":"function","name":"minActionInterval","inputs":[],"outputs":[{"name":"","type":"uint256","internalType":"uint256"}],"stateMutability":"view"},{"type":"function","name":"pause","inputs":[],"outputs":[],"stateMutability":"nonpayable"},{"type":"function","name":"paused","inputs":[],"outputs":[{"name":"","type":"bool","internalType":"bool"}],"stateMutability":"view"},{"type":"function","name":"processCivicAction","inputs":[{"name":"user","type":"address","internalType":"address"},{"name":"actionType","type":"uint8","internalType":"enum VOTERRegistry.ActionType"},{"name":"actionHash","type":"bytes32","internalType":"bytes32"},{"name":"metadata","type":"string","internalType":"string"}],"outputs":[],"stateMutability":"nonpayable"},{"type":"function","name":"registerUser","inputs":[{"name":"user","type":"address","internalType":"address"},{"name":"districtHash","type":"bytes32","internalType":"bytes32"},{"name":"selfProof","type":"bytes","internalType":"bytes"}],"outputs":[],"stateMutability":"nonpayable"},{"type":"function","name":"registeredUsers","inputs":[{"name":"","type":"address","internalType":"address"}],"outputs":[{"name":"","type":"bool","internalType":"bool"}],"stateMutability":"view"},{"type":"function","name":"renounceRole","inputs":[{"name":"role","type":"bytes32","internalType":"bytes32"},{"name":"account","type":"address","internalType":"address"}],"outputs":[],"stateMutability":"nonpayable"},{"type":"function","name":"revokeRole","inputs":[{"name":"role","type":"bytes32","internalType":"bytes32"},{"name":"account","type":"address","internalType":"address"}],"outputs":[],"stateMutability":"nonpayable"},{"type":"function","name":"setActionReward","inputs":[{"name":"actionType","type":"uint8","internalType":"enum VOTERRegistry.ActionType"},{"name":"reward","type":"uint256","internalType":"uint256"},{"name":"active","type":"bool","internalType":"bool"}],"outputs":[],"stateMutability":"nonpayable"},{"type":"function","name":"supportsInterface","inputs":[{"name":"interfaceId","type":"bytes4","internalType":"bytes4"}],"outputs":[{"name":"","type":"bool","internalType":"bool"}],"stateMutability":"view"},{"type":"function","name":"totalCivicMinted","inputs":[],"outputs":[{"name":"","type":"uint256","internalType":"uint256"}],"stateMutability":"view"},{"type":"function","name":"totalRegisteredUsers","inputs":[],"outputs":[{"name":"","type":"uint256","internalType":"uint256"}],"stateMutability":"view"},{"type":"function","name":"unpause","inputs":[],"outputs":[],"stateMutability":"nonpayable"},{"type":"function","name":"updateActionInterval","inputs":[{"name":"newInterval","type":"uint256","internalType":"uint256"}],"outputs":[],"stateMutability":"nonpayable"},{"type":"function","name":"userLastActionTime","inputs":[{"name":"","type":"address","internalType":"address"}],"outputs":[{"name":"","type":"uint256","internalType":"uint256"}],"stateMutability":"view"},{"type":"function","name":"verifier","inputs":[],"outputs":[{"name":"","type":"address","internalType":"contract IActionVerifier"}],"stateMutability":"view"},{"type":"function","name":"voterRegistry","inputs":[],"outputs":[{"name":"","type":"address","internalType":"contract VOTERRegistry"}],"stateMutability":"view"},{"type":"event","name":"ActionProcessed","inputs":[{"name":"user","type":"address","indexed":true,"internalType":"address"},{"name":"actionType","type":"uint8","indexed":false,"internalType":"enum VOTERRegistry.ActionType"},{"name":"civicRewarded","type":"uint256","indexed":false,"internalType":"uint256"},{"name":"actionHash","type":"bytes32","indexed":false,"internalType":"bytes32"}],"anonymous":false},{"type":"event","name":"Paused","inputs":[{"name":"account","type":"address","indexed":false,"internalType":"address"}],"anonymous":false},{"type":"event","name":"RewardUpdated","inputs":[{"name":"actionType","type":"uint8","indexed":false,"internalType":"enum VOTERRegistry.ActionType"},{"name":"newReward","type":"uint256","indexed":false,"internalType":"uint256"}],"anonymous":false},{"type":"event","name":"RoleAdminChanged","inputs":[{"name":"role","type":"bytes32","indexed":true,"internalType":"bytes32"},{"name":"previousAdminRole","type":"bytes32","indexed":true,"internalType":"bytes32"},{"name":"newAdminRole","type":"bytes32","indexed":true,"internalType":"bytes32"}],"anonymous":false},{"type":"event","name":"RoleGranted","inputs":[{"name":"role","type":"bytes32","indexed":true,"internalType":"bytes32"},{"name":"account","type":"address","indexed":true,"internalType":"address"},{"name":"sender","type":"address","indexed":true,"internalType":"address"}],"anonymous":false},{"type":"event","name":"RoleRevoked","inputs":[{"name":"role","type":"bytes32","indexed":true,"internalType":"bytes32"},{"name":"account","type":"address","indexed":true,"internalType":"address"},{"name":"sender","type":"address","indexed":true,"internalType":"address"}],"anonymous":false},{"type":"event","name":"Unpaused","inputs":[{"name":"account","type":"address","indexed":false,"internalType":"address"}],"anonymous":false},{"type":"event","name":"UserRegistered","inputs":[{"name":"user","type":"address","indexed":true,"internalType":"address"},{"name":"districtHash","type":"bytes32","indexed":false,"internalType":"bytes32"}],"anonymous":false}],"bytecode":{"object":"0x60e0346200048957601f620028dc38819003918201601f191683019291906001600160401b038411838510176200048e57816060928492604096875283398101031262000489576200005181620004c4565b916020916200006f8262000067858401620004c4565b9201620004c4565b60018080556002805460ff199081168255610e106007556001600160a01b0397881660805293871660a0529590911660c052600080805280855283812033825285528381205490949060ff9081161562000454575b7fa49807205ce4d355092ef5a8a18f56e8913cf4a201fbe287825b095693c217758087528683528587203388528352818688205416156200041d575b507f97667070c54ef182b0f5858b034beac1b6f3089aa2d3188bb1e8929f4fa9b929808752868352858720338852835281868820541615620003e6575b5062000148620004a4565b9686885282880196678ac7230489e8000094858952878a01968188528280526003978887528984209b519a60049b8c811015620003d357620001b0928e928d9e9f928a878b9554169116178455518684015551151591019060ff801983541691151516179055565b885183815287878201527f603a8d1ad58eb06e822657e65b0378ae6cb458e08f3e041f0b61a502d69ec062998a91a18a620001ea620004a4565b8381528b888201674563918244f4000093848252828401928784528789528d8c528820935190811015620003bf5792888f94938f9694936200024b948d8a8654169116178455518984015551151591019060ff801983541691151516179055565b81519085825289820152a18a62000261620004a4565b8581528b8882016801158e460913d0000093848252828401928784528989528d8c528820935190811015620003bf5792888f94938f969493620002c3948d8a8654169116178455518984015551151591019060ff801983541691151516179055565b81519087825289820152a18a620002d9620004a4565b95898752878701928984528c8801958587528b81528b8a528d8120985193841015620003ab57509187959391620003339795938e9c9b9a9954169116178555519084015551151591019060ff801983541691151516179055565b8351928352820152a1516123e29081620004da823960805181818161047d01528181610888015281816109e701528181610df3015281816113e801526117cd015260a0518181816105ba01528181610a9201528181610e1701526116bd015260c051818181610440015281816109ab01526117020152f35b634e487b7160e01b815260218f5260249150fd5b8f886021602492634e487b7160e01b835252fd5b634e487b7160e01b865260218d52602486fd5b8087528683528587203388528352858720848682541617905533903390600080516020620028bc8339815191528980a4386200013d565b8087528683528587203388528352858720848682541617905533903390600080516020620028bc8339815191528980a43862000100565b85805285825284862033875282528486208385825416179055333387600080516020620028bc8339815191528180a4620000c4565b600080fd5b634e487b7160e01b600052604160045260246000fd5b60405190606082016001600160401b038111838210176200048e57604052565b51906001600160a01b0382168203620004895756fe608060408181526004918236101561001657600080fd5b60009260e08435811c92836301ffc9a714611964575082630db352a81461190c5782630e50cee5146118cd578263136d88831461178057826317826fd11461175c578263248a9ca3146117315782632b7ac3f3146116ec5782632e2c138c146116a75782632f2ff15d146115fd57826336568abe1461156b5782633c5e076b1461133f5782633c7afca51461131f5782633f4ba83a146112885782634fd093fa1461120d5782635c975abb146111e8578263611b19af1461119e57826375b238fc1461116257826377fb6e511461106457826379f9260d14610d5b575081638336c0a414610d3c5781638456cb5914610ce157816391d1485414610c9c578163a217fddf14610c81578163af8d18de14610c62578163bad152bd146108b7578163be60040e14610873578163cf9a7d661461083d578163cfd588a7146101de578163d547741f1461019c575063f5b541a61461017157600080fd5b346101985781600319360112610198576020905160008051602061238d8339815191528152f35b5080fd5b919050346101da57806003193601126101da576101d791356101d260016101c1611a0a565b938387528660205286200154612034565b61213e565b80f35b8280fd5b8284346108165760803660031901126108165782359267ffffffffffffffff928385116101da57366023860112156101da57848201359361021e85611b5b565b61022a83519182611ae2565b8581526020968782016024809860051b830101913683116107e8578801905b82821061081957505050853594828611610816573660238701121561081657858501359561027687611b5b565b9661028386519889611ae2565b808852888a89019160051b83010191368311610812578901905b8282106107fb575050506044359483861161019857366023870112156101985785810135956102cb87611b5b565b966102d887519889611ae2565b808852898b89019160051b830101913683116106e757908a8c9201905b8382106107ec5750505050606435938085116101da57366023860112156101da578482013561032381611b5b565b9561033088519788611ae2565b8187528a8c88019260051b820101923684116106b5578b8201925b8484106107c157505050505060008051602061238d833981519152825281895284822033600052895260ff9361038685876000205416611b73565b61038e6121f6565b6103966121b2565b8351885180911490816107b6575b50806107ab575b1561077157825b8451811015610769576001600160a01b03806103ce8388611d01565b5116855260068c52868a818a8820541615801561073b575b61072f576104066104016103fc86600294611d01565b611d15565b6119b8565b01541661041d575b5061041890611bbf565b6103b2565b610427828a611d01565b51885190635b3c70b360e11b8252858201528c818d81857f0000000000000000000000000000000000000000000000000000000000000000165afa80156106eb5786906106f9575b6104799150611bfe565b89817f0000000000000000000000000000000000000000000000000000000000000000166104b76103fc85856104af828d611d01565b511694611d01565b906104c2858d611d01565b51926104ce8688611d01565b51823b156106f5579089896104fb8f94839796955198899788968795639e15996d60e01b87528601611c88565b03925af180156106eb578a9392878f92938e946106c7575b5089908c89600161052a6104016103fc8b8b611d01565b0154958661059e575b6103fc898761057b82896104189f9a9961058999839960008051602061236d8339815191529f9e996105839a61056d6105959f8890611d01565b511684525242912055611d01565b511699611d01565b93611d01565b518d5193849384611ce4565b0390a29061040e565b505050509092919394506105ed6105e86103fc87866105e082827f00000000000000000000000000000000000000000000000000000000000000001697611d01565b511695611d01565b611d22565b91813b156106c35788918591838a8f610619905197889687958694632072b50d60e21b86528501611cc0565b03925af180156106b95791888f8c8f958f989795928c938c9261068c575b506103fc89889761057b826104189e996105959961058999839960008051602061236d8339815191529f996105839a6106736008918254611be4565b90559950995099509950999e5050509798505050610533565b9450505050929495506106a0919350611a96565b6106b5578992918b91888f8c898b9238610637565b8580fd5b8a513d89823e3d90fd5b8880fd5b9194955092506106d79150611a96565b6106e75790898c8a938738610513565b8480fd5b89513d88823e3d90fd5b8980fd5b508c81813d8311610728575b61070f8183611ae2565b810103126106b55761072361047991611bf1565b61046f565b503d610705565b50505061041890611bbf565b505050806107498388611d01565b51168552838c52868a6107628a88205460075490611be4565b42106103e6565b836001805580f35b855162461bcd60e51b81528083018b90526015818b015274082e4e4c2f240d8cadccee8d040dad2e6dac2e8c6d605b1b6044820152606490fd5b5086518151146103ab565b90508751148b6103a4565b83358281116107e8578e916107dd8f9284933691880101611b04565b81520193019261034b565b8780fd5b813581529082019082016102f5565b8135888110156106e7578152908a01908a0161029d565b8380fd5b80fd5b81356001600160a01b0381168103610838578152908901908901610249565b600080fd5b9050346101da5760203660031901126101da5760209282916001600160a01b036108656119f4565b168252845220549051908152f35b505034610198578160031936011261019857517f00000000000000000000000000000000000000000000000000000000000000006001600160a01b03168152602090f35b9050346101da5760803660031901126101da576108d26119f4565b602435828110156106e75760443560643567ffffffffffffffff8111610c5e576108ff9036908601611b04565b9460008051602061238d8339815191528752602087815281882033600052815261092f60ff836000205416611b73565b6109376121f6565b61093f6121b2565b60018060a01b039485811697888a526006835260ff848b20541615610c255760ff600261096b886119b8565b01541615610be257888a52878352610989848b205460075490611be4565b4210610ba9579089918451635b3c70b360e11b8152868a82015284816024818c7f0000000000000000000000000000000000000000000000000000000000000000165afa8015610b9f578490610b69575b6109e49150611bfe565b877f000000000000000000000000000000000000000000000000000000000000000016803b156108125787849184838d610a338c978c5198899788968795639e15996d60e01b87528601611c88565b03925af18015610b5f57908391610b4b575b50506001610a52876119b8565b01549687610a90575b505095610a869392918860008051602061236d83398151915298525242818920555193849384611ce4565b0390a26001805580f35b7f000000000000000000000000000000000000000000000000000000000000000016610abb87611d22565b91813b156108125783918991838c610ae68a5197889687958694632072b50d60e21b86528501611cc0565b03925af18015610b4157610b27575b50509060008051602061236d83398151915295610a869392610b1987600854611be4565b600855919293899197610a5b565b610b349094939294611a96565b6107e85790918738610af5565b84513d84823e3d90fd5b610b5490611a96565b610198578138610a45565b85513d85823e3d90fd5b508481813d8311610b98575b610b7f8183611ae2565b8101031261081257610b936109e491611bf1565b6109da565b503d610b75565b86513d86823e3d90fd5b835162461bcd60e51b815280890184905260136024820152721058dd1a5bdb881d1bdbc8199c995c5d595b9d606a1b6044820152606490fd5b835162461bcd60e51b8152808901849052601960248201527f416374696f6e2074797065206e6f7420737570706f72746564000000000000006044820152606490fd5b835162461bcd60e51b81528089018490526013602482015272155cd95c881b9bdd081c9959da5cdd195c9959606a1b6044820152606490fd5b8680fd5b5050346101985781600319360112610198576020906007549051908152f35b50503461019857816003193601126101985751908152602090f35b9050346101da57816003193601126101da5781602093610cba611a0a565b92358152808552209060018060a01b0316600052825260ff81600020541690519015158152f35b50503461019857816003193601126101985760207f62e78cea01bee320cd4e420270b5ea74000d11b0c9f74754ebdbfc544b05a25891610d1f611e19565b610d276121b2565b600160ff19600254161760025551338152a180f35b5050346101985781600319360112610198576020906008549051908152f35b849084346101da57610d6c36611a20565b9290918285526020600581528186209482518087848299549384815201908a52848a20928a5b8682821061104557505050610da992500387611ae2565b8551908181111561103d5750955b610dc087611b5b565b97610dcd8451998a611ae2565b878952601f19610ddc89611b5b565b0183835b8281106110115750506001600160a01b037f00000000000000000000000000000000000000000000000000000000000000008116987f000000000000000000000000000000000000000000000000000000000000000082169250845b8b811080611007575b15610fa65782610e558284611d01565b5116898c8a5191828092637d97b57760e01b8252858b83015260249485915afa908115610f9c578991610f55575b508a5163a5b626bf60e01b8152888101849052918a8382818b5afa928315610f4b578a93610f1c575b50678ac7230489e8000092838102938185041490151715610f0b5750928f81938e610f00948e610f06988f825195610ee387611aaa565b86528501528301526060820152610efa8383611d01565b52611d01565b50611bbf565b610e3c565b634e487b7160e01b8a526011895289fd5b9092508a81813d8311610f44575b610f348183611ae2565b810103126106f557519138610eac565b503d610f2a565b8c513d8c823e3d90fd5b90508b81813d8311610f95575b610f6c8183611ae2565b810103126106c357610f7d81611bf1565b50610f8e60808c8301519201611bf1565b5038610e83565b503d610f62565b8b513d8b823e3d90fd5b87878e888684519380850191818652845180935281878701950193905b838210610fd05786860387f35b8451805182168752808401518785015288810151898801526060908101519087015260809095019493820193600190910190610fc3565b5081518110610e45565b865182828e61101f84611aaa565b8884528883850152888b850152886060850152010152018490610de0565b905095610db7565b85546001600160a01b031684526001958601958c955093019201610d92565b50838334610198576060366003190112610198578235838110156101da576024356044358015158091036106e75761109a611e19565b83516060810181811067ffffffffffffffff82111761114d57855283815260208101908382528581019283526110cf856119b8565b9051918883101561113a577f603a8d1ad58eb06e822657e65b0378ae6cb458e08f3e041f0b61a502d69ec06297985060ff91600291831994848684541691161782555160018201550192511515918354169116179055611131835180936119e7565b6020820152a180f35b634e487b7160e01b885260218952602488fd5b604188634e487b7160e01b6000525260246000fd5b50505034610198578160031936011261019857602090517fa49807205ce4d355092ef5a8a18f56e8913cf4a201fbe287825b095693c217758152f35b50505034610198576111af36611a20565b92908152600560205281812090815484101561081657506020926111d291611a36565b905491519160018060a01b039160031b1c168152f35b5050503461019857816003193601126101985760209060ff6002541690519015158152f35b509050346101da5760203660031901126101da5780359161122c611e19565b61012c8310158061127b575b1561124557505060075580f35b906020606492519162461bcd60e51b8352820152601060248201526f125b9d985b1a59081a5b9d195c9d985b60821b6044820152fd5b5062093a80831115611238565b509050346101da57826003193601126101da576112a3611e19565b6002549060ff8216156112e5575060ff1916600255513381527f5db9ee0a495bf2e6ff9c91a7834c1ba4fdd244a5e8aa4e537bd38aeae4b073aa90602090a180f35b606490602084519162461bcd60e51b8352820152601460248201527314185d5cd8589b194e881b9bdd081c185d5cd95960621b6044820152fd5b505050346101985781600319360112610198576020906009549051908152f35b508383346101985760603660031901126101985761135b6119f4565b6024918235906044359267ffffffffffffffff94858511610c5e5736602386011215610c5e5784880135958611610c5e5736818787010111610c5e5760008051602061238d833981519152875260209487865283882033895286526113c560ff858a205416611b73565b6001600160a01b03928316808952600687528489205490979060ff1661152957837f00000000000000000000000000000000000000000000000000000000000000001690813b156106f5578991898360848e858c968a8d519a8b998a9889966327e95d9d60e21b8852870152828601526060604486015282606486015201848401378181018301849052601f01601f191681010301925af1801561151f5761150c575b5085875260068552828720600160ff198254161790558387526005855282872090815498680100000000000000008a10156114fb575050876114d29160017f4c5d15f5779ae1ecd7d55bd3283d898e29c35743d172bd7b83a16e17bc0afe2a98999a018155611a36565b819291549060031b9188831b921b19161790556114f0600954611bbf565b60095551908152a280f35b634e487b7160e01b89526041905287fd5b61151890979197611a96565b9588611468565b84513d8a823e3d90fd5b845162461bcd60e51b8152808b018890526017818501527f5573657220616c726561647920726567697374657265640000000000000000006044820152606490fd5b83858334610198578260031936011261019857611586611a0a565b90336001600160a01b038316036115a257906101d7913561213e565b608490602085519162461bcd60e51b8352820152602f60248201527f416363657373436f6e74726f6c3a2063616e206f6e6c792072656e6f756e636560448201526e103937b632b9903337b91039b2b63360891b6064820152fd5b509050346101da57816003193601126101da57359061161a611a0a565b908284528360205261163160018286200154612034565b82845260208481528185206001600160a01b039093168086529290528084205460ff161561165d578380f35b828452836020528084208285526020528320600160ff1982541617905533917f2f8788117e7eff1d82e926ec794901d17c78024a50270940304540a733656f0d8480a43880808380f35b50505034610198578160031936011261019857517f00000000000000000000000000000000000000000000000000000000000000006001600160a01b03168152602090f35b50505034610198578160031936011261019857517f00000000000000000000000000000000000000000000000000000000000000006001600160a01b03168152602090f35b509050346101da5760203660031901126101da57816020936001923581528085522001549051908152f35b5050503461019857816003193601126101985760209051678ac7230489e800008152f35b5083833461019857816003193601126101985781608082516117a181611a64565b82815260208101839052838101839052606081018390520152805163136d888360e01b815290808285817f00000000000000000000000000000000000000000000000000000000000000006001600160a01b03165afa9283156118c2578092819461188b575b508315806118805761186d575060a09350828204905b600854600a60095404936080835161183481611a64565b87815260208101928352848101938452606081019586520194855282519586525160208601525190840152516060830152516080820152f35b634e487b7160e01b815260128552602490fd5b5060a094509061181d565b82809295508194503d83116118bb575b6118a58183611ae2565b810103126101da57602082519201519285611807565b503d61189b565b9051903d90823e3d90fd5b505050346101985760203660031901126101985760209160ff9082906001600160a01b036118f96119f4565b1681526006855220541690519015158152f35b508284346108165760203660031901126108165782359283101561081657506119366060926119b8565b9060ff8254169160ff600260018301549201541690611957835180956119e7565b6020840152151590820152f35b859083346101da5760203660031901126101da573563ffffffff60e01b81168091036101da5760209250637965db0b60e01b81149081156119a7575b5015158152f35b6301ffc9a760e01b149050836119a0565b60048110156119d1576000526003602052604060002090565b634e487b7160e01b600052602160045260246000fd5b9060048210156119d15752565b600435906001600160a01b038216820361083857565b602435906001600160a01b038216820361083857565b6040906003190112610838576004359060243590565b8054821015611a4e5760005260206000200190600090565b634e487b7160e01b600052603260045260246000fd5b60a0810190811067ffffffffffffffff821117611a8057604052565b634e487b7160e01b600052604160045260246000fd5b67ffffffffffffffff8111611a8057604052565b6080810190811067ffffffffffffffff821117611a8057604052565b6040810190811067ffffffffffffffff821117611a8057604052565b90601f8019910116810190811067ffffffffffffffff821117611a8057604052565b81601f820112156108385780359067ffffffffffffffff8211611a805760405192611b39601f8401601f191660200185611ae2565b8284526020838301011161083857816000926020809301838601378301015290565b67ffffffffffffffff8111611a805760051b60200190565b15611b7a57565b60405162461bcd60e51b815260206004820152601760248201527f4e6f7420617574686f72697a6564206f70657261746f720000000000000000006044820152606490fd5b6000198114611bce5760010190565b634e487b7160e01b600052601160045260246000fd5b91908201809211611bce57565b5190811515820361083857565b15611c0557565b60405162461bcd60e51b81526020600482015260136024820152721058dd1a5bdb881b9bdd081d995c9a599a5959606a1b6044820152606490fd5b60005b838110611c535750506000910152565b8181015183820152602001611c43565b90602091611c7c81518092818552858086019101611c40565b601f01601f1916010190565b6001600160a01b039091168152611cbd9392608092611cab9060208401906119e7565b60408201528160608201520190611c63565b90565b611cbd939260609260018060a01b0316825260208201528160408201520190611c63565b604091949392611cf88260608101976119e7565b60208201520152565b8051821015611a4e5760209160051b010190565b5160048110156119d15790565b60048110156119d1578015611df15760018114611dc75760028114611d9657600314611d6b57604051611d5481611ac6565b60078152662aa725a727aba760c91b602082015290565b604051611d7781611ac6565b600f81526e504f4c4943595f4144564f4341435960881b602082015290565b50604051611da381611ac6565b6014815273434f4d4d554e4954595f4f5247414e495a494e4760601b602082015290565b50604051611dd481611ac6565b600d81526c2224a922a1aa2fa0a1aa24a7a760991b602082015290565b50604051611dfe81611ac6565b600b81526a4357435f4d45535341474560a81b602082015290565b3360009081527f7d7ffb7a348e1c6a02869081a26547b49160dd3df72d1d75a570eb9b698292ec602090815260408083205490927fa49807205ce4d355092ef5a8a18f56e8913cf4a201fbe287825b095693c217759160ff1615611e7d5750505050565b611e863361225d565b91845190611e9382611aaa565b6042825284820192606036853782511561202057603084538251906001918210156120205790607860218501536041915b818311611fb257505050611f70576048611f6c938693611f5093611f41985198899376020b1b1b2b9b9a1b7b73a3937b61d1030b1b1b7bab73a1604d1b8a860152611f18815180928c603789019101611c40565b8401917001034b99036b4b9b9b4b733903937b6329607d1b603784015251809386840190611c40565b01036028810187520185611ae2565b5192839262461bcd60e51b845260048401526024830190611c63565b0390fd5b60648486519062461bcd60e51b825280600483015260248201527f537472696e67733a20686578206c656e67746820696e73756666696369656e746044820152fd5b909192600f8116601081101561200c576f181899199a1a9b1b9c1cb0b131b232b360811b901a611fe2858761224c565b5360041c928015611ff857600019019190611ec4565b634e487b7160e01b82526011600452602482fd5b634e487b7160e01b83526032600452602483fd5b634e487b7160e01b81526032600452602490fd5b600090808252602090828252604092838120338252835260ff84822054161561205d5750505050565b6120663361225d565b9184519061207382611aaa565b6042825284820192606036853782511561202057603084538251906001918210156120205790607860218501536041915b8183116120f857505050611f70576048611f6c938693611f5093611f41985198899376020b1b1b2b9b9a1b7b73a3937b61d1030b1b1b7bab73a1604d1b8a860152611f18815180928c603789019101611c40565b909192600f8116601081101561200c576f181899199a1a9b1b9c1cb0b131b232b360811b901a612128858761224c565b5360041c928015611ff8576000190191906120a4565b9060009180835282602052604083209160018060a01b03169182845260205260ff60408420541661216e57505050565b80835282602052604083208284526020526040832060ff1981541690557ff6391f5c32d9c69d2a47ea670b442974b53935d1edc7fd64eb21e047a839171b339380a4565b60ff600254166121be57565b60405162461bcd60e51b815260206004820152601060248201526f14185d5cd8589b194e881c185d5cd95960821b6044820152606490fd5b600260015414612207576002600155565b60405162461bcd60e51b815260206004820152601f60248201527f5265656e7472616e637947756172643a207265656e7472616e742063616c6c006044820152606490fd5b908151811015611a4e570160200190565b604051906060820182811067ffffffffffffffff821117611a8057604052602a8252602082016040368237825115611a4e57603090538151600190811015611a4e57607860218401536029905b8082116122fe5750506122ba5790565b606460405162461bcd60e51b815260206004820152602060248201527f537472696e67733a20686578206c656e67746820696e73756666696369656e746044820152fd5b9091600f81166010811015612357576f181899199a1a9b1b9c1cb0b131b232b360811b901a61232d848661224c565b5360041c9180156123425760001901906122aa565b60246000634e487b7160e01b81526011600452fd5b60246000634e487b7160e01b81526032600452fdfe60fb9dec71ed36a909fcdac20472dc2e076848dbf71f1bcb303a241f6eed0f0297667070c54ef182b0f5858b034beac1b6f3089aa2d3188bb1e8929f4fa9b929a2646970667358221220d7108ac798a9c0cb193aa063951fef5a8ed0abc78592707b6579b5fe6d44368f64736f6c634300081300332f8788117e7eff1d82e926ec794901d17c78024a50270940304540a733656f0d","linkReferences":{}},"methodIdentifiers":{"ADMIN_ROLE()":"75b238fc","CIVIC_PER_ACTION()":"17826fd1","DEFAULT_ADMIN_ROLE()":"a217fddf","OPERATOR_ROLE()":"f5b541a6","actionRewards(uint8)":"0db352a8","batchProcessActions(address[],uint8[],bytes32[],string[])":"cfd588a7","civicToken()":"2e2c138c","districtUsers(bytes32,uint256)":"611b19af","getDistrictLeaderboard(bytes32,uint256)":"79f9260d","getPlatformStats()":"136d8883","getRoleAdmin(bytes32)":"248a9ca3","grantRole(bytes32,address)":"2f2ff15d","hasRole(bytes32,address)":"91d14854","minActionInterval()":"af8d18de","pause()":"8456cb59","paused()":"5c975abb","processCivicAction(address,uint8,bytes32,string)":"bad152bd","registerUser(address,bytes32,bytes)":"3c5e076b","registeredUsers(address)":"0e50cee5","renounceRole(bytes32,address)":"36568abe","revokeRole(bytes32,address)":"d547741f","setActionReward(uint8,uint256,bool)":"77fb6e51","supportsInterface(bytes4)":"01ffc9a7","totalCivicMinted()":"8336c0a4","totalRegisteredUsers()":"3c7afca5","unpause()":"3f4ba83a","updateActionInterval(uint256)":"4fd093fa","userLastActionTime(address)":"cf9a7d66","verifier()":"2b7ac3f3","voterRegistry()":"be60040e"},"id":2}