{"abi":[{"type":"constructor","inputs":[{"name":"admin","type":"address","internalType":"address"}],"stateMutability":"nonpayable"},{"type":"function","name":"DEFAULT_ADMIN_ROLE","inputs":[],"outputs":[{"name":"","type":"bytes32","internalType":"bytes32"}],"stateMutability":"view"},{"type":"function","name":"VERIFIER_ROLE","inputs":[],"outputs":[{"name":"","type":"bytes32","internalType":"bytes32"}],"stateMutability":"view"},{"type":"function","name":"getRoleAdmin","inputs":[{"name":"role","type":"bytes32","internalType":"bytes32"}],"outputs":[{"name":"","type":"bytes32","internalType":"bytes32"}],"stateMutability":"view"},{"type":"function","name":"grantRole","inputs":[{"name":"role","type":"bytes32","internalType":"bytes32"},{"name":"account","type":"address","internalType":"address"}],"outputs":[],"stateMutability":"nonpayable"},{"type":"function","name":"hasRole","inputs":[{"name":"role","type":"bytes32","internalType":"bytes32"},{"name":"account","type":"address","internalType":"address"}],"outputs":[{"name":"","type":"bool","internalType":"bool"}],"stateMutability":"view"},{"type":"function","name":"isVerifiedAction","inputs":[{"name":"","type":"bytes32","internalType":"bytes32"}],"outputs":[{"name":"","type":"bool","internalType":"bool"}],"stateMutability":"view"},{"type":"function","name":"markVerified","inputs":[{"name":"actionHash","type":"bytes32","internalType":"bytes32"}],"outputs":[],"stateMutability":"nonpayable"},{"type":"function","name":"renounceRole","inputs":[{"name":"role","type":"bytes32","internalType":"bytes32"},{"name":"account","type":"address","internalType":"address"}],"outputs":[],"stateMutability":"nonpayable"},{"type":"function","name":"revokeRole","inputs":[{"name":"role","type":"bytes32","internalType":"bytes32"},{"name":"account","type":"address","internalType":"address"}],"outputs":[],"stateMutability":"nonpayable"},{"type":"function","name":"supportsInterface","inputs":[{"name":"interfaceId","type":"bytes4","internalType":"bytes4"}],"outputs":[{"name":"","type":"bool","internalType":"bool"}],"stateMutability":"view"},{"type":"event","name":"ActionVerified","inputs":[{"name":"actionHash","type":"bytes32","indexed":true,"internalType":"bytes32"},{"name":"verifier","type":"address","indexed":true,"internalType":"address"}],"anonymous":false},{"type":"event","name":"RoleAdminChanged","inputs":[{"name":"role","type":"bytes32","indexed":true,"internalType":"bytes32"},{"name":"previousAdminRole","type":"bytes32","indexed":true,"internalType":"bytes32"},{"name":"newAdminRole","type":"bytes32","indexed":true,"internalType":"bytes32"}],"anonymous":false},{"type":"event","name":"RoleGranted","inputs":[{"name":"role","type":"bytes32","indexed":true,"internalType":"bytes32"},{"name":"account","type":"address","indexed":true,"internalType":"address"},{"name":"sender","type":"address","indexed":true,"internalType":"address"}],"anonymous":false},{"type":"event","name":"RoleRevoked","inputs":[{"name":"role","type":"bytes32","indexed":true,"internalType":"bytes32"},{"name":"account","type":"address","indexed":true,"internalType":"address"},{"name":"sender","type":"address","indexed":true,"internalType":"address"}],"anonymous":false}],"bytecode":{"object":"0x60803461012d57601f610bc338819003918201601f1916830192916001600160401b03841183851017610132578083926040958652833960209283918101031261012d57516001600160a01b0381169081900361012d57600091828052828152838320828452815260ff8484205416156100f7575b7f0ce23c3e399818cfee81a7ab0880f714e53d7672b08df0fa62f2843416e1ea0990818452838152848420838552815260ff8585205416156100bf575b8451610a5a90816101498239f35b8184528381528484209083855252838320600160ff19825416179055600080516020610ba3833981519152339380a4388080806100b1565b8280528281528383208284528152838320805460ff19166001179055338284600080516020610ba38339815191528180a4610074565b600080fd5b634e487b7160e01b600052604160045260246000fdfe608060408181526004918236101561001657600080fd5b600092833560e01c91826301ffc9a7146105c957508163109a060a146102d9578163248a9ca3146102af5781632f2ff15d1461021157816336568abe1461018957816391d148541461014f578163a217fddf14610134578163b678e1661461010357508063d547741f146100d05763e7705db61461009357600080fd5b346100cc57816003193601126100cc57602090517f0ce23c3e399818cfee81a7ab0880f714e53d7672b08df0fa62f2843416e1ea098152f35b5080fd5b50346100cc576001610100916100fb6100e83661061c565b9390928387528660205286200154610647565b61087a565b80f35b905034610130576020366003190112610130578160209360ff923581526001855220541690519015158152f35b8280fd5b5050346100cc57816003193601126100cc5751908152602090f35b5050346100cc5760ff816020936101653661061c565b9082528186528282206001600160a01b039091168252855220549151911615158152f35b839150346100cc5761019a3661061c565b91336001600160a01b038416036101b65750906101009161087a565b608490602086519162461bcd60e51b8352820152602f60248201527f416363657373436f6e74726f6c3a2063616e206f6e6c792072656e6f756e636560448201526e103937b632b9903337b91039b2b63360891b6064820152fd5b5050346100cc576102213661061c565b90918284528360205261023960018286200154610647565b82845260208481528185206001600160a01b039093168086529290528084205460ff1615610265578380f35b828452836020528084208285526020528320600160ff1982541617905533917f2f8788117e7eff1d82e926ec794901d17c78024a50270940304540a733656f0d8480a43880808380f35b90503461013057602036600319011261013057816020936001923581528085522001549051908152f35b91905034610130576020806003193601126105c5578235927f0ce23c3e399818cfee81a7ab0880f714e53d7672b08df0fa62f2843416e1ea09808652858352838620338752835260ff8487205416156103e7575083156103b7578385526001825260ff83862054166103835750600190838552528220600160ff1982541617905533907f7f9fdc3411127ddd237e8bdde152cdbd2bd8e1b153d00c1d0cfeb29a28f761618380a380f35b915162461bcd60e51b815291820152601060248201526f185b1c9958591e481d995c9a599a595960821b6044820152606490fd5b915162461bcd60e51b815291820152600c60248201526b0d2dcecc2d8d2c840d0c2e6d60a31b6044820152606490fd5b8390866103f333610915565b9183519061040082610826565b604282528682019260603685378251156105b2576030845382519060019182101561059f5790607860218501536041915b818311610534575050506104f357836104c3604888956104e5956104b49560449a995196879361048b8b86019b76020b1b1b2b9b9a1b7b73a3937b61d1030b1b1b7bab73a1604d1b8d528251928391603789019101610803565b8401917001034b99036b4b9b9b4b733903937b6329607d1b603784015251809386840190610803565b01036028810185520183610858565b5195869462461bcd60e51b865285015251809281602486015285850190610803565b601f01601f19168101030190fd5b606485878087519262461bcd60e51b845283015260248201527f537472696e67733a20686578206c656e67746820696e73756666696369656e746044820152fd5b909192600f8116601081101561058c576f181899199a1a9b1b9c1cb0b131b232b360811b901a61056485876108ee565b53881c92801561057957600019019190610431565b634e487b7160e01b825260118952602482fd5b634e487b7160e01b835260328a52602483fd5b634e487b7160e01b815260328852602490fd5b634e487b7160e01b815260328752602490fd5b8380fd5b849134610130576020366003190112610130573563ffffffff60e01b81168091036101305760209250637965db0b60e01b811490811561060b575b5015158152f35b6301ffc9a760e01b14905083610604565b604090600319011261064257600435906024356001600160a01b03811681036106425790565b600080fd5b60008181526020818152604092838320338452825260ff84842054161561066e5750505050565b61067733610915565b9084519061068482610826565b604282528382019460603687378251156107ef57603086538251906001918210156107ef5790607860218501536041915b8183116107815750505061073f578461071b60486104e593604497985198899161070c8984019876020b1b1b2b9b9a1b7b73a3937b61d1030b1b1b7bab73a1604d1b8a5261048b815180928d603789019101610803565b01036028810189520187610858565b5194859362461bcd60e51b8552600485015251809281602486015285850190610803565b60648386519062461bcd60e51b825280600483015260248201527f537472696e67733a20686578206c656e67746820696e73756666696369656e746044820152fd5b909192600f811660108110156107db576f181899199a1a9b1b9c1cb0b131b232b360811b901a6107b185876108ee565b5360041c9280156107c7576000190191906106b5565b634e487b7160e01b82526011600452602482fd5b634e487b7160e01b83526032600452602483fd5b634e487b7160e01b81526032600452602490fd5b60005b8381106108165750506000910152565b8181015183820152602001610806565b6080810190811067ffffffffffffffff82111761084257604052565b634e487b7160e01b600052604160045260246000fd5b90601f8019910116810190811067ffffffffffffffff82111761084257604052565b9060009180835282602052604083209160018060a01b03169182845260205260ff6040842054166108aa57505050565b80835282602052604083208284526020526040832060ff1981541690557ff6391f5c32d9c69d2a47ea670b442974b53935d1edc7fd64eb21e047a839171b339380a4565b9081518110156108ff570160200190565b634e487b7160e01b600052603260045260246000fd5b604051906060820182811067ffffffffffffffff82111761084257604052602a82526020820160403682378251156108ff576030905381516001908110156108ff57607860218401536029905b8082116109b65750506109725790565b606460405162461bcd60e51b815260206004820152602060248201527f537472696e67733a20686578206c656e67746820696e73756666696369656e746044820152fd5b9091600f81166010811015610a0f576f181899199a1a9b1b9c1cb0b131b232b360811b901a6109e584866108ee565b5360041c9180156109fa576000190190610962565b60246000634e487b7160e01b81526011600452fd5b60246000634e487b7160e01b81526032600452fdfea2646970667358221220af9b43859285232393b37b51c8fd8821aa1c2971034712e93667c08209bd943f64736f6c634300081300332f8788117e7eff1d82e926ec794901d17c78024a50270940304540a733656f0d","linkReferences":{}},"methodIdentifiers":{"DEFAULT_ADMIN_ROLE()":"a217fddf","VERIFIER_ROLE()":"e7705db6","getRoleAdmin(bytes32)":"248a9ca3","grantRole(bytes32,address)":"2f2ff15d","hasRole(bytes32,address)":"91d14854","isVerifiedAction(bytes32)":"b678e166","markVerified(bytes32)":"109a060a","renounceRole(bytes32,address)":"36568abe","revokeRole(bytes32,address)":"d547741f","supportsInterface(bytes4)":"01ffc9a7"},"id":0}