{"abi":[{"type":"constructor","inputs":[{"name":"admin","type":"address","internalType":"address"}],"stateMutability":"nonpayable"},{"type":"function","name":"DEFAULT_ADMIN_ROLE","inputs":[],"outputs":[{"name":"","type":"bytes32","internalType":"bytes32"}],"stateMutability":"view"},{"type":"function","name":"PARAM_SETTER_ROLE","inputs":[],"outputs":[{"name":"","type":"bytes32","internalType":"bytes32"}],"stateMutability":"view"},{"type":"function","name":"getRoleAdmin","inputs":[{"name":"role","type":"bytes32","internalType":"bytes32"}],"outputs":[{"name":"","type":"bytes32","internalType":"bytes32"}],"stateMutability":"view"},{"type":"function","name":"getUint","inputs":[{"name":"key","type":"bytes32","internalType":"bytes32"}],"outputs":[{"name":"","type":"uint256","internalType":"uint256"}],"stateMutability":"view"},{"type":"function","name":"grantRole","inputs":[{"name":"role","type":"bytes32","internalType":"bytes32"},{"name":"account","type":"address","internalType":"address"}],"outputs":[],"stateMutability":"nonpayable"},{"type":"function","name":"hasRole","inputs":[{"name":"role","type":"bytes32","internalType":"bytes32"},{"name":"account","type":"address","internalType":"address"}],"outputs":[{"name":"","type":"bool","internalType":"bool"}],"stateMutability":"view"},{"type":"function","name":"renounceRole","inputs":[{"name":"role","type":"bytes32","internalType":"bytes32"},{"name":"account","type":"address","internalType":"address"}],"outputs":[],"stateMutability":"nonpayable"},{"type":"function","name":"revokeRole","inputs":[{"name":"role","type":"bytes32","internalType":"bytes32"},{"name":"account","type":"address","internalType":"address"}],"outputs":[],"stateMutability":"nonpayable"},{"type":"function","name":"setUint","inputs":[{"name":"key","type":"bytes32","internalType":"bytes32"},{"name":"value","type":"uint256","internalType":"uint256"}],"outputs":[],"stateMutability":"nonpayable"},{"type":"function","name":"supportsInterface","inputs":[{"name":"interfaceId","type":"bytes4","internalType":"bytes4"}],"outputs":[{"name":"","type":"bool","internalType":"bool"}],"stateMutability":"view"},{"type":"event","name":"RoleAdminChanged","inputs":[{"name":"role","type":"bytes32","indexed":true,"internalType":"bytes32"},{"name":"previousAdminRole","type":"bytes32","indexed":true,"internalType":"bytes32"},{"name":"newAdminRole","type":"bytes32","indexed":true,"internalType":"bytes32"}],"anonymous":false},{"type":"event","name":"RoleGranted","inputs":[{"name":"role","type":"bytes32","indexed":true,"internalType":"bytes32"},{"name":"account","type":"address","indexed":true,"internalType":"address"},{"name":"sender","type":"address","indexed":true,"internalType":"address"}],"anonymous":false},{"type":"event","name":"RoleRevoked","inputs":[{"name":"role","type":"bytes32","indexed":true,"internalType":"bytes32"},{"name":"account","type":"address","indexed":true,"internalType":"address"},{"name":"sender","type":"address","indexed":true,"internalType":"address"}],"anonymous":false},{"type":"event","name":"UintParamSet","inputs":[{"name":"key","type":"bytes32","indexed":true,"internalType":"bytes32"},{"name":"value","type":"uint256","indexed":false,"internalType":"uint256"}],"anonymous":false}],"bytecode":{"object":"0x60803461012d57601f610b3738819003918201601f1916830192916001600160401b03841183851017610132578083926040958652833960209283918101031261012d57516001600160a01b0381169081900361012d57600091828052828152838320828452815260ff8484205416156100f7575b7f597b121aab77e221e6a68f35bfe5cd0100f93845c4f871f403c8b3592a44ea0390818452838152848420838552815260ff8585205416156100bf575b84516109ce90816101498239f35b8184528381528484209083855252838320600160ff19825416179055600080516020610b17833981519152339380a4388080806100b1565b8280528281528383208284528152838320805460ff19166001179055338284600080516020610b178339815191528180a4610074565b600080fd5b634e487b7160e01b600052604160045260246000fdfe60806040908082526004918236101561001757600080fd5b600091823560e01c90816301ffc9a71461053c57508063248a9ca3146105125780632f2ff15d1461047557806336568abe146103ee57806391b7cd58146103b457806391d148541461037b578063a217fddf14610361578063bd02d0f514610335578063d547741f146103025763e2a4853a1461009357600080fd5b346102fe57806003193601126102fe578235906024908135907f597b121aab77e221e6a68f35bfe5cd0100f93845c4f871f403c8b3592a44ea0395868652602093868552828720338852855260ff838820541615610125575050907fc36e934c33e10b43978c57418b13ebb85f1001d08b2cff197281e8719bbb57a3929184865260018352818187205551908152a280f35b8492878961013233610889565b83519161013e8361079a565b604283528783019360603686378351156102ec57603085538351906001918210156102da5790607860218601536041915b8183116102715750505061023157836102026048896102239660449a99966101f36101ca9776020b1b1b2b9b9a1b7b73a3937b61d1030b1b1b7bab73a1604d1b9b5198858a9687019d8e528251928391603789019101610777565b8401917001034b99036b4b9b9b4b733903937b6329607d1b603784015251809386840190610777565b010360288101855201836107cc565b5196879562461bcd60e51b8752860152519283809286015285850190610777565b601f01601f19168101030190fd5b60648688878188519362461bcd60e51b85528401528201527f537472696e67733a20686578206c656e67746820696e73756666696369656e746044820152fd5b909192600f811660108110156102c8576f181899199a1a9b1b9c1cb0b131b232b360811b901a6102a18588610862565b53891c9280156102b65760001901919061016f565b634e487b7160e01b825260118a528882fd5b634e487b7160e01b835260328b528983fd5b634e487b7160e01b8152603289528790fd5b634e487b7160e01b8152603288528690fd5b5080fd5b50346102fe5760016103329161032d61031a36610590565b93909283875286602052862001546105bb565b6107ee565b80f35b50823461035d57602036600319011261035d5760209282913581526001845220549051908152f35b8280fd5b50346102fe57816003193601126102fe5751908152602090f35b50346102fe5760ff8160209361039036610590565b9082528186528282206001600160a01b039091168252855220549151911615158152f35b50346102fe57816003193601126102fe57602090517f597b121aab77e221e6a68f35bfe5cd0100f93845c4f871f403c8b3592a44ea038152f35b5091346102fe576103fe36610590565b91336001600160a01b0384160361041a575090610332916107ee565b608490602086519162461bcd60e51b8352820152602f60248201527f416363657373436f6e74726f6c3a2063616e206f6e6c792072656e6f756e636560448201526e103937b632b9903337b91039b2b63360891b6064820152fd5b50346102fe5761048436610590565b90918284528360205261049c600182862001546105bb565b82845260208481528185206001600160a01b039093168086529290528084205460ff16156104c8578380f35b828452836020528084208285526020528320600160ff1982541617905533917f2f8788117e7eff1d82e926ec794901d17c78024a50270940304540a733656f0d8480a48180808380f35b50823461035d57602036600319011261035d57816020936001923581528085522001549051908152f35b8390853461035d57602036600319011261035d573563ffffffff60e01b811680910361035d5760209250637965db0b60e01b811490811561057f575b5015158152f35b6301ffc9a760e01b14905083610578565b60409060031901126105b657600435906024356001600160a01b03811681036105b65790565b600080fd5b60008181526020818152604092838320338452825260ff8484205416156105e25750505050565b6105eb33610889565b908451906105f88261079a565b6042825283820194606036873782511561076357603086538251906001918210156107635790607860218501536041915b8183116106f5575050506106b3578461068f60486102239360449798519889916106808984019876020b1b1b2b9b9a1b7b73a3937b61d1030b1b1b7bab73a1604d1b8a526101ca815180928d603789019101610777565b010360288101895201876107cc565b5194859362461bcd60e51b8552600485015251809281602486015285850190610777565b60648386519062461bcd60e51b825280600483015260248201527f537472696e67733a20686578206c656e67746820696e73756666696369656e746044820152fd5b909192600f8116601081101561074f576f181899199a1a9b1b9c1cb0b131b232b360811b901a6107258587610862565b5360041c92801561073b57600019019190610629565b634e487b7160e01b82526011600452602482fd5b634e487b7160e01b83526032600452602483fd5b634e487b7160e01b81526032600452602490fd5b60005b83811061078a5750506000910152565b818101518382015260200161077a565b6080810190811067ffffffffffffffff8211176107b657604052565b634e487b7160e01b600052604160045260246000fd5b90601f8019910116810190811067ffffffffffffffff8211176107b657604052565b9060009180835282602052604083209160018060a01b03169182845260205260ff60408420541661081e57505050565b80835282602052604083208284526020526040832060ff1981541690557ff6391f5c32d9c69d2a47ea670b442974b53935d1edc7fd64eb21e047a839171b339380a4565b908151811015610873570160200190565b634e487b7160e01b600052603260045260246000fd5b604051906060820182811067ffffffffffffffff8211176107b657604052602a82526020820160403682378251156108735760309053815160019081101561087357607860218401536029905b80821161092a5750506108e65790565b606460405162461bcd60e51b815260206004820152602060248201527f537472696e67733a20686578206c656e67746820696e73756666696369656e746044820152fd5b9091600f81166010811015610983576f181899199a1a9b1b9c1cb0b131b232b360811b901a6109598486610862565b5360041c91801561096e5760001901906108d6565b60246000634e487b7160e01b81526011600452fd5b60246000634e487b7160e01b81526032600452fdfea26469706673582212201151a0d75844b11263c4b621f66701f6e3a565fb4d9b0e64ce5537403162984864736f6c634300081300332f8788117e7eff1d82e926ec794901d17c78024a50270940304540a733656f0d","linkReferences":{}},"methodIdentifiers":{"DEFAULT_ADMIN_ROLE()":"a217fddf","PARAM_SETTER_ROLE()":"91b7cd58","getRoleAdmin(bytes32)":"248a9ca3","getUint(bytes32)":"bd02d0f5","grantRole(bytes32,address)":"2f2ff15d","hasRole(bytes32,address)":"91d14854","renounceRole(bytes32,address)":"36568abe","revokeRole(bytes32,address)":"d547741f","setUint(bytes32,uint256)":"e2a4853a","supportsInterface(bytes4)":"01ffc9a7"},"id":1}