{"abi":[{"type":"constructor","inputs":[{"name":"admin","type":"address","internalType":"address"},{"name":"initialThreshold","type":"uint256","internalType":"uint256"}],"stateMutability":"nonpayable"},{"type":"function","name":"ACTION_TYPEHASH","inputs":[],"outputs":[{"name":"","type":"bytes32","internalType":"bytes32"}],"stateMutability":"view"},{"type":"function","name":"DEFAULT_ADMIN_ROLE","inputs":[],"outputs":[{"name":"","type":"bytes32","internalType":"bytes32"}],"stateMutability":"view"},{"type":"function","name":"DOMAIN_SEPARATOR","inputs":[],"outputs":[{"name":"","type":"bytes32","internalType":"bytes32"}],"stateMutability":"view"},{"type":"function","name":"DOMAIN_TYPEHASH","inputs":[],"outputs":[{"name":"","type":"bytes32","internalType":"bytes32"}],"stateMutability":"view"},{"type":"function","name":"SIGNER_ROLE","inputs":[],"outputs":[{"name":"","type":"bytes32","internalType":"bytes32"}],"stateMutability":"view"},{"type":"function","name":"getRoleAdmin","inputs":[{"name":"role","type":"bytes32","internalType":"bytes32"}],"outputs":[{"name":"","type":"bytes32","internalType":"bytes32"}],"stateMutability":"view"},{"type":"function","name":"grantRole","inputs":[{"name":"role","type":"bytes32","internalType":"bytes32"},{"name":"account","type":"address","internalType":"address"}],"outputs":[],"stateMutability":"nonpayable"},{"type":"function","name":"hasRole","inputs":[{"name":"role","type":"bytes32","internalType":"bytes32"},{"name":"account","type":"address","internalType":"address"}],"outputs":[{"name":"","type":"bool","internalType":"bool"}],"stateMutability":"view"},{"type":"function","name":"isVerifiedAction","inputs":[{"name":"","type":"bytes32","internalType":"bytes32"}],"outputs":[{"name":"","type":"bool","internalType":"bool"}],"stateMutability":"view"},{"type":"function","name":"renounceRole","inputs":[{"name":"role","type":"bytes32","internalType":"bytes32"},{"name":"account","type":"address","internalType":"address"}],"outputs":[],"stateMutability":"nonpayable"},{"type":"function","name":"revokeRole","inputs":[{"name":"role","type":"bytes32","internalType":"bytes32"},{"name":"account","type":"address","internalType":"address"}],"outputs":[],"stateMutability":"nonpayable"},{"type":"function","name":"setSignerThreshold","inputs":[{"name":"newThreshold","type":"uint256","internalType":"uint256"}],"outputs":[],"stateMutability":"nonpayable"},{"type":"function","name":"signerThreshold","inputs":[],"outputs":[{"name":"","type":"uint256","internalType":"uint256"}],"stateMutability":"view"},{"type":"function","name":"supportsInterface","inputs":[{"name":"interfaceId","type":"bytes4","internalType":"bytes4"}],"outputs":[{"name":"","type":"bool","internalType":"bool"}],"stateMutability":"view"},{"type":"function","name":"verifyAndMark","inputs":[{"name":"actionHash","type":"bytes32","internalType":"bytes32"},{"name":"signatures","type":"bytes[]","internalType":"bytes[]"}],"outputs":[],"stateMutability":"nonpayable"},{"type":"event","name":"ActionVerified","inputs":[{"name":"actionHash","type":"bytes32","indexed":true,"internalType":"bytes32"},{"name":"signerCount","type":"uint256","indexed":false,"internalType":"uint256"}],"anonymous":false},{"type":"event","name":"RoleAdminChanged","inputs":[{"name":"role","type":"bytes32","indexed":true,"internalType":"bytes32"},{"name":"previousAdminRole","type":"bytes32","indexed":true,"internalType":"bytes32"},{"name":"newAdminRole","type":"bytes32","indexed":true,"internalType":"bytes32"}],"anonymous":false},{"type":"event","name":"RoleGranted","inputs":[{"name":"role","type":"bytes32","indexed":true,"internalType":"bytes32"},{"name":"account","type":"address","indexed":true,"internalType":"address"},{"name":"sender","type":"address","indexed":true,"internalType":"address"}],"anonymous":false},{"type":"event","name":"RoleRevoked","inputs":[{"name":"role","type":"bytes32","indexed":true,"internalType":"bytes32"},{"name":"account","type":"address","indexed":true,"internalType":"address"},{"name":"sender","type":"address","indexed":true,"internalType":"address"}],"anonymous":false},{"type":"event","name":"ThresholdUpdated","inputs":[{"name":"newThreshold","type":"uint256","indexed":false,"internalType":"uint256"}],"anonymous":false}],"bytecode":{"object":"0x60a0346200025457620013ea906001600160401b03601f38849003908101601f191683019082821184831017620002595780849160409687948552833981010312620002545781516001600160a01b03811690819003620002545760208093015192600091828052828252858320818452825260ff8684205416156200021c575b7fe2f4eaae4a9751e85a3e4a7b9587827a877f29914755229b07a7b2da98285f7090818452838352868420818552835260ff878520541615620001e3575b50506014818651620000d0816200026f565b828152017f564f5445522d416374696f6e5665726966696572000000000000000000000000815220600182875162000108816200026f565b82815201603160f81b81522092865193838501927f8b73c3c69bb8fe3d512ecc4cf759cc79239f7b179b0ffacaa9a75d522b39400f84528886015260608501524660808501523060a085015260a0845260c084019484861090861117620001cf57508386528251902060805283156200019f575050506001555161113e90816200028c82396080518181816102b901526107390152f35b62461bcd60e51b835260c4820152600b60e48201526a07468726573686f6c643d360ac1b61010490910152606490fd5b634e487b7160e01b81526041600452602490fd5b8184528383528684208185528352868420805460ff191660011790553391600080516020620013ca8339815191528580a43880620000be565b8280528282528583208184528252858320805460ff19166001179055338184600080516020620013ca8339815191528180a462000080565b600080fd5b634e487b7160e01b600052604160045260246000fd5b604081019081106001600160401b03821117620002595760405256fe608080604052600436101561001357600080fd5b60003560e01c90816301ffc9a714610ac25750806311c075691461064757806320606b701461060c578063248a9ca3146105dd578063251b8192146103815780632f2ff15d146102dc5780633644e515146102a157806336568abe1461021d5780635a35b84a146101e257806391d14854146101a2578063a1ebf35d14610167578063a217fddf1461014b578063a4a4f3901461012d578063b678e166146100fc5763d547741f146100c457600080fd5b346100f7576100f56100d536610b15565b908060005260006020526100f0600160406000200154610bb4565b610d93565b005b600080fd5b346100f75760203660031901126100f7576004356000526002602052602060ff604060002054166040519015158152f35b346100f75760003660031901126100f7576020600154604051908152f35b346100f75760003660031901126100f757602060405160008152f35b346100f75760003660031901126100f75760206040517fe2f4eaae4a9751e85a3e4a7b9587827a877f29914755229b07a7b2da98285f708152f35b346100f7576101b036610b15565b90600052600060205260406000209060018060a01b0316600052602052602060ff604060002054166040519015158152f35b346100f75760003660031901126100f75760206040517f6d8cbd78112f9cf160ddb76428bab871a3276add2d81f851520300fe210ad64e8152f35b346100f75761022b36610b15565b336001600160a01b03821603610244576100f591610d93565b60405162461bcd60e51b815260206004820152602f60248201527f416363657373436f6e74726f6c3a2063616e206f6e6c792072656e6f756e636560448201526e103937b632b9903337b91039b2b63360891b6064820152608490fd5b346100f75760003660031901126100f75760206040517f00000000000000000000000000000000000000000000000000000000000000008152f35b346100f7576102ea36610b15565b816000526000602052610304600160406000200154610bb4565b81600052600060205260406000209060018060a01b0316908160005260205260ff604060002054161561033357005b8160005260006020526040600020816000526020526040600020600160ff1982541617905533917f2f8788117e7eff1d82e926ec794901d17c78024a50270940304540a733656f0d600080a4005b346100f7576020806003193601126100f757600435906000805260008152604060002033600052815260ff604060002054161561041f5781156103ed57817fadfa8ecb21b6962ebcd0adbd9ab985b7b4c5b5eb3b0dead683171565c7bfe17192600155604051908152a1005b6064906040519062461bcd60e51b82526004820152600b60248201526a07468726573686f6c643d360ac1b6044820152fd5b61042833610e18565b9060009160405161043881610b3b565b604281528281019360603686378151156105c7576030855381516001908110156105c757607860218401536041905b80821161056d57505061052a57906104f36048604494936040519687916104e48784019676020b1b1b2b9b9a1b7b73a3937b61d1030b1b1b7bab73a1604d1b88526104bb815180928b603789019101610d70565b8401917001034b99036b4b9b9b4b733903937b6329607d1b603784015251809386840190610d70565b01036028810187520185610b57565b61051c60405194859362461bcd60e51b8552600485015251809281602486015285850190610d70565b601f01601f19168101030190fd5b6064836040519062461bcd60e51b825280600483015260248201527f537472696e67733a20686578206c656e67746820696e73756666696369656e746044820152fd5b9091600f811660108110156105c7576f181899199a1a9b1b9c1cb0b131b232b360811b901a61059c8486610e07565b5360041c9180156105b1576000190190610467565b634e487b7160e01b600052601160045260246000fd5b634e487b7160e01b600052603260045260246000fd5b346100f75760203660031901126100f75760043560005260006020526020600160406000200154604051908152f35b346100f75760003660031901126100f75760206040517f8b73c3c69bb8fe3d512ecc4cf759cc79239f7b179b0ffacaa9a75d522b39400f8152f35b346100f75760403660031901126100f75767ffffffffffffffff602435116100f7573660236024350112156100f75767ffffffffffffffff60243560040135116100f75736602480356004013560051b81350101116100f75760043515610a8e57600435600052600260205260ff60406000205416610a5657600154806024356004013510610a1d57604051602081017f6d8cbd78112f9cf160ddb76428bab871a3276add2d81f851520300fe210ad64e8152600435604083015260408252606082019082821067ffffffffffffffff831117610a075760e090826040528351902092608081019361190160f01b85527f0000000000000000000000000000000000000000000000000000000000000000608283015260a2820152604283520181811067ffffffffffffffff821117610a07576040525190209061079060243560040135610b79565b9161079e6040519384610b57565b60046024350135808452601f19906107b590610b79565b0136602085013760009260005b60243560040135811061085a5750505081106108235760043560005260026020526040600020600160ff198254161790556040519081527f4aa29820665661c806cc4fe4e7cda215a19e6c11136cb371eab04915ee66e5d7602060043592a2005b60405162461bcd60e51b815260206004820152600f60248201526e18995b1bddc81d1a1c995cda1bdb19608a1b6044820152606490fd5b60421960243536030160248260051b813501013512156100f75760248160051b8135010135602435019460248601359567ffffffffffffffff87116100f757604481019087360382136100f757604051906108bf601f8a01601f191660200183610b57565b88825260448936920101116100f75760006020896108f19a6108e995838601378301015285611041565b969096610f27565b6001600160a01b03861660009081527f059f08e7d7ba1c82eddc57afae67f80df851baf38a099607a779825038c3ce5b602052604090205460ff16156109cc5760005b8181106109695750610964919061095e61094d82610b91565b976001600160a01b03169185610ba0565b52610b91565b6107c2565b6001600160a01b038781169061097f8387610ba0565b5116146109945761098f90610b91565b610934565b60405162461bcd60e51b815260206004820152601060248201526f323ab83634b1b0ba329039b4b3b732b960811b6044820152606490fd5b60405162461bcd60e51b81526020600482015260136024820152723ab730baba3437b934bd32b21039b4b3b732b960691b6044820152606490fd5b634e487b7160e01b600052604160045260246000fd5b60405162461bcd60e51b8152602060048201526011602482015270696e73756666696369656e74207369677360781b6044820152606490fd5b60405162461bcd60e51b815260206004820152601060248201526f185b1c9958591e481d995c9a599a595960821b6044820152606490fd5b60405162461bcd60e51b815260206004820152600c60248201526b0d2dcecc2d8d2c840d0c2e6d60a31b6044820152606490fd5b346100f75760203660031901126100f7576004359063ffffffff60e01b82168092036100f757602091637965db0b60e01b8114908115610b04575b5015158152f35b6301ffc9a760e01b14905083610afd565b60409060031901126100f757600435906024356001600160a01b03811681036100f75790565b6080810190811067ffffffffffffffff821117610a0757604052565b90601f8019910116810190811067ffffffffffffffff821117610a0757604052565b67ffffffffffffffff8111610a075760051b60200190565b60001981146105b15760010190565b80518210156105c75760209160051b010190565b60008181526020818152604092838320338452825260ff848420541615610bdb5750505050565b610be433610e18565b90845190610bf182610b3b565b60428252838201946060368737825115610d5c5760308653825190600191821015610d5c5790607860218501536041915b818311610cee57505050610cac5784610c88604861051c936044979851988991610c798984019876020b1b1b2b9b9a1b7b73a3937b61d1030b1b1b7bab73a1604d1b8a526104bb815180928d603789019101610d70565b01036028810189520187610b57565b5194859362461bcd60e51b8552600485015251809281602486015285850190610d70565b60648386519062461bcd60e51b825280600483015260248201527f537472696e67733a20686578206c656e67746820696e73756666696369656e746044820152fd5b909192600f81166010811015610d48576f181899199a1a9b1b9c1cb0b131b232b360811b901a610d1e8587610e07565b5360041c928015610d3457600019019190610c22565b634e487b7160e01b82526011600452602482fd5b634e487b7160e01b83526032600452602483fd5b634e487b7160e01b81526032600452602490fd5b60005b838110610d835750506000910152565b8181015183820152602001610d73565b9060009180835282602052604083209160018060a01b03169182845260205260ff604084205416610dc357505050565b80835282602052604083208284526020526040832060ff1981541690557ff6391f5c32d9c69d2a47ea670b442974b53935d1edc7fd64eb21e047a839171b339380a4565b9081518110156105c7570160200190565b604051906060820182811067ffffffffffffffff821117610a0757604052602a82526020820160403682378251156105c7576030905381516001908110156105c757607860218401536029905b808211610eb9575050610e755790565b606460405162461bcd60e51b815260206004820152602060248201527f537472696e67733a20686578206c656e67746820696e73756666696369656e746044820152fd5b9091600f81166010811015610f12576f181899199a1a9b1b9c1cb0b131b232b360811b901a610ee88486610e07565b5360041c918015610efd576000190190610e65565b60246000634e487b7160e01b81526011600452fd5b60246000634e487b7160e01b81526032600452fd5b600581101561102b5780610f385750565b60018103610f855760405162461bcd60e51b815260206004820152601860248201527f45434453413a20696e76616c6964207369676e617475726500000000000000006044820152606490fd5b60028103610fd25760405162461bcd60e51b815260206004820152601f60248201527f45434453413a20696e76616c6964207369676e6174757265206c656e677468006044820152606490fd5b600314610fdb57565b60405162461bcd60e51b815260206004820152602260248201527f45434453413a20696e76616c6964207369676e6174757265202773272076616c604482015261756560f01b6064820152608490fd5b634e487b7160e01b600052602160045260246000fd5b90604181511460001461106f5761106b916020820151906060604084015193015160001a90611079565b9091565b5050600090600290565b9291907f7fffffffffffffffffffffffffffffff5d576e7357a4501ddfe92f46681b20a083116110fc5791608094939160ff602094604051948552168484015260408301526060820152600093849182805260015afa156110ef5781516001600160a01b038116156110e9579190565b50600190565b50604051903d90823e3d90fd5b5050505060009060039056fea2646970667358221220a6908a571e443948b5528b082ba9657cdffee0cc781eca76bb3a9e1ea517e63e64736f6c634300081300332f8788117e7eff1d82e926ec794901d17c78024a50270940304540a733656f0d","linkReferences":{}},"methodIdentifiers":{"ACTION_TYPEHASH()":"5a35b84a","DEFAULT_ADMIN_ROLE()":"a217fddf","DOMAIN_SEPARATOR()":"3644e515","DOMAIN_TYPEHASH()":"20606b70","SIGNER_ROLE()":"a1ebf35d","getRoleAdmin(bytes32)":"248a9ca3","grantRole(bytes32,address)":"2f2ff15d","hasRole(bytes32,address)":"91d14854","isVerifiedAction(bytes32)":"b678e166","renounceRole(bytes32,address)":"36568abe","revokeRole(bytes32,address)":"d547741f","setSignerThreshold(uint256)":"251b8192","signerThreshold()":"a4a4f390","supportsInterface(bytes4)":"01ffc9a7","verifyAndMark(bytes32,bytes[])":"11c07569"},"id":0}