{"abi":[{"type":"constructor","inputs":[{"name":"admin","type":"address","internalType":"address"}],"stateMutability":"nonpayable"},{"type":"function","name":"DEFAULT_ADMIN_ROLE","inputs":[],"outputs":[{"name":"","type":"bytes32","internalType":"bytes32"}],"stateMutability":"view"},{"type":"function","name":"SPENDER_ROLE","inputs":[],"outputs":[{"name":"","type":"bytes32","internalType":"bytes32"}],"stateMutability":"view"},{"type":"function","name":"balanceOf","inputs":[{"name":"","type":"address","internalType":"address"}],"outputs":[{"name":"","type":"uint256","internalType":"uint256"}],"stateMutability":"view"},{"type":"function","name":"consume","inputs":[{"name":"payer","type":"address","internalType":"address"},{"name":"amount","type":"uint256","internalType":"uint256"}],"outputs":[],"stateMutability":"nonpayable"},{"type":"function","name":"fund","inputs":[{"name":"payer","type":"address","internalType":"address"},{"name":"amount","type":"uint256","internalType":"uint256"}],"outputs":[],"stateMutability":"nonpayable"},{"type":"function","name":"getRoleAdmin","inputs":[{"name":"role","type":"bytes32","internalType":"bytes32"}],"outputs":[{"name":"","type":"bytes32","internalType":"bytes32"}],"stateMutability":"view"},{"type":"function","name":"grantRole","inputs":[{"name":"role","type":"bytes32","internalType":"bytes32"},{"name":"account","type":"address","internalType":"address"}],"outputs":[],"stateMutability":"nonpayable"},{"type":"function","name":"hasRole","inputs":[{"name":"role","type":"bytes32","internalType":"bytes32"},{"name":"account","type":"address","internalType":"address"}],"outputs":[{"name":"","type":"bool","internalType":"bool"}],"stateMutability":"view"},{"type":"function","name":"renounceRole","inputs":[{"name":"role","type":"bytes32","internalType":"bytes32"},{"name":"account","type":"address","internalType":"address"}],"outputs":[],"stateMutability":"nonpayable"},{"type":"function","name":"revokeRole","inputs":[{"name":"role","type":"bytes32","internalType":"bytes32"},{"name":"account","type":"address","internalType":"address"}],"outputs":[],"stateMutability":"nonpayable"},{"type":"function","name":"supportsInterface","inputs":[{"name":"interfaceId","type":"bytes4","internalType":"bytes4"}],"outputs":[{"name":"","type":"bool","internalType":"bool"}],"stateMutability":"view"},{"type":"event","name":"Consumed","inputs":[{"name":"payer","type":"address","indexed":true,"internalType":"address"},{"name":"amount","type":"uint256","indexed":false,"internalType":"uint256"},{"name":"newBalance","type":"uint256","indexed":false,"internalType":"uint256"}],"anonymous":false},{"type":"event","name":"Funded","inputs":[{"name":"payer","type":"address","indexed":true,"internalType":"address"},{"name":"amount","type":"uint256","indexed":false,"internalType":"uint256"},{"name":"newBalance","type":"uint256","indexed":false,"internalType":"uint256"}],"anonymous":false},{"type":"event","name":"RoleAdminChanged","inputs":[{"name":"role","type":"bytes32","indexed":true,"internalType":"bytes32"},{"name":"previousAdminRole","type":"bytes32","indexed":true,"internalType":"bytes32"},{"name":"newAdminRole","type":"bytes32","indexed":true,"internalType":"bytes32"}],"anonymous":false},{"type":"event","name":"RoleGranted","inputs":[{"name":"role","type":"bytes32","indexed":true,"internalType":"bytes32"},{"name":"account","type":"address","indexed":true,"internalType":"address"},{"name":"sender","type":"address","indexed":true,"internalType":"address"}],"anonymous":false},{"type":"event","name":"RoleRevoked","inputs":[{"name":"role","type":"bytes32","indexed":true,"internalType":"bytes32"},{"name":"account","type":"address","indexed":true,"internalType":"address"},{"name":"sender","type":"address","indexed":true,"internalType":"address"}],"anonymous":false}],"bytecode":{"object":"0x6080346100ce57601f610dc238819003918201601f191683019291906001600160401b038411838510176100d35781602092849260409687528339810103126100ce57516001600160a01b038116908190036100ce576000908180528160205282822081835260205260ff838320541615610083575b8251610cd890816100ea8239f35b81805281602052828220818352602052828220600160ff1982541617905533917f2f8788117e7eff1d82e926ec794901d17c78024a50270940304540a733656f0d8180a43880610075565b600080fd5b634e487b7160e01b600052604160045260246000fdfe608060408181526004908136101561001657600080fd5b600092833560e01c90816301ffc9a7146107c757508063224b5c72146105bb578063248a9ca3146105915780632f2ff15d146104e857806336568abe1461045657806370a082311461041e57806372c16a24146103e35780637b1837de1461014157806391d14854146100fb578063a217fddf146100dc5763d547741f1461009d57600080fd5b346100d857806003193601126100d8576100d591356100d060016100bf610836565b9383875286602052862001546108c5565b610af8565b80f35b8280fd5b8382346100f757816003193601126100f75751908152602090f35b5080fd5b5090346100d857816003193601126100d8578160209360ff9261011c610836565b903582528186528282206001600160a01b039091168252855220549151911615158152f35b509190346100f757826003193601126100f75761015c61081b565b92602493843590848052602090858252838620338752825260ff848720541615610208576001600160a01b03169361019585151561084c565b6101a0831515610888565b848652600182528386208054918483018093116101f657507fcd909ec339185c4598a4096e174308fbdf136d117f230960f873a2f2e81f63af95969750558486526001815282862054908351928352820152a280f35b634e487b7160e01b8852601190528787fd5b508386848761021633610b93565b8251908261022383610aa4565b604283528783019360603686378351156103d157603085538351906001918210156103bf5790607860218601536041915b8183116103565750505061031657836102e76048896103089660449a99966102d86102af9776020b1b1b2b9b9a1b7b73a3937b61d1030b1b1b7bab73a1604d1b9b5198858a9687019d8e528251928391603789019101610a81565b8401917001034b99036b4b9b9b4b733903937b6329607d1b603784015251809386840190610a81565b01036028810185520183610ad6565b5196879562461bcd60e51b8752860152519283809286015285850190610a81565b601f01601f19168101030190fd5b60648688878188519362461bcd60e51b85528401528201527f537472696e67733a20686578206c656e67746820696e73756666696369656e746044820152fd5b909192600f811660108110156103ad576f181899199a1a9b1b9c1cb0b131b232b360811b901a6103868588610b6c565b53891c92801561039b57600019019190610254565b634e487b7160e01b825260118a528882fd5b634e487b7160e01b835260328b528983fd5b634e487b7160e01b8152603289528790fd5b634e487b7160e01b8152603288528690fd5b8382346100f757816003193601126100f757602090517f7434c6f201a551bfd17336985361933e0c4935b520dac8a49d937b325f7d5c0a8152f35b8382346100f75760203660031901126100f75760209181906001600160a01b0361044661081b565b1681526001845220549051908152f35b509190346100f757826003193601126100f757610471610836565b90336001600160a01b0383160361048d57906100d59135610af8565b608490602085519162461bcd60e51b8352820152602f60248201527f416363657373436f6e74726f6c3a2063616e206f6e6c792072656e6f756e636560448201526e103937b632b9903337b91039b2b63360891b6064820152fd5b5090346100d857816003193601126100d8573590610504610836565b908284528360205261051b600182862001546108c5565b82845260208481528185206001600160a01b039093168086529290528084205460ff1615610547578380f35b828452836020528084208285526020528320600160ff1982541617905533917f2f8788117e7eff1d82e926ec794901d17c78024a50270940304540a733656f0d8480a43880808380f35b5090346100d85760203660031901126100d857816020936001923581528085522001549051908152f35b509190346100f757826003193601126100f7576105d661081b565b926024938435907f7434c6f201a551bfd17336985361933e0c4935b520dac8a49d937b325f7d5c0a90818652602091868352848720338852835260ff8588205416156106db57506001600160a01b03169361063285151561084c565b61063d831515610888565b848652600182528284872054106106a457848652600182528386208054918483039283116101f657507f1eed8a711368c40dda6427683883619012c34cf436e11e0d773b0d05169ccb8295969750558486526001815282862054908351928352820152a280f35b60148760649386519362461bcd60e51b855284015282015273494e53554646494349454e545f4352454449545360601b6044820152fd5b8588868986946106ea33610b93565b8351916106f683610aa4565b604283528783019360603686378351156103d157603085538351906001918210156103bf5790607860218601536041915b8183116107825750505061031657836102e76048896103089660449a99966102d86102af9776020b1b1b2b9b9a1b7b73a3937b61d1030b1b1b7bab73a1604d1b9b5198858a9687019d8e528251928391603789019101610a81565b909192600f811660108110156103ad576f181899199a1a9b1b9c1cb0b131b232b360811b901a6107b28588610b6c565b53891c92801561039b57600019019190610727565b849084346100d85760203660031901126100d8573563ffffffff60e01b81168091036100d85760209250637965db0b60e01b811490811561080a575b5015158152f35b6301ffc9a760e01b14905083610803565b600435906001600160a01b038216820361083157565b600080fd5b602435906001600160a01b038216820361083157565b1561085357565b60405162461bcd60e51b815260206004820152600d60248201526c24a72b20a624a22fa820aca2a960991b6044820152606490fd5b1561088f57565b60405162461bcd60e51b815260206004820152600e60248201526d1253959053125117d05353d5539560921b6044820152606490fd5b60008181526020818152604092838320338452825260ff8484205416156108ec5750505050565b6108f533610b93565b9084519061090282610aa4565b60428252838201946060368737825115610a6d5760308653825190600191821015610a6d5790607860218501536041915b8183116109ff575050506109bd5784610999604861030893604497985198899161098a8984019876020b1b1b2b9b9a1b7b73a3937b61d1030b1b1b7bab73a1604d1b8a526102af815180928d603789019101610a81565b01036028810189520187610ad6565b5194859362461bcd60e51b8552600485015251809281602486015285850190610a81565b60648386519062461bcd60e51b825280600483015260248201527f537472696e67733a20686578206c656e67746820696e73756666696369656e746044820152fd5b909192600f81166010811015610a59576f181899199a1a9b1b9c1cb0b131b232b360811b901a610a2f8587610b6c565b5360041c928015610a4557600019019190610933565b634e487b7160e01b82526011600452602482fd5b634e487b7160e01b83526032600452602483fd5b634e487b7160e01b81526032600452602490fd5b60005b838110610a945750506000910152565b8181015183820152602001610a84565b6080810190811067ffffffffffffffff821117610ac057604052565b634e487b7160e01b600052604160045260246000fd5b90601f8019910116810190811067ffffffffffffffff821117610ac057604052565b9060009180835282602052604083209160018060a01b03169182845260205260ff604084205416610b2857505050565b80835282602052604083208284526020526040832060ff1981541690557ff6391f5c32d9c69d2a47ea670b442974b53935d1edc7fd64eb21e047a839171b339380a4565b908151811015610b7d570160200190565b634e487b7160e01b600052603260045260246000fd5b604051906060820182811067ffffffffffffffff821117610ac057604052602a8252602082016040368237825115610b7d57603090538151600190811015610b7d57607860218401536029905b808211610c34575050610bf05790565b606460405162461bcd60e51b815260206004820152602060248201527f537472696e67733a20686578206c656e67746820696e73756666696369656e746044820152fd5b9091600f81166010811015610c8d576f181899199a1a9b1b9c1cb0b131b232b360811b901a610c638486610b6c565b5360041c918015610c78576000190190610be0565b60246000634e487b7160e01b81526011600452fd5b60246000634e487b7160e01b81526032600452fdfea26469706673582212203381e43903b1b60f3d610df8eccb31dab7e74f682d0de0191fe11d42f1cd383e64736f6c63430008130033","linkReferences":{}},"methodIdentifiers":{"DEFAULT_ADMIN_ROLE()":"a217fddf","SPENDER_ROLE()":"72c16a24","balanceOf(address)":"70a08231","consume(address,uint256)":"224b5c72","fund(address,uint256)":"7b1837de","getRoleAdmin(bytes32)":"248a9ca3","grantRole(bytes32,address)":"2f2ff15d","hasRole(bytes32,address)":"91d14854","renounceRole(bytes32,address)":"36568abe","revokeRole(bytes32,address)":"d547741f","supportsInterface(bytes4)":"01ffc9a7"},"id":3}