{"abi":[{"type":"constructor","inputs":[{"name":"_selfProtocol","type":"address","internalType":"address"}],"stateMutability":"nonpayable"},{"type":"function","name":"ADMIN_ROLE","inputs":[],"outputs":[{"name":"","type":"bytes32","internalType":"bytes32"}],"stateMutability":"view"},{"type":"function","name":"DEFAULT_ADMIN_ROLE","inputs":[],"outputs":[{"name":"","type":"bytes32","internalType":"bytes32"}],"stateMutability":"view"},{"type":"function","name":"VERIFIER_ROLE","inputs":[],"outputs":[{"name":"","type":"bytes32","internalType":"bytes32"}],"stateMutability":"view"},{"type":"function","name":"actionHashUsed","inputs":[{"name":"","type":"bytes32","internalType":"bytes32"}],"outputs":[{"name":"","type":"bool","internalType":"bool"}],"stateMutability":"view"},{"type":"function","name":"citizenProfiles","inputs":[{"name":"","type":"address","internalType":"address"}],"outputs":[{"name":"verified","type":"bool","internalType":"bool"},{"name":"districtHash","type":"bytes32","internalType":"bytes32"},{"name":"totalActions","type":"uint256","internalType":"uint256"},{"name":"joinedTimestamp","type":"uint256","internalType":"uint256"},{"name":"isActive","type":"bool","internalType":"bool"},{"name":"selfPassportHash","type":"bytes32","internalType":"bytes32"},{"name":"selfVerificationTime","type":"uint256","internalType":"uint256"}],"stateMutability":"view"},{"type":"function","name":"citizenRecords","inputs":[{"name":"","type":"address","internalType":"address"},{"name":"","type":"uint256","internalType":"uint256"}],"outputs":[{"name":"timestamp","type":"uint256","internalType":"uint256"},{"name":"actionType","type":"uint8","internalType":"enum VOTERRegistry.ActionType"},{"name":"actionHash","type":"bytes32","internalType":"bytes32"},{"name":"districtHash","type":"bytes32","internalType":"bytes32"},{"name":"citizen","type":"address","internalType":"address"},{"name":"verified","type":"bool","internalType":"bool"},{"name":"metadata","type":"string","internalType":"string"}],"stateMutability":"view"},{"type":"function","name":"createVOTERRecord","inputs":[{"name":"citizen","type":"address","internalType":"address"},{"name":"actionType","type":"uint8","internalType":"enum VOTERRegistry.ActionType"},{"name":"actionHash","type":"bytes32","internalType":"bytes32"},{"name":"metadata","type":"string","internalType":"string"}],"outputs":[],"stateMutability":"nonpayable"},{"type":"function","name":"deactivateCitizen","inputs":[{"name":"citizen","type":"address","internalType":"address"},{"name":"reason","type":"string","internalType":"string"}],"outputs":[],"stateMutability":"nonpayable"},{"type":"function","name":"districtActionCounts","inputs":[{"name":"","type":"bytes32","internalType":"bytes32"}],"outputs":[{"name":"","type":"uint256","internalType":"uint256"}],"stateMutability":"view"},{"type":"function","name":"getCitizenRecords","inputs":[{"name":"citizen","type":"address","internalType":"address"}],"outputs":[{"name":"","type":"tuple[]","internalType":"struct VOTERRegistry.VOTERRecord[]","components":[{"name":"timestamp","type":"uint256","internalType":"uint256"},{"name":"actionType","type":"uint8","internalType":"enum VOTERRegistry.ActionType"},{"name":"actionHash","type":"bytes32","internalType":"bytes32"},{"name":"districtHash","type":"bytes32","internalType":"bytes32"},{"name":"citizen","type":"address","internalType":"address"},{"name":"verified","type":"bool","internalType":"bool"},{"name":"metadata","type":"string","internalType":"string"}]}],"stateMutability":"view"},{"type":"function","name":"getDistrictStats","inputs":[{"name":"districtHash","type":"bytes32","internalType":"bytes32"}],"outputs":[{"name":"","type":"uint256","internalType":"uint256"}],"stateMutability":"view"},{"type":"function","name":"getPlatformStats","inputs":[],"outputs":[{"name":"","type":"uint256","internalType":"uint256"},{"name":"","type":"uint256","internalType":"uint256"}],"stateMutability":"view"},{"type":"function","name":"getRoleAdmin","inputs":[{"name":"role","type":"bytes32","internalType":"bytes32"}],"outputs":[{"name":"","type":"bytes32","internalType":"bytes32"}],"stateMutability":"view"},{"type":"function","name":"getVOTERRecord","inputs":[{"name":"citizen","type":"address","internalType":"address"},{"name":"recordId","type":"uint256","internalType":"uint256"}],"outputs":[{"name":"","type":"tuple","internalType":"struct VOTERRegistry.VOTERRecord","components":[{"name":"timestamp","type":"uint256","internalType":"uint256"},{"name":"actionType","type":"uint8","internalType":"enum VOTERRegistry.ActionType"},{"name":"actionHash","type":"bytes32","internalType":"bytes32"},{"name":"districtHash","type":"bytes32","internalType":"bytes32"},{"name":"citizen","type":"address","internalType":"address"},{"name":"verified","type":"bool","internalType":"bool"},{"name":"metadata","type":"string","internalType":"string"}]}],"stateMutability":"view"},{"type":"function","name":"grantRole","inputs":[{"name":"role","type":"bytes32","internalType":"bytes32"},{"name":"account","type":"address","internalType":"address"}],"outputs":[],"stateMutability":"nonpayable"},{"type":"function","name":"hasRole","inputs":[{"name":"role","type":"bytes32","internalType":"bytes32"},{"name":"account","type":"address","internalType":"address"}],"outputs":[{"name":"","type":"bool","internalType":"bool"}],"stateMutability":"view"},{"type":"function","name":"isActionHashUsed","inputs":[{"name":"actionHash","type":"bytes32","internalType":"bytes32"}],"outputs":[{"name":"","type":"bool","internalType":"bool"}],"stateMutability":"view"},{"type":"function","name":"pause","inputs":[],"outputs":[],"stateMutability":"nonpayable"},{"type":"function","name":"paused","inputs":[],"outputs":[{"name":"","type":"bool","internalType":"bool"}],"stateMutability":"view"},{"type":"function","name":"renounceRole","inputs":[{"name":"role","type":"bytes32","internalType":"bytes32"},{"name":"account","type":"address","internalType":"address"}],"outputs":[],"stateMutability":"nonpayable"},{"type":"function","name":"revokeRole","inputs":[{"name":"role","type":"bytes32","internalType":"bytes32"},{"name":"account","type":"address","internalType":"address"}],"outputs":[],"stateMutability":"nonpayable"},{"type":"function","name":"selfProtocol","inputs":[],"outputs":[{"name":"","type":"address","internalType":"contract ISelfProtocol"}],"stateMutability":"view"},{"type":"function","name":"supportsInterface","inputs":[{"name":"interfaceId","type":"bytes4","internalType":"bytes4"}],"outputs":[{"name":"","type":"bool","internalType":"bool"}],"stateMutability":"view"},{"type":"function","name":"totalRecords","inputs":[],"outputs":[{"name":"","type":"uint256","internalType":"uint256"}],"stateMutability":"view"},{"type":"function","name":"totalVerifiedCitizens","inputs":[],"outputs":[{"name":"","type":"uint256","internalType":"uint256"}],"stateMutability":"view"},{"type":"function","name":"unpause","inputs":[],"outputs":[],"stateMutability":"nonpayable"},{"type":"function","name":"verifyCitizenWithSelf","inputs":[{"name":"citizen","type":"address","internalType":"address"},{"name":"districtHash","type":"bytes32","internalType":"bytes32"},{"name":"selfProof","type":"bytes","internalType":"bytes"}],"outputs":[],"stateMutability":"nonpayable"},{"type":"event","name":"CitizenDeactivated","inputs":[{"name":"citizen","type":"address","indexed":true,"internalType":"address"},{"name":"reason","type":"string","indexed":false,"internalType":"string"}],"anonymous":false},{"type":"event","name":"CitizenVerified","inputs":[{"name":"citizen","type":"address","indexed":true,"internalType":"address"},{"name":"districtHash","type":"bytes32","indexed":false,"internalType":"bytes32"},{"name":"timestamp","type":"uint256","indexed":false,"internalType":"uint256"}],"anonymous":false},{"type":"event","name":"Paused","inputs":[{"name":"account","type":"address","indexed":false,"internalType":"address"}],"anonymous":false},{"type":"event","name":"RoleAdminChanged","inputs":[{"name":"role","type":"bytes32","indexed":true,"internalType":"bytes32"},{"name":"previousAdminRole","type":"bytes32","indexed":true,"internalType":"bytes32"},{"name":"newAdminRole","type":"bytes32","indexed":true,"internalType":"bytes32"}],"anonymous":false},{"type":"event","name":"RoleGranted","inputs":[{"name":"role","type":"bytes32","indexed":true,"internalType":"bytes32"},{"name":"account","type":"address","indexed":true,"internalType":"address"},{"name":"sender","type":"address","indexed":true,"internalType":"address"}],"anonymous":false},{"type":"event","name":"RoleRevoked","inputs":[{"name":"role","type":"bytes32","indexed":true,"internalType":"bytes32"},{"name":"account","type":"address","indexed":true,"internalType":"address"},{"name":"sender","type":"address","indexed":true,"internalType":"address"}],"anonymous":false},{"type":"event","name":"Unpaused","inputs":[{"name":"account","type":"address","indexed":false,"internalType":"address"}],"anonymous":false},{"type":"event","name":"VOTERRecordCreated","inputs":[{"name":"citizen","type":"address","indexed":true,"internalType":"address"},{"name":"recordId","type":"uint256","indexed":true,"internalType":"uint256"},{"name":"actionType","type":"uint8","indexed":false,"internalType":"enum VOTERRegistry.ActionType"},{"name":"actionHash","type":"bytes32","indexed":false,"internalType":"bytes32"},{"name":"districtHash","type":"bytes32","indexed":false,"internalType":"bytes32"}],"anonymous":false}],"bytecode":{"object":"0x60a0346200015a57601f62001da538819003918201601f1916830192916001600160401b038411838510176200015f57808392604095865283396020928391810103126200015a57516001600160a01b038116908190036200015a576001805560ff19908160025416600255608052600090818052818352838220338352835260ff84832054161562000124575b7fa49807205ce4d355092ef5a8a18f56e8913cf4a201fbe287825b095693c2177592838352828152848320338452815260ff858420541615620000ea575b8451611c0f90816200017682396080518181816103060152610cbd0152f35b8383528281528483209033845252600184832091825416179055339160008051602062001d85833981519152339280a438808080620000cb565b818052818352838220338352835283822060018282541617905533338360008051602062001d858339815191528180a46200008d565b600080fd5b634e487b7160e01b600052604160045260246000fdfe608080604052600436101561001357600080fd5b60003560e01c90816301ffc9a7146112c857508063024888351461120f57806305a8f2ee146111265780630a0be32614611108578063125f8974146110ea578063136d8883146110c5578063145a11f514610fd2578063248a9ca314610fa35780632f2ff15d14610ef057806336568abe14610e5e5780633a15f0bd14610da35780633e18ce6d146101485780633f4ba83a14610d0f5780635c975abb14610cec5780636ce65d5f146101f5578063705ed27314610ca757806375b238fc14610c6c5780637d97b57714610be75780638456cb5914610b8d57806391d1485414610b405780639e15996d146106215780639fa5767414610242578063a217fddf14610226578063a6985ca4146101f5578063d547741f146101b4578063e7705db6146101795763fcf230ba1461014857600080fd5b346101745760203660031901126101745760043560005260066020526020604060002054604051908152f35b600080fd5b346101745760003660031901126101745760206040517f0ce23c3e399818cfee81a7ab0880f714e53d7672b08df0fa62f2843416e1ea098152f35b34610174576040366003190112610174576101f36004356101d3611331565b908060005260006020526101ee6001604060002001546118f7565b611a01565b005b34610174576020366003190112610174576004356000526005602052602060ff604060002054166040519015158152f35b3461017457600036600319011261017457602060405160008152f35b34610174576060806003193601126101745761025c61131b565b9060249081359160449182359167ffffffffffffffff9384841161017457366023850112156101745783600401359485116101745736828686010111610174573360009081527f1da0b5176dfe03406af5a6eed66ca01dda9b45ac4da671c3fa379cb93717ef8160209081526040909120549095906102dd9060ff166115c3565b6001600160a01b03978816600081815260038852604090205490989060ff166105eb57908484927f00000000000000000000000000000000000000000000000000000000000000001691604051978880926321cc06fd60e21b82528d60048301526040878301528088830152806064998a9401848401376000838284010152601f801991011681010301816000855af180156105195760009660009060009261059d575b5060121161055b576001600160f01b03191661aaad60f01b01610525578682916040519283809263691d95cb60e01b82528a60048301525afa908115610519576000916104e3575b506104ab57877f308363f1f478b803e27fc1ccca605873a587f3445dafcd4549ef196f804716d2604089898960068a855192610404846113b3565b60018452610486858501928784528886019060008252860142815260808701916001835260a0880194855260c08801954287528d60005260038a5261045c8c600020995115158a9060ff801983541691151516179055565b516001890155516002880155516003870155511515600486019060ff801983541691151516179055565b5160058401555191015561049b60085461160f565b60085582519182524290820152a2005b859160157414185cdcdc1bdc9d08185b1c9958591e481d5cd959605a1b926040519462461bcd60e51b86526004860152840152820152fd5b90508681813d8311610512575b6104fa81836113eb565b810103126101745751801515810361017457896103c9565b503d6104f0565b6040513d6000823e3d90fd5b50859160127126bab9ba103132902aa99031b4ba34bd32b760711b926040519462461bcd60e51b86526004860152840152820152fd5b60405162461bcd60e51b815260048101899052601a818501527f4d7573742062652031382b20746f207061727469636970617465000000000000818601528590fd5b975050508486813d83116105e4575b6105b681836113eb565b8101031261017457855187870151604090970151906001600160f01b03198216820361017457966012610381565b503d6105ac565b60405162461bcd60e51b8152600481018890526010818601526f105b1c9958591e481d995c9a599a595960821b81850152606490fd5b346101745760803660031901126101745761063a61131b565b600460243510156101745760643567ffffffffffffffff81116101745761066590369060040161156c565b3360009081527f1da0b5176dfe03406af5a6eed66ca01dda9b45ac4da671c3fa379cb93717ef8160205260409020546106a09060ff166115c3565b600260015414610afb5760026001556106b7611a75565b60018060a01b03821660005260036020526106e2604060002060ff8154169081610aec575b5061161e565b604435600052600560205260ff60406000205416610aa75760443515610a6c5760018060a01b0382166000526003602052600160406000200154906040519061072a826113b3565b42825261073c60243560208401611661565b604435604083015282606083015260018060a01b0384166080830152600160a083015260c082015260018060a01b03831660005260046020526040600020805468010000000000000000811015610a2a5761079c91600182018155611347565b919091610a5657805182556020810151906004821015610a405760c091600184019060ff8019835416911617905560408101516002840155606081015160038401556004830160018060a01b0360808301511681549060ff60a01b60a0850151151560a01b16916affffffffffffffffffffff60a81b1617179055015180519067ffffffffffffffff8211610a2a576108386005840154611379565b601f81116109e3575b50602090601f8311600114610973576005929160009183610968575b50508160011b916000199060031b1c1916179101555b60443560005260056020526040600020600160ff1982541617905560018060a01b038216600052600360205260026040600020016108b1815461160f565b905580600052600660205260406000206108cb815461160f565b90556108d860075461160f565b6007556001600160a01b0382166000908152600460205260409020546000198101929083116109525760607e4b7c223205c3f007ae3de16641e31d335a46a54cbeffeed81cc66408f110b59160405193610934856024356114b3565b604435602086015260408501526001600160a01b031692a360018055005b634e487b7160e01b600052601160045260246000fd5b01519050868061085d565b906005840160005260206000209160005b601f19851681106109cb5750918391600193600595601f198116106109b2575b505050811b01910155610873565b015160001960f88460031b161c191690558680806109a4565b91926020600181928685015181550194019201610984565b600584016000526020600020601f840160051c810160208510610a23575b601f830160051c82018110610a17575050610841565b60008155600101610a01565b5080610a01565b634e487b7160e01b600052604160045260246000fd5b634e487b7160e01b600052602160045260246000fd5b634e487b7160e01b600052600060045260246000fd5b60405162461bcd60e51b8152602060048201526013602482015272092dcecc2d8d2c840c2c6e8d2dedc40d0c2e6d606b1b6044820152606490fd5b60405162461bcd60e51b815260206004820152601760248201527f416374696f6e20616c7265616479207265636f726465640000000000000000006044820152606490fd5b60ff91506004015416846106dc565b60405162461bcd60e51b815260206004820152601f60248201527f5265656e7472616e637947756172643a207265656e7472616e742063616c6c006044820152606490fd5b3461017457604036600319011261017457610b59611331565b600435600052600060205260406000209060018060a01b0316600052602052602060ff604060002054166040519015158152f35b3461017457600036600319011261017457610ba66116dc565b610bae611a75565b600160ff1960025416176002557f62e78cea01bee320cd4e420270b5ea74000d11b0c9f74754ebdbfc544b05a2586020604051338152a1005b34610174576020366003190112610174576001600160a01b03610c0861131b565b16600052600360205260e0604060002060ff815416906001810154906002810154600382015460ff60048401541691600660058501549401549460405196151587526020870152604086015260608501521515608084015260a083015260c0820152f35b346101745760003660031901126101745760206040517fa49807205ce4d355092ef5a8a18f56e8913cf4a201fbe287825b095693c217758152f35b34610174576000366003190112610174576040517f00000000000000000000000000000000000000000000000000000000000000006001600160a01b03168152602090f35b3461017457600036600319011261017457602060ff600254166040519015158152f35b3461017457600036600319011261017457610d286116dc565b60025460ff811615610d675760ff19166002557f5db9ee0a495bf2e6ff9c91a7834c1ba4fdd244a5e8aa4e537bd38aeae4b073aa6020604051338152a1005b60405162461bcd60e51b815260206004820152601460248201527314185d5cd8589b194e881b9bdd081c185d5cd95960621b6044820152606490fd5b3461017457604036600319011261017457610dbc61131b565b60243567ffffffffffffffff811161017457610e59610e007f897d32663ab50d16734ef3a9387d3d0498a0b0b97428c8e76313fec88c11fbbf92369060040161156c565b92610e096116dc565b60018060a01b031692836000526003602052610e2c60ff6040600020541661161e565b836000526003602052600460406000200160ff1981541690556040519182916020835260208301906114e3565b0390a2005b3461017457604036600319011261017457610e77611331565b336001600160a01b03821603610e93576101f390600435611a01565b60405162461bcd60e51b815260206004820152602f60248201527f416363657373436f6e74726f6c3a2063616e206f6e6c792072656e6f756e636560448201526e103937b632b9903337b91039b2b63360891b6064820152608490fd5b3461017457604036600319011261017457600435610f0c611331565b816000526000602052610f266001604060002001546118f7565b81600052600060205260406000209060018060a01b0316908160005260205260ff6040600020541615610f5557005b8160005260006020526040600020816000526020526040600020600160ff1982541617905533917f2f8788117e7eff1d82e926ec794901d17c78024a50270940304540a733656f0d600080a4005b346101745760203660031901126101745760043560005260006020526020600160406000200154604051908152f35b3461017457602080600319360112610174576001600160a01b03610ff461131b565b1660005260048152604060002080549067ffffffffffffffff8211610a2a57829060405192611028838260051b01856113eb565b8084528284018092600052836000206000915b8383106110a25750505050604051918083019381845251809452604083019360408160051b85010192916000955b8287106110765785850386f35b909192938280611092600193603f198a82030186528851611508565b9601920196019592919092611069565b6006866001926110b4859a999a61166d565b81520192019201919095949561103b565b3461017457600036600319011261017457604060075460085482519182526020820152f35b34610174576000366003190112610174576020600754604051908152f35b34610174576000366003190112610174576020600854604051908152f35b346101745760403660031901126101745761113f61131b565b6024356040519161114f836113b3565b60008352606060c06020946000868201526000604082015260008382015260006080820152600060a0820152015260018060a01b031680600052600483526040600020548210156111d2576111b9916111b391600052600484526040600020611347565b5061166d565b906111ce604051928284938452830190611508565b0390f35b60405162461bcd60e51b8152600481018490526015602482015274149958dbdc9908191bd95cc81b9bdd08195e1a5cdd605a1b6044820152606490fd5b346101745760403660031901126101745761122861131b565b6001600160a01b0390811660009081526004602052604090208054602435908110156101745761125791611347565b50906111ce82549160ff8060018601541694600281015492600382015461128560056004850154940161140d565b9461129b604051998a998a5260208a01906114b3565b604088015260608701528116608086015260a01c16151560a084015260e060c084015260e08301906114e3565b34610174576020366003190112610174576004359063ffffffff60e01b821680920361017457602091637965db0b60e01b811490811561130a575b5015158152f35b6301ffc9a760e01b14905083611303565b600435906001600160a01b038216820361017457565b602435906001600160a01b038216820361017457565b8054821015611363576000526006602060002091020190600090565b634e487b7160e01b600052603260045260246000fd5b90600182811c921680156113a9575b602083101461139357565b634e487b7160e01b600052602260045260246000fd5b91607f1691611388565b60e0810190811067ffffffffffffffff821117610a2a57604052565b6080810190811067ffffffffffffffff821117610a2a57604052565b90601f8019910116810190811067ffffffffffffffff821117610a2a57604052565b906040519182600082549261142184611379565b908184526001948581169081600014611490575060011461144d575b505061144b925003836113eb565b565b9093915060005260209081600020936000915b81831061147857505061144b9350820101388061143d565b85548884018501529485019487945091830191611460565b91505061144b94506020925060ff191682840152151560051b820101388061143d565b906004821015610a405752565b60005b8381106114d35750506000910152565b81810151838201526020016114c3565b906020916114fc815180928185528580860191016114c0565b601f01601f1916010190565b9060e060c06115699380518452611527602082015160208601906114b3565b604081015160408501526060810151606085015260018060a01b03608082015116608085015260a0810151151560a08501520151918160c082015201906114e3565b90565b81601f820112156101745780359067ffffffffffffffff8211610a2a57604051926115a1601f8401601f1916602001856113eb565b8284526020838301011161017457816000926020809301838601378301015290565b156115ca57565b60405162461bcd60e51b815260206004820152601760248201527f4e6f7420617574686f72697a65642076657269666965720000000000000000006044820152606490fd5b60001981146109525760010190565b1561162557565b60405162461bcd60e51b815260206004820152601460248201527310da5d1a5e995b881b9bdd081d995c9a599a595960621b6044820152606490fd5b6004821015610a405752565b9060405161167a816113b3565b60c06116d7600583958054855261169b60ff60018301541660208701611661565b600281015460408601526003810154606086015260048101546001600160a01b038116608087015260a090811c60ff161515908601520161140d565b910152565b3360009081527f7d7ffb7a348e1c6a02869081a26547b49160dd3df72d1d75a570eb9b698292ec602090815260408083205490927fa49807205ce4d355092ef5a8a18f56e8913cf4a201fbe287825b095693c217759160ff16156117405750505050565b61174933611aca565b91845190611756826113cf565b604282528482019260603685378251156118e357603084538251906001918210156118e35790607860218501536041915b8183116118755750505061183357604861182f93869361181393611804985198899376020b1b1b2b9b9a1b7b73a3937b61d1030b1b1b7bab73a1604d1b8a8601526117db815180928c6037890191016114c0565b8401917001034b99036b4b9b9b4b733903937b6329607d1b6037840152518093868401906114c0565b010360288101875201856113eb565b5192839262461bcd60e51b8452600484015260248301906114e3565b0390fd5b60648486519062461bcd60e51b825280600483015260248201527f537472696e67733a20686578206c656e67746820696e73756666696369656e746044820152fd5b909192600f811660108110156118cf576f181899199a1a9b1b9c1cb0b131b232b360811b901a6118a58587611ab9565b5360041c9280156118bb57600019019190611787565b634e487b7160e01b82526011600452602482fd5b634e487b7160e01b83526032600452602483fd5b634e487b7160e01b81526032600452602490fd5b600090808252602090828252604092838120338252835260ff8482205416156119205750505050565b61192933611aca565b91845190611936826113cf565b604282528482019260603685378251156118e357603084538251906001918210156118e35790607860218501536041915b8183116119bb5750505061183357604861182f93869361181393611804985198899376020b1b1b2b9b9a1b7b73a3937b61d1030b1b1b7bab73a1604d1b8a8601526117db815180928c6037890191016114c0565b909192600f811660108110156118cf576f181899199a1a9b1b9c1cb0b131b232b360811b901a6119eb8587611ab9565b5360041c9280156118bb57600019019190611967565b9060009180835282602052604083209160018060a01b03169182845260205260ff604084205416611a3157505050565b80835282602052604083208284526020526040832060ff1981541690557ff6391f5c32d9c69d2a47ea670b442974b53935d1edc7fd64eb21e047a839171b339380a4565b60ff60025416611a8157565b60405162461bcd60e51b815260206004820152601060248201526f14185d5cd8589b194e881c185d5cd95960821b6044820152606490fd5b908151811015611363570160200190565b604051906060820182811067ffffffffffffffff821117610a2a57604052602a82526020820160403682378251156113635760309053815160019081101561136357607860218401536029905b808211611b6b575050611b275790565b606460405162461bcd60e51b815260206004820152602060248201527f537472696e67733a20686578206c656e67746820696e73756666696369656e746044820152fd5b9091600f81166010811015611bc4576f181899199a1a9b1b9c1cb0b131b232b360811b901a611b9a8486611ab9565b5360041c918015611baf576000190190611b17565b60246000634e487b7160e01b81526011600452fd5b60246000634e487b7160e01b81526032600452fdfea26469706673582212201a372f0aed3bb4bc257dd980f5a6c0e5c1f0f7a547632b01bf93f0dd7316ed8364736f6c634300081300332f8788117e7eff1d82e926ec794901d17c78024a50270940304540a733656f0d","linkReferences":{}},"methodIdentifiers":{"ADMIN_ROLE()":"75b238fc","DEFAULT_ADMIN_ROLE()":"a217fddf","VERIFIER_ROLE()":"e7705db6","actionHashUsed(bytes32)":"a6985ca4","citizenProfiles(address)":"7d97b577","citizenRecords(address,uint256)":"02488835","createVOTERRecord(address,uint8,bytes32,string)":"9e15996d","deactivateCitizen(address,string)":"3a15f0bd","districtActionCounts(bytes32)":"fcf230ba","getCitizenRecords(address)":"145a11f5","getDistrictStats(bytes32)":"3e18ce6d","getPlatformStats()":"136d8883","getRoleAdmin(bytes32)":"248a9ca3","getVOTERRecord(address,uint256)":"05a8f2ee","grantRole(bytes32,address)":"2f2ff15d","hasRole(bytes32,address)":"91d14854","isActionHashUsed(bytes32)":"6ce65d5f","pause()":"8456cb59","paused()":"5c975abb","renounceRole(bytes32,address)":"36568abe","revokeRole(bytes32,address)":"d547741f","selfProtocol()":"705ed273","supportsInterface(bytes4)":"01ffc9a7","totalRecords()":"125f8974","totalVerifiedCitizens()":"0a0be326","unpause()":"3f4ba83a","verifyCitizenWithSelf(address,bytes32,bytes)":"9fa57674"},"id":4}