{"abi":[{"type":"constructor","inputs":[{"name":"_selfProtocol","type":"address","internalType":"address"}],"stateMutability":"nonpayable"},{"type":"function","name":"ADMIN_ROLE","inputs":[],"outputs":[{"name":"","type":"bytes32","internalType":"bytes32"}],"stateMutability":"view"},{"type":"function","name":"DEFAULT_ADMIN_ROLE","inputs":[],"outputs":[{"name":"","type":"bytes32","internalType":"bytes32"}],"stateMutability":"view"},{"type":"function","name":"VERIFIER_ROLE","inputs":[],"outputs":[{"name":"","type":"bytes32","internalType":"bytes32"}],"stateMutability":"view"},{"type":"function","name":"actionHashUsed","inputs":[{"name":"","type":"bytes32","internalType":"bytes32"}],"outputs":[{"name":"","type":"bool","internalType":"bool"}],"stateMutability":"view"},{"type":"function","name":"citizenProfiles","inputs":[{"name":"","type":"address","internalType":"address"}],"outputs":[{"name":"verified","type":"bool","internalType":"bool"},{"name":"districtHash","type":"bytes32","internalType":"bytes32"},{"name":"totalActions","type":"uint256","internalType":"uint256"},{"name":"joinedTimestamp","type":"uint256","internalType":"uint256"},{"name":"isActive","type":"bool","internalType":"bool"},{"name":"selfPassportHash","type":"bytes32","internalType":"bytes32"},{"name":"selfVerificationTime","type":"uint256","internalType":"uint256"}],"stateMutability":"view"},{"type":"function","name":"citizenRecords","inputs":[{"name":"","type":"address","internalType":"address"},{"name":"","type":"uint256","internalType":"uint256"}],"outputs":[{"name":"timestamp","type":"uint256","internalType":"uint256"},{"name":"actionType","type":"uint8","internalType":"enum VOTERRegistry.ActionType"},{"name":"actionHash","type":"bytes32","internalType":"bytes32"},{"name":"districtHash","type":"bytes32","internalType":"bytes32"},{"name":"citizen","type":"address","internalType":"address"},{"name":"verified","type":"bool","internalType":"bool"},{"name":"metadata","type":"string","internalType":"string"},{"name":"metadataHash","type":"bytes32","internalType":"bytes32"}],"stateMutability":"view"},{"type":"function","name":"createVOTERRecord","inputs":[{"name":"citizen","type":"address","internalType":"address"},{"name":"actionType","type":"uint8","internalType":"enum VOTERRegistry.ActionType"},{"name":"actionHash","type":"bytes32","internalType":"bytes32"},{"name":"metadata","type":"string","internalType":"string"}],"outputs":[],"stateMutability":"nonpayable"},{"type":"function","name":"deactivateCitizen","inputs":[{"name":"citizen","type":"address","internalType":"address"},{"name":"reason","type":"string","internalType":"string"}],"outputs":[],"stateMutability":"nonpayable"},{"type":"function","name":"districtActionCounts","inputs":[{"name":"","type":"bytes32","internalType":"bytes32"}],"outputs":[{"name":"","type":"uint256","internalType":"uint256"}],"stateMutability":"view"},{"type":"function","name":"getCitizenRecords","inputs":[{"name":"citizen","type":"address","internalType":"address"}],"outputs":[{"name":"","type":"tuple[]","internalType":"struct VOTERRegistry.VOTERRecord[]","components":[{"name":"timestamp","type":"uint256","internalType":"uint256"},{"name":"actionType","type":"uint8","internalType":"enum VOTERRegistry.ActionType"},{"name":"actionHash","type":"bytes32","internalType":"bytes32"},{"name":"districtHash","type":"bytes32","internalType":"bytes32"},{"name":"citizen","type":"address","internalType":"address"},{"name":"verified","type":"bool","internalType":"bool"},{"name":"metadata","type":"string","internalType":"string"},{"name":"metadataHash","type":"bytes32","internalType":"bytes32"}]}],"stateMutability":"view"},{"type":"function","name":"getDistrictStats","inputs":[{"name":"districtHash","type":"bytes32","internalType":"bytes32"}],"outputs":[{"name":"","type":"uint256","internalType":"uint256"}],"stateMutability":"view"},{"type":"function","name":"getPlatformStats","inputs":[],"outputs":[{"name":"","type":"uint256","internalType":"uint256"},{"name":"","type":"uint256","internalType":"uint256"}],"stateMutability":"view"},{"type":"function","name":"getRoleAdmin","inputs":[{"name":"role","type":"bytes32","internalType":"bytes32"}],"outputs":[{"name":"","type":"bytes32","internalType":"bytes32"}],"stateMutability":"view"},{"type":"function","name":"getVOTERRecord","inputs":[{"name":"citizen","type":"address","internalType":"address"},{"name":"recordId","type":"uint256","internalType":"uint256"}],"outputs":[{"name":"","type":"tuple","internalType":"struct VOTERRegistry.VOTERRecord","components":[{"name":"timestamp","type":"uint256","internalType":"uint256"},{"name":"actionType","type":"uint8","internalType":"enum VOTERRegistry.ActionType"},{"name":"actionHash","type":"bytes32","internalType":"bytes32"},{"name":"districtHash","type":"bytes32","internalType":"bytes32"},{"name":"citizen","type":"address","internalType":"address"},{"name":"verified","type":"bool","internalType":"bool"},{"name":"metadata","type":"string","internalType":"string"},{"name":"metadataHash","type":"bytes32","internalType":"bytes32"}]}],"stateMutability":"view"},{"type":"function","name":"grantRole","inputs":[{"name":"role","type":"bytes32","internalType":"bytes32"},{"name":"account","type":"address","internalType":"address"}],"outputs":[],"stateMutability":"nonpayable"},{"type":"function","name":"hasRole","inputs":[{"name":"role","type":"bytes32","internalType":"bytes32"},{"name":"account","type":"address","internalType":"address"}],"outputs":[{"name":"","type":"bool","internalType":"bool"}],"stateMutability":"view"},{"type":"function","name":"isActionHashUsed","inputs":[{"name":"actionHash","type":"bytes32","internalType":"bytes32"}],"outputs":[{"name":"","type":"bool","internalType":"bool"}],"stateMutability":"view"},{"type":"function","name":"pause","inputs":[],"outputs":[],"stateMutability":"nonpayable"},{"type":"function","name":"paused","inputs":[],"outputs":[{"name":"","type":"bool","internalType":"bool"}],"stateMutability":"view"},{"type":"function","name":"renounceRole","inputs":[{"name":"role","type":"bytes32","internalType":"bytes32"},{"name":"account","type":"address","internalType":"address"}],"outputs":[],"stateMutability":"nonpayable"},{"type":"function","name":"revokeRole","inputs":[{"name":"role","type":"bytes32","internalType":"bytes32"},{"name":"account","type":"address","internalType":"address"}],"outputs":[],"stateMutability":"nonpayable"},{"type":"function","name":"selfProtocol","inputs":[],"outputs":[{"name":"","type":"address","internalType":"contract ISelfProtocol"}],"stateMutability":"view"},{"type":"function","name":"supportsInterface","inputs":[{"name":"interfaceId","type":"bytes4","internalType":"bytes4"}],"outputs":[{"name":"","type":"bool","internalType":"bool"}],"stateMutability":"view"},{"type":"function","name":"totalRecords","inputs":[],"outputs":[{"name":"","type":"uint256","internalType":"uint256"}],"stateMutability":"view"},{"type":"function","name":"totalVerifiedCitizens","inputs":[],"outputs":[{"name":"","type":"uint256","internalType":"uint256"}],"stateMutability":"view"},{"type":"function","name":"unpause","inputs":[],"outputs":[],"stateMutability":"nonpayable"},{"type":"function","name":"verifyCitizenWithSelf","inputs":[{"name":"citizen","type":"address","internalType":"address"},{"name":"districtHash","type":"bytes32","internalType":"bytes32"},{"name":"selfProof","type":"bytes","internalType":"bytes"}],"outputs":[],"stateMutability":"nonpayable"},{"type":"event","name":"CitizenDeactivated","inputs":[{"name":"citizen","type":"address","indexed":true,"internalType":"address"},{"name":"reason","type":"string","indexed":false,"internalType":"string"}],"anonymous":false},{"type":"event","name":"CitizenVerified","inputs":[{"name":"citizen","type":"address","indexed":true,"internalType":"address"},{"name":"districtHash","type":"bytes32","indexed":false,"internalType":"bytes32"},{"name":"timestamp","type":"uint256","indexed":false,"internalType":"uint256"}],"anonymous":false},{"type":"event","name":"Paused","inputs":[{"name":"account","type":"address","indexed":false,"internalType":"address"}],"anonymous":false},{"type":"event","name":"RoleAdminChanged","inputs":[{"name":"role","type":"bytes32","indexed":true,"internalType":"bytes32"},{"name":"previousAdminRole","type":"bytes32","indexed":true,"internalType":"bytes32"},{"name":"newAdminRole","type":"bytes32","indexed":true,"internalType":"bytes32"}],"anonymous":false},{"type":"event","name":"RoleGranted","inputs":[{"name":"role","type":"bytes32","indexed":true,"internalType":"bytes32"},{"name":"account","type":"address","indexed":true,"internalType":"address"},{"name":"sender","type":"address","indexed":true,"internalType":"address"}],"anonymous":false},{"type":"event","name":"RoleRevoked","inputs":[{"name":"role","type":"bytes32","indexed":true,"internalType":"bytes32"},{"name":"account","type":"address","indexed":true,"internalType":"address"},{"name":"sender","type":"address","indexed":true,"internalType":"address"}],"anonymous":false},{"type":"event","name":"Unpaused","inputs":[{"name":"account","type":"address","indexed":false,"internalType":"address"}],"anonymous":false},{"type":"event","name":"VOTERRecordCreated","inputs":[{"name":"citizen","type":"address","indexed":true,"internalType":"address"},{"name":"recordId","type":"uint256","indexed":true,"internalType":"uint256"},{"name":"actionType","type":"uint8","indexed":false,"internalType":"enum VOTERRegistry.ActionType"},{"name":"actionHash","type":"bytes32","indexed":false,"internalType":"bytes32"},{"name":"districtHash","type":"bytes32","indexed":false,"internalType":"bytes32"}],"anonymous":false}],"bytecode":{"object":"0x60a0346200015a57601f62001e0c38819003918201601f1916830192916001600160401b038411838510176200015f57808392604095865283396020928391810103126200015a57516001600160a01b038116908190036200015a576001805560ff19908160025416600255608052600090818052818352838220338352835260ff84832054161562000124575b7fa49807205ce4d355092ef5a8a18f56e8913cf4a201fbe287825b095693c2177592838352828152848320338452815260ff858420541615620000ea575b8451611c7690816200017682396080518181816103080152610cfa0152f35b8383528281528483209033845252600184832091825416179055339160008051602062001dec833981519152339280a438808080620000cb565b818052818352838220338352835283822060018282541617905533338360008051602062001dec8339815191528180a46200008d565b600080fd5b634e487b7160e01b600052604160045260246000fdfe608080604052600436101561001357600080fd5b60003560e01c90816301ffc9a71461131a57508063024888351461124f57806305a8f2ee146111635780630a0be32614611145578063125f897414611127578063136d888314611102578063145a11f51461100f578063248a9ca314610fe05780632f2ff15d14610f2d57806336568abe14610e9b5780633a15f0bd14610de05780633e18ce6d146101485780633f4ba83a14610d4c5780635c975abb14610d295780636ce65d5f146101f5578063705ed27314610ce457806375b238fc14610ca95780637d97b57714610c245780638456cb5914610bca57806391d1485414610b7d5780639e15996d146106435780639fa5767414610242578063a217fddf14610226578063a6985ca4146101f5578063d547741f146101b4578063e7705db6146101795763fcf230ba1461014857600080fd5b346101745760203660031901126101745760043560005260066020526020604060002054604051908152f35b600080fd5b346101745760003660031901126101745760206040517f0ce23c3e399818cfee81a7ab0880f714e53d7672b08df0fa62f2843416e1ea098152f35b34610174576040366003190112610174576101f36004356101d3611383565b908060005260006020526101ee60016040600020015461195e565b611a68565b005b34610174576020366003190112610174576004356000526005602052602060ff604060002054166040519015158152f35b3461017457600036600319011261017457602060405160008152f35b34610174576060806003193601126101745761025c61136d565b9060249081359160449182359267ffffffffffffffff8085116101745736602386011215610174578460040135918183116101745736858488010111610174573360009081527f1da0b5176dfe03406af5a6eed66ca01dda9b45ac4da671c3fa379cb93717ef8160209081526040909120549096906102dd9060ff16611620565b6001600160a01b03988916600081815260038952604090205490999060ff1661060d5790858a8894937f00000000000000000000000000000000000000000000000000000000000000001692604051809881936321cc06fd60e21b83526004830152604088830152808783015280606498899401848401376000838284010152601f801991011681010301816000855af1801561053b576000956000906000926105bf575b5060121161057d576001600160f01b03191661aaad60f01b01610547578787916040519283809263691d95cb60e01b82528960048301525afa90811561053b57600091610505575b506104cd5750506040519360e08501918211858310176104b95750604094927f308363f1f478b803e27fc1ccca605873a587f3445dafcd4549ef196f804716d2969492600692875260018452610494858501928784528886019060008252860142815260808701916001835260a0880194855260c08801954287528d60005260038a5261046a8c600020995115158a9060ff801983541691151516179055565b516001890155516002880155516003870155511515600486019060ff801983541691151516179055565b516005840155519101556104a960085461166c565b60085582519182524290820152a2005b634e487b7160e01b60009081526041600452fd5b7414185cdcdc1bdc9d08185b1c9958591e481d5cd959605a1b87916015886040519462461bcd60e51b86526004860152840152820152fd5b90508781813d8311610534575b61051c818361143e565b8101031261017457518015158103610174578a6103ca565b503d610512565b6040513d6000823e3d90fd5b507126bab9ba103132902aa99031b4ba34bd32b760711b87916012886040519462461bcd60e51b86526004860152840152820152fd5b60405162461bcd60e51b8152600481018a9052601a818a01527f4d7573742062652031382b20746f207061727469636970617465000000000000818501528490fd5b965050508585813d8311610606575b6105d8818361143e565b8101031261017457845188860151604090960151906001600160f01b03198216820361017457956012610382565b503d6105ce565b60405162461bcd60e51b8152600481018990526010818901526f105b1c9958591e481d995c9a599a595960821b81850152606490fd5b346101745760803660031901126101745761065c61136d565b600260243510156101745760643567ffffffffffffffff8111610174576106879036906004016115c9565b3360009081527f1da0b5176dfe03406af5a6eed66ca01dda9b45ac4da671c3fa379cb93717ef8160205260409020546106c29060ff16611620565b600260015414610b385760026001556106d9611adc565b60018060a01b0382166000526003602052610704604060002060ff8154169081610b29575b5061167b565b604435600052600560205260ff60406000205416610ae45760443515610aa95760018060a01b038216600052600360205260016040600020015490805160208201206040519161075383611405565b428352610765602435602085016116be565b604435604084015283606084015260018060a01b0385166080840152600160a084015260c083015260e082015260018060a01b03831660005260046020526040600020805468010000000000000000811015610a67576107ca91600182018155611399565b919091610a93578051825560208101516002811015610a7d57600183019060ff8019835416911617905560408101516002830155606081015160038301556004820160018060a01b0360808301511681549060ff60a01b60a0850151151560a01b16916affffffffffffffffffffff60a81b161717905560c081015180519067ffffffffffffffff8211610a675761086560058501546113cb565b601f8111610a20575b50602090601f83116001146109ab5791806006949260e0946000926109a0575b50508160011b916000199060031b1c19161760058501555b015191015560443560005260056020526040600020600160ff1982541617905560018060a01b038216600052600360205260026040600020016108e9815461166c565b90558060005260066020526040600020610903815461166c565b905561091060075461166c565b6007556001600160a01b03821660009081526004602052604090205460001981019290831161098a5760607e4b7c223205c3f007ae3de16641e31d335a46a54cbeffeed81cc66408f110b5916040519361096c85602435611506565b604435602086015260408501526001600160a01b031692a360018055005b634e487b7160e01b600052601160045260246000fd5b01519050888061088e565b906005850160005260206000209160005b601f1985168110610a085750926006949260019260e09583601f198116106109ef575b505050811b0160058501556108a6565b015160001960f88460031b161c191690558880806109df565b919260206001819286850151815501940192016109bc565b600585016000526020600020601f840160051c810160208510610a60575b601f830160051c82018110610a5457505061086e565b60008155600101610a3e565b5080610a3e565b634e487b7160e01b600052604160045260246000fd5b634e487b7160e01b600052602160045260246000fd5b634e487b7160e01b600052600060045260246000fd5b60405162461bcd60e51b8152602060048201526013602482015272092dcecc2d8d2c840c2c6e8d2dedc40d0c2e6d606b1b6044820152606490fd5b60405162461bcd60e51b815260206004820152601760248201527f416374696f6e20616c7265616479207265636f726465640000000000000000006044820152606490fd5b60ff91506004015416846106fe565b60405162461bcd60e51b815260206004820152601f60248201527f5265656e7472616e637947756172643a207265656e7472616e742063616c6c006044820152606490fd5b3461017457604036600319011261017457610b96611383565b600435600052600060205260406000209060018060a01b0316600052602052602060ff604060002054166040519015158152f35b3461017457600036600319011261017457610be3611743565b610beb611adc565b600160ff1960025416176002557f62e78cea01bee320cd4e420270b5ea74000d11b0c9f74754ebdbfc544b05a2586020604051338152a1005b34610174576020366003190112610174576001600160a01b03610c4561136d565b16600052600360205260e0604060002060ff815416906001810154906002810154600382015460ff60048401541691600660058501549401549460405196151587526020870152604086015260608501521515608084015260a083015260c0820152f35b346101745760003660031901126101745760206040517fa49807205ce4d355092ef5a8a18f56e8913cf4a201fbe287825b095693c217758152f35b34610174576000366003190112610174576040517f00000000000000000000000000000000000000000000000000000000000000006001600160a01b03168152602090f35b3461017457600036600319011261017457602060ff600254166040519015158152f35b3461017457600036600319011261017457610d65611743565b60025460ff811615610da45760ff19166002557f5db9ee0a495bf2e6ff9c91a7834c1ba4fdd244a5e8aa4e537bd38aeae4b073aa6020604051338152a1005b60405162461bcd60e51b815260206004820152601460248201527314185d5cd8589b194e881b9bdd081c185d5cd95960621b6044820152606490fd5b3461017457604036600319011261017457610df961136d565b60243567ffffffffffffffff811161017457610e96610e3d7f897d32663ab50d16734ef3a9387d3d0498a0b0b97428c8e76313fec88c11fbbf9236906004016115c9565b92610e46611743565b60018060a01b031692836000526003602052610e6960ff6040600020541661167b565b836000526003602052600460406000200160ff198154169055604051918291602083526020830190611536565b0390a2005b3461017457604036600319011261017457610eb4611383565b336001600160a01b03821603610ed0576101f390600435611a68565b60405162461bcd60e51b815260206004820152602f60248201527f416363657373436f6e74726f6c3a2063616e206f6e6c792072656e6f756e636560448201526e103937b632b9903337b91039b2b63360891b6064820152608490fd5b3461017457604036600319011261017457600435610f49611383565b816000526000602052610f6360016040600020015461195e565b81600052600060205260406000209060018060a01b0316908160005260205260ff6040600020541615610f9257005b8160005260006020526040600020816000526020526040600020600160ff1982541617905533917f2f8788117e7eff1d82e926ec794901d17c78024a50270940304540a733656f0d600080a4005b346101745760203660031901126101745760043560005260006020526020600160406000200154604051908152f35b3461017457602080600319360112610174576001600160a01b0361103161136d565b1660005260048152604060002080549067ffffffffffffffff8211610a6757829060405192611065838260051b018561143e565b8084528284018092600052836000206000915b8383106110df5750505050604051918083019381845251809452604083019360408160051b85010192916000955b8287106110b35785850386f35b9091929382806110cf600193603f198a8203018652885161155b565b96019201960195929190926110a6565b6007866001926110f1859a999a6116ca565b815201920192019190959495611078565b3461017457600036600319011261017457604060075460085482519182526020820152f35b34610174576000366003190112610174576020600754604051908152f35b34610174576000366003190112610174576020600854604051908152f35b346101745760403660031901126101745761117c61136d565b6024356040519161118c83611405565b60008352600060e060209482868201528260408201528260608201528260808201528260a0820152606060c0820152015260018060a01b03168060005260048352604060002054821015611212576111f9916111f391600052600484526040600020611399565b506116ca565b9061120e60405192828493845283019061155b565b0390f35b60405162461bcd60e51b8152600481018490526015602482015274149958dbdc9908191bd95cc81b9bdd08195e1a5cdd605a1b6044820152606490fd5b346101745760403660031901126101745761126861136d565b6001600160a01b0390811660009081526004602052604090208054602435908110156101745761129791611399565b509081549061131060ff6001850154169360ff60028201549360038301549060048401549160066112ca60058701611460565b950154966112e36040519a8b9a8b5260208b0190611506565b604089015260608801528116608087015260a01c16151560a08501526101008060c0860152840190611536565b9060e08301520390f35b34610174576020366003190112610174576004359063ffffffff60e01b821680920361017457602091637965db0b60e01b811490811561135c575b5015158152f35b6301ffc9a760e01b14905083611355565b600435906001600160a01b038216820361017457565b602435906001600160a01b038216820361017457565b80548210156113b5576000526007602060002091020190600090565b634e487b7160e01b600052603260045260246000fd5b90600182811c921680156113fb575b60208310146113e557565b634e487b7160e01b600052602260045260246000fd5b91607f16916113da565b610100810190811067ffffffffffffffff821117610a6757604052565b6080810190811067ffffffffffffffff821117610a6757604052565b90601f8019910116810190811067ffffffffffffffff821117610a6757604052565b9060405191826000825492611474846113cb565b9081845260019485811690816000146114e357506001146114a0575b505061149e9250038361143e565b565b9093915060005260209081600020936000915b8183106114cb57505061149e93508201013880611490565b855488840185015294850194879450918301916114b3565b91505061149e94506020925060ff191682840152151560051b8201013880611490565b906002821015610a7d5752565b60005b8381106115265750506000910152565b8181015183820152602001611516565b9060209161154f81518092818552858086019101611513565b601f01601f1916010190565b908151815261157260208301516020830190611506565b604082015160408201526060820151606082015260018060a01b03608083015116608082015260a0820151151560a082015260e0806115c060c08501516101008060c0870152850190611536565b93015191015290565b81601f820112156101745780359067ffffffffffffffff8211610a6757604051926115fe601f8401601f19166020018561143e565b8284526020838301011161017457816000926020809301838601378301015290565b1561162757565b60405162461bcd60e51b815260206004820152601760248201527f4e6f7420617574686f72697a65642076657269666965720000000000000000006044820152606490fd5b600019811461098a5760010190565b1561168257565b60405162461bcd60e51b815260206004820152601460248201527310da5d1a5e995b881b9bdd081d995c9a599a595960621b6044820152606490fd5b6002821015610a7d5752565b906040516116d781611405565b60e060068294805484526116f560ff600183015416602086016116be565b600281015460408501526003810154606085015260048101546001600160a01b038116608086015260a090811c60ff1615159085015261173760058201611460565b60c08501520154910152565b3360009081527f7d7ffb7a348e1c6a02869081a26547b49160dd3df72d1d75a570eb9b698292ec602090815260408083205490927fa49807205ce4d355092ef5a8a18f56e8913cf4a201fbe287825b095693c217759160ff16156117a75750505050565b6117b033611b31565b918451906117bd82611422565b6042825284820192606036853782511561194a576030845382519060019182101561194a5790607860218501536041915b8183116118dc5750505061189a57604861189693869361187a9361186b985198899376020b1b1b2b9b9a1b7b73a3937b61d1030b1b1b7bab73a1604d1b8a860152611842815180928c603789019101611513565b8401917001034b99036b4b9b9b4b733903937b6329607d1b603784015251809386840190611513565b0103602881018752018561143e565b5192839262461bcd60e51b845260048401526024830190611536565b0390fd5b60648486519062461bcd60e51b825280600483015260248201527f537472696e67733a20686578206c656e67746820696e73756666696369656e746044820152fd5b909192600f81166010811015611936576f181899199a1a9b1b9c1cb0b131b232b360811b901a61190c8587611b20565b5360041c928015611922576000190191906117ee565b634e487b7160e01b82526011600452602482fd5b634e487b7160e01b83526032600452602483fd5b634e487b7160e01b81526032600452602490fd5b600090808252602090828252604092838120338252835260ff8482205416156119875750505050565b61199033611b31565b9184519061199d82611422565b6042825284820192606036853782511561194a576030845382519060019182101561194a5790607860218501536041915b818311611a225750505061189a57604861189693869361187a9361186b985198899376020b1b1b2b9b9a1b7b73a3937b61d1030b1b1b7bab73a1604d1b8a860152611842815180928c603789019101611513565b909192600f81166010811015611936576f181899199a1a9b1b9c1cb0b131b232b360811b901a611a528587611b20565b5360041c928015611922576000190191906119ce565b9060009180835282602052604083209160018060a01b03169182845260205260ff604084205416611a9857505050565b80835282602052604083208284526020526040832060ff1981541690557ff6391f5c32d9c69d2a47ea670b442974b53935d1edc7fd64eb21e047a839171b339380a4565b60ff60025416611ae857565b60405162461bcd60e51b815260206004820152601060248201526f14185d5cd8589b194e881c185d5cd95960821b6044820152606490fd5b9081518110156113b5570160200190565b604051906060820182811067ffffffffffffffff821117610a6757604052602a82526020820160403682378251156113b5576030905381516001908110156113b557607860218401536029905b808211611bd2575050611b8e5790565b606460405162461bcd60e51b815260206004820152602060248201527f537472696e67733a20686578206c656e67746820696e73756666696369656e746044820152fd5b9091600f81166010811015611c2b576f181899199a1a9b1b9c1cb0b131b232b360811b901a611c018486611b20565b5360041c918015611c16576000190190611b7e565b60246000634e487b7160e01b81526011600452fd5b60246000634e487b7160e01b81526032600452fdfea2646970667358221220e5075684af5268d1f67356b8e9cbe7a99690978158cde2330a1536c50691b86964736f6c634300081300332f8788117e7eff1d82e926ec794901d17c78024a50270940304540a733656f0d","linkReferences":{}},"methodIdentifiers":{"ADMIN_ROLE()":"75b238fc","DEFAULT_ADMIN_ROLE()":"a217fddf","VERIFIER_ROLE()":"e7705db6","actionHashUsed(bytes32)":"a6985ca4","citizenProfiles(address)":"7d97b577","citizenRecords(address,uint256)":"02488835","createVOTERRecord(address,uint8,bytes32,string)":"9e15996d","deactivateCitizen(address,string)":"3a15f0bd","districtActionCounts(bytes32)":"fcf230ba","getCitizenRecords(address)":"145a11f5","getDistrictStats(bytes32)":"3e18ce6d","getPlatformStats()":"136d8883","getRoleAdmin(bytes32)":"248a9ca3","getVOTERRecord(address,uint256)":"05a8f2ee","grantRole(bytes32,address)":"2f2ff15d","hasRole(bytes32,address)":"91d14854","isActionHashUsed(bytes32)":"6ce65d5f","pause()":"8456cb59","paused()":"5c975abb","renounceRole(bytes32,address)":"36568abe","revokeRole(bytes32,address)":"d547741f","selfProtocol()":"705ed273","supportsInterface(bytes4)":"01ffc9a7","totalRecords()":"125f8974","totalVerifiedCitizens()":"0a0be326","unpause()":"3f4ba83a","verifyCitizenWithSelf(address,bytes32,bytes)":"9fa57674"},"id":4}