{"abi":[{"type":"constructor","inputs":[{"name":"admin","type":"address","internalType":"address"},{"name":"initialThreshold","type":"uint256","internalType":"uint256"}],"stateMutability":"nonpayable"},{"type":"function","name":"AGENT_ROLE","inputs":[],"outputs":[{"name":"","type":"bytes32","internalType":"bytes32"}],"stateMutability":"view"},{"type":"function","name":"DEFAULT_ADMIN_ROLE","inputs":[],"outputs":[{"name":"","type":"bytes32","internalType":"bytes32"}],"stateMutability":"view"},{"type":"function","name":"approvalCounts","inputs":[{"name":"","type":"bytes32","internalType":"bytes32"}],"outputs":[{"name":"","type":"uint256","internalType":"uint256"}],"stateMutability":"view"},{"type":"function","name":"approvals","inputs":[{"name":"","type":"bytes32","internalType":"bytes32"},{"name":"","type":"address","internalType":"address"}],"outputs":[{"name":"","type":"bool","internalType":"bool"}],"stateMutability":"view"},{"type":"function","name":"approve","inputs":[{"name":"actionHash","type":"bytes32","internalType":"bytes32"}],"outputs":[],"stateMutability":"nonpayable"},{"type":"function","name":"getRoleAdmin","inputs":[{"name":"role","type":"bytes32","internalType":"bytes32"}],"outputs":[{"name":"","type":"bytes32","internalType":"bytes32"}],"stateMutability":"view"},{"type":"function","name":"grantRole","inputs":[{"name":"role","type":"bytes32","internalType":"bytes32"},{"name":"account","type":"address","internalType":"address"}],"outputs":[],"stateMutability":"nonpayable"},{"type":"function","name":"hasRole","inputs":[{"name":"role","type":"bytes32","internalType":"bytes32"},{"name":"account","type":"address","internalType":"address"}],"outputs":[{"name":"","type":"bool","internalType":"bool"}],"stateMutability":"view"},{"type":"function","name":"isVerified","inputs":[{"name":"actionHash","type":"bytes32","internalType":"bytes32"}],"outputs":[{"name":"","type":"bool","internalType":"bool"}],"stateMutability":"view"},{"type":"function","name":"renounceRole","inputs":[{"name":"role","type":"bytes32","internalType":"bytes32"},{"name":"account","type":"address","internalType":"address"}],"outputs":[],"stateMutability":"nonpayable"},{"type":"function","name":"revoke","inputs":[{"name":"actionHash","type":"bytes32","internalType":"bytes32"}],"outputs":[],"stateMutability":"nonpayable"},{"type":"function","name":"revokeRole","inputs":[{"name":"role","type":"bytes32","internalType":"bytes32"},{"name":"account","type":"address","internalType":"address"}],"outputs":[],"stateMutability":"nonpayable"},{"type":"function","name":"setSignerThreshold","inputs":[{"name":"newThreshold","type":"uint256","internalType":"uint256"}],"outputs":[],"stateMutability":"nonpayable"},{"type":"function","name":"signerThreshold","inputs":[],"outputs":[{"name":"","type":"uint256","internalType":"uint256"}],"stateMutability":"view"},{"type":"function","name":"supportsInterface","inputs":[{"name":"interfaceId","type":"bytes4","internalType":"bytes4"}],"outputs":[{"name":"","type":"bool","internalType":"bool"}],"stateMutability":"view"},{"type":"event","name":"AgentApproved","inputs":[{"name":"actionHash","type":"bytes32","indexed":true,"internalType":"bytes32"},{"name":"agent","type":"address","indexed":true,"internalType":"address"}],"anonymous":false},{"type":"event","name":"AgentRevoked","inputs":[{"name":"actionHash","type":"bytes32","indexed":true,"internalType":"bytes32"},{"name":"agent","type":"address","indexed":true,"internalType":"address"}],"anonymous":false},{"type":"event","name":"RoleAdminChanged","inputs":[{"name":"role","type":"bytes32","indexed":true,"internalType":"bytes32"},{"name":"previousAdminRole","type":"bytes32","indexed":true,"internalType":"bytes32"},{"name":"newAdminRole","type":"bytes32","indexed":true,"internalType":"bytes32"}],"anonymous":false},{"type":"event","name":"RoleGranted","inputs":[{"name":"role","type":"bytes32","indexed":true,"internalType":"bytes32"},{"name":"account","type":"address","indexed":true,"internalType":"address"},{"name":"sender","type":"address","indexed":true,"internalType":"address"}],"anonymous":false},{"type":"event","name":"RoleRevoked","inputs":[{"name":"role","type":"bytes32","indexed":true,"internalType":"bytes32"},{"name":"account","type":"address","indexed":true,"internalType":"address"},{"name":"sender","type":"address","indexed":true,"internalType":"address"}],"anonymous":false},{"type":"event","name":"ThresholdUpdated","inputs":[{"name":"newThreshold","type":"uint256","indexed":false,"internalType":"uint256"}],"anonymous":false}],"bytecode":{"object":"0x60803461016e57610f3d90601f38839003908101601f19168201906001600160401b03821183831017610173578083916040958694855283398101031261016e5780516001600160a01b038116919082900361016e5760208091015191600090818052818352848220818352835260ff858320541615610138575b7fcab5a0bfe0b79d2c4b1c2e02599fa044d115b7511f9659307cb4276950967709808352828452858320828452845260ff868420541615610101575b50505081156100d0575060015551610d93908161018a8239f35b60649083519062461bcd60e51b82526004820152600b60248201526a07468726573686f6c643d360ac1b6044820152fd5b8083528284528583208284528452858320600160ff19825416179055600080516020610f1d833981519152339380a43880806100b6565b8180528183528482208183528352848220805460ff19166001179055338183600080516020610f1d8339815191528180a461007a565b600080fd5b634e487b7160e01b600052604160045260246000fdfe608060408181526004918236101561001657600080fd5b600092833560e01c91826301ffc9a71461077d5750816322459e1814610742578163248a9ca31461071857816324f6c776146106dd578163251b8192146104635781632f2ff15d146103c557816336568abe1461033d5781638abed32b1461031557816391d14854146102db578163a217fddf146102c0578163a4a4f390146102a1578163a53a1adf146101f3578163b75c7dc614610131578163c181b27314610100575063d547741f146100ca57600080fd5b346100fc5760016100f9916100f46100e1366107d0565b9390928387528660205286200154610a31565b610bb3565b80f35b5080fd5b90503461012d57602036600319011261012d57602092829135815260038452205460015411159051908152f35b8280fd5b90503461012d57602091826003193601126101ef57813592610151610836565b61015c8415156107fb565b83855260028152818520338652815260ff828620541661017a578480f35b838552600281528185203386528152818520805460ff1916905583855260039052832080546000198101929083116101dc57505533907f6659b3786731ae2c2994742820a98d452b6f59e0d9318e072721bc72d224361c8380a3388080808480f35b634e487b7160e01b855260119052602484fd5b8380fd5b90503461012d57602091826003193601126101ef57813592610213610836565b61021e8415156107fb565b83855260028152818520338652815260ff82862054161561023d578480f35b600390848652600281528286203387528152828620600160ff19825416179055848652528320805491600183018093116101dc57505533907f82743d5237cadd853d9e78bdc35dad1e5ac7d34ee682b95a6ccf985a94963d1d8380a3388080808480f35b5050346100fc57816003193601126100fc576020906001549051908152f35b5050346100fc57816003193601126100fc5751908152602090f35b5050346100fc5760ff816020936102f1366107d0565b9082528186528282206001600160a01b039091168252855220549151911615158152f35b90503461012d57602036600319011261012d5760209282913581526003845220549051908152f35b839150346100fc5761034e366107d0565b91336001600160a01b0384160361036a5750906100f991610bb3565b608490602086519162461bcd60e51b8352820152602f60248201527f416363657373436f6e74726f6c3a2063616e206f6e6c792072656e6f756e636560448201526e103937b632b9903337b91039b2b63360891b6064820152fd5b5050346100fc576103d5366107d0565b9091828452836020526103ed60018286200154610a31565b82845260208481528185206001600160a01b039093168086529290528084205460ff1615610419578380f35b828452836020528084208285526020528320600160ff1982541617905533917f2f8788117e7eff1d82e926ec794901d17c78024a50270940304540a733656f0d8480a43880808380f35b839150346100fc576020908160031936011261012d57803590838052838352848420338552835260ff8585205416156104fd5781156104cc57507fadfa8ecb21b6962ebcd0adbd9ab985b7b4c5b5eb3b0dead683171565c7bfe17192938160015551908152a180f35b845162461bcd60e51b8152908101839052600b60248201526a07468726573686f6c643d360ac1b6044820152606490fd5b9050838361050a33610c4e565b908083519061051882610b5f565b604282528682019260603685378251156106ca57603084538251906001918210156106b75790607860218501536041915b81831161064c5750505061060b57836105db604888956105fd956105cc9560449a99519687936105a38b86019b76020b1b1b2b9b9a1b7b73a3937b61d1030b1b1b7bab73a1604d1b8d528251928391603789019101610b3c565b8401917001034b99036b4b9b9b4b733903937b6329607d1b603784015251809386840190610b3c565b01036028810185520183610b91565b5195869462461bcd60e51b865285015251809281602486015285850190610b3c565b601f01601f19168101030190fd5b606485878087519262461bcd60e51b845283015260248201527f537472696e67733a20686578206c656e67746820696e73756666696369656e746044820152fd5b909192600f811660108110156106a4576f181899199a1a9b1b9c1cb0b131b232b360811b901a61067c8587610c27565b53881c92801561069157600019019190610549565b634e487b7160e01b825260118952602482fd5b634e487b7160e01b835260328a52602483fd5b634e487b7160e01b815260328852602490fd5b634e487b7160e01b815260328752602490fd5b5050346100fc5760ff816020936106f3366107d0565b908252600286528282206001600160a01b039091168252855220549151911615158152f35b90503461012d57602036600319011261012d57816020936001923581528085522001549051908152f35b5050346100fc57816003193601126100fc57602090517fcab5a0bfe0b79d2c4b1c2e02599fa044d115b7511f9659307cb42769509677098152f35b84913461012d57602036600319011261012d573563ffffffff60e01b811680910361012d5760209250637965db0b60e01b81149081156107bf575b5015158152f35b6301ffc9a760e01b149050836107b8565b60409060031901126107f657600435906024356001600160a01b03811681036107f65790565b600080fd5b1561080257565b60405162461bcd60e51b815260206004820152600c60248201526b0d2dcecc2d8d2c840d0c2e6d60a31b6044820152606490fd5b3360009081527fe298cb3514b0702cec56ac2053c1ecb2187cfdc8a325f22a672bc5027eadc9e26020908152604080832054909291907fcab5a0bfe0b79d2c4b1c2e02599fa044d115b7511f9659307cb42769509677099060ff161561089c5750505050565b6108a533610c4e565b908451906108b282610b5f565b60428252838201946060368737825115610a1d5760308653825190600191821015610a1d5790607860218501536041915b8183116109af5750505061096d578461094960486105fd93604497985198899161093a8984019876020b1b1b2b9b9a1b7b73a3937b61d1030b1b1b7bab73a1604d1b8a526105a3815180928d603789019101610b3c565b01036028810189520187610b91565b5194859362461bcd60e51b8552600485015251809281602486015285850190610b3c565b60648386519062461bcd60e51b825280600483015260248201527f537472696e67733a20686578206c656e67746820696e73756666696369656e746044820152fd5b909192600f81166010811015610a09576f181899199a1a9b1b9c1cb0b131b232b360811b901a6109df8587610c27565b5360041c9280156109f5576000190191906108e3565b634e487b7160e01b82526011600452602482fd5b634e487b7160e01b83526032600452602483fd5b634e487b7160e01b81526032600452602490fd5b60008181526020818152604092838320338452825260ff848420541615610a585750505050565b610a6133610c4e565b90845190610a6e82610b5f565b60428252838201946060368737825115610a1d5760308653825190600191821015610a1d5790607860218501536041915b818311610af65750505061096d578461094960486105fd93604497985198899161093a8984019876020b1b1b2b9b9a1b7b73a3937b61d1030b1b1b7bab73a1604d1b8a526105a3815180928d603789019101610b3c565b909192600f81166010811015610a09576f181899199a1a9b1b9c1cb0b131b232b360811b901a610b268587610c27565b5360041c9280156109f557600019019190610a9f565b60005b838110610b4f5750506000910152565b8181015183820152602001610b3f565b6080810190811067ffffffffffffffff821117610b7b57604052565b634e487b7160e01b600052604160045260246000fd5b90601f8019910116810190811067ffffffffffffffff821117610b7b57604052565b9060009180835282602052604083209160018060a01b03169182845260205260ff604084205416610be357505050565b80835282602052604083208284526020526040832060ff1981541690557ff6391f5c32d9c69d2a47ea670b442974b53935d1edc7fd64eb21e047a839171b339380a4565b908151811015610c38570160200190565b634e487b7160e01b600052603260045260246000fd5b604051906060820182811067ffffffffffffffff821117610b7b57604052602a8252602082016040368237825115610c3857603090538151600190811015610c3857607860218401536029905b808211610cef575050610cab5790565b606460405162461bcd60e51b815260206004820152602060248201527f537472696e67733a20686578206c656e67746820696e73756666696369656e746044820152fd5b9091600f81166010811015610d48576f181899199a1a9b1b9c1cb0b131b232b360811b901a610d1e8486610c27565b5360041c918015610d33576000190190610c9b565b60246000634e487b7160e01b81526011600452fd5b60246000634e487b7160e01b81526032600452fdfea2646970667358221220244b24d4e7803b780d828aa27fd97f9324075a982f66680e438db2735abe895564736f6c634300081300332f8788117e7eff1d82e926ec794901d17c78024a50270940304540a733656f0d","linkReferences":{}},"methodIdentifiers":{"AGENT_ROLE()":"22459e18","DEFAULT_ADMIN_ROLE()":"a217fddf","approvalCounts(bytes32)":"8abed32b","approvals(bytes32,address)":"24f6c776","approve(bytes32)":"a53a1adf","getRoleAdmin(bytes32)":"248a9ca3","grantRole(bytes32,address)":"2f2ff15d","hasRole(bytes32,address)":"91d14854","isVerified(bytes32)":"c181b273","renounceRole(bytes32,address)":"36568abe","revoke(bytes32)":"b75c7dc6","revokeRole(bytes32,address)":"d547741f","setSignerThreshold(uint256)":"251b8192","signerThreshold()":"a4a4f390","supportsInterface(bytes4)":"01ffc9a7"},"id":2}