{"abi":[{"type":"constructor","inputs":[{"name":"_selfProtocol","type":"address","internalType":"address"},{"name":"_operatorRegistry","type":"address","internalType":"address"}],"stateMutability":"nonpayable"},{"type":"function","name":"MIN_ACTION_INTERVAL","inputs":[],"outputs":[{"name":"","type":"uint256","internalType":"uint256"}],"stateMutability":"view"},{"type":"function","name":"VERIFICATION_VALIDITY_PERIOD","inputs":[],"outputs":[{"name":"","type":"uint256","internalType":"uint256"}],"stateMutability":"view"},{"type":"function","name":"actions","inputs":[{"name":"","type":"bytes32","internalType":"bytes32"}],"outputs":[{"name":"citizen","type":"address","internalType":"address"},{"name":"actionHash","type":"bytes32","internalType":"bytes32"},{"name":"actionType","type":"uint8","internalType":"enum SelfIntegratedCivicVerifier.ActionType"},{"name":"districtHash","type":"bytes32","internalType":"bytes32"},{"name":"timestamp","type":"uint256","internalType":"uint256"},{"name":"metadata","type":"bytes","internalType":"bytes"},{"name":"verified","type":"bool","internalType":"bool"}],"stateMutability":"view"},{"type":"function","name":"addAuthorizedOperator","inputs":[{"name":"operator","type":"address","internalType":"address"}],"outputs":[],"stateMutability":"nonpayable"},{"type":"function","name":"authorizedOperators","inputs":[{"name":"","type":"address","internalType":"address"}],"outputs":[{"name":"","type":"bool","internalType":"bool"}],"stateMutability":"view"},{"type":"function","name":"citizenLastAction","inputs":[{"name":"","type":"address","internalType":"address"}],"outputs":[{"name":"","type":"uint256","internalType":"uint256"}],"stateMutability":"view"},{"type":"function","name":"cwcVerifications","inputs":[{"name":"","type":"bytes32","internalType":"bytes32"}],"outputs":[{"name":"messageId","type":"string","internalType":"string"},{"name":"deliveryProof","type":"bytes","internalType":"bytes"},{"name":"representativeId","type":"string","internalType":"string"},{"name":"deliveryTimestamp","type":"uint256","internalType":"uint256"}],"stateMutability":"view"},{"type":"function","name":"generateVerificationProof","inputs":[{"name":"actionHash","type":"bytes32","internalType":"bytes32"}],"outputs":[{"name":"","type":"bytes","internalType":"bytes"}],"stateMutability":"view"},{"type":"function","name":"getCivicAction","inputs":[{"name":"actionHash","type":"bytes32","internalType":"bytes32"}],"outputs":[{"name":"","type":"tuple","internalType":"struct SelfIntegratedCivicVerifier.CivicAction","components":[{"name":"citizen","type":"address","internalType":"address"},{"name":"actionHash","type":"bytes32","internalType":"bytes32"},{"name":"actionType","type":"uint8","internalType":"enum SelfIntegratedCivicVerifier.ActionType"},{"name":"districtHash","type":"bytes32","internalType":"bytes32"},{"name":"timestamp","type":"uint256","internalType":"uint256"},{"name":"metadata","type":"bytes","internalType":"bytes"},{"name":"verified","type":"bool","internalType":"bool"}]}],"stateMutability":"view"},{"type":"function","name":"isActionVerified","inputs":[{"name":"actionHash","type":"bytes32","internalType":"bytes32"}],"outputs":[{"name":"","type":"bool","internalType":"bool"}],"stateMutability":"view"},{"type":"function","name":"operatorRegistry","inputs":[],"outputs":[{"name":"","type":"address","internalType":"address"}],"stateMutability":"view"},{"type":"function","name":"removeAuthorizedOperator","inputs":[{"name":"operator","type":"address","internalType":"address"}],"outputs":[],"stateMutability":"nonpayable"},{"type":"function","name":"selfProtocol","inputs":[],"outputs":[{"name":"","type":"address","internalType":"contract ISelfProtocol"}],"stateMutability":"view"},{"type":"function","name":"submitCivicAction","inputs":[{"name":"actionHash","type":"bytes32","internalType":"bytes32"},{"name":"actionType","type":"uint8","internalType":"enum SelfIntegratedCivicVerifier.ActionType"},{"name":"districtHash","type":"bytes32","internalType":"bytes32"},{"name":"metadata","type":"bytes","internalType":"bytes"}],"outputs":[],"stateMutability":"nonpayable"},{"type":"function","name":"verifiedActions","inputs":[{"name":"","type":"bytes32","internalType":"bytes32"}],"outputs":[{"name":"","type":"bool","internalType":"bool"}],"stateMutability":"view"},{"type":"function","name":"verifyCivicAction","inputs":[{"name":"actionHash","type":"bytes32","internalType":"bytes32"},{"name":"cwcProof","type":"tuple","internalType":"struct SelfIntegratedCivicVerifier.CWCVerification","components":[{"name":"messageId","type":"string","internalType":"string"},{"name":"deliveryProof","type":"bytes","internalType":"bytes"},{"name":"representativeId","type":"string","internalType":"string"},{"name":"deliveryTimestamp","type":"uint256","internalType":"uint256"}]},{"name":"additionalProofs","type":"bytes","internalType":"bytes"}],"outputs":[],"stateMutability":"nonpayable"},{"type":"event","name":"ActionSubmitted","inputs":[{"name":"actionHash","type":"bytes32","indexed":true,"internalType":"bytes32"},{"name":"citizen","type":"address","indexed":true,"internalType":"address"},{"name":"actionType","type":"uint8","indexed":false,"internalType":"enum SelfIntegratedCivicVerifier.ActionType"},{"name":"timestamp","type":"uint256","indexed":false,"internalType":"uint256"}],"anonymous":false},{"type":"event","name":"ActionVerified","inputs":[{"name":"actionHash","type":"bytes32","indexed":true,"internalType":"bytes32"},{"name":"citizen","type":"address","indexed":true,"internalType":"address"},{"name":"actionType","type":"uint8","indexed":false,"internalType":"enum SelfIntegratedCivicVerifier.ActionType"},{"name":"timestamp","type":"uint256","indexed":false,"internalType":"uint256"}],"anonymous":false},{"type":"event","name":"CWCMessageVerified","inputs":[{"name":"actionHash","type":"bytes32","indexed":true,"internalType":"bytes32"},{"name":"messageId","type":"string","indexed":false,"internalType":"string"},{"name":"representativeId","type":"string","indexed":false,"internalType":"string"},{"name":"deliveryTimestamp","type":"uint256","indexed":false,"internalType":"uint256"}],"anonymous":false},{"type":"event","name":"VerificationFailed","inputs":[{"name":"actionHash","type":"bytes32","indexed":true,"internalType":"bytes32"},{"name":"citizen","type":"address","indexed":true,"internalType":"address"},{"name":"reason","type":"string","indexed":false,"internalType":"string"},{"name":"timestamp","type":"uint256","indexed":false,"internalType":"uint256"}],"anonymous":false}],"bytecode":{"object":"0x60a0346100be57601f62001c7638819003918201601f19168301916001600160401b038311848410176100c35780849260409485528339810103126100be57610053602061004c836100d9565b92016100d9565b6001600160a01b03918216608052600480546001600160a01b031916919092161790553360009081526005602052604090819020805460ff1916600117905551611b889081620000ee82396080518181816104360152818161085c0152818161105201526115ae0152f35b600080fd5b634e487b7160e01b600052604160045260246000fd5b51906001600160a01b03821682036100be5756fe608080604052600436101561001357600080fd5b60e090600035821c90816311d2b86b146116f557508063181d989b146116b25780633aaa1eea14611674578063404d2cf81461162357806356e5d4bd1461160657806358c2225b146115dd578063705ed2731461159857806393e30a6a14611579578063a616e45c14610fdf578063afd481f614610fae578063d3e6660514610fae578063d778532e14610789578063dae45bbf146106cf578063e31d4052146101d0578063e3f8a79c146101825763f3abde32146100d157600080fd5b3461017d57602036600319011261017d57600435600052600060205260406000209060018060a01b038254169061017160018401549360ff60028201541692600382015460048301549061015960ff60066040519661013e8861013781600585016118e1565b03896119cb565b01541696604051998a998a5260208a01526040890190611824565b606087015260808601528060a0860152840190611854565b90151560c08301520390f35b600080fd5b3461017d57602036600319011261017d576004356001600160a01b038181169182900361017d576101b890600454163314611b0d565b6000908152600560205260409020805460ff19169055005b503461017d5760208060031936011261017d57600435806000526001825260ff6040600020541615610694578060005260008252604060002060405161021581611977565b60018060a01b039081835416815260018301548582015260ff600284015416956102436040830197886119fa565b60ff600660038601549560609687860152600481015460808601526040516102798161027281600586016118e1565b03826119cb565b60a0860152015416151560c0830152846000526003865260406000206040516080810167ffffffffffffffff928282108483111761067e57816003926040526102d1607f19856102c984866118e1565b0301826119cb565b83526040516102e78161027281600186016118e1565b8a8401526040516102ff8161027281600286016118e1565b6040840152015486820152848451169851936004851015610668578590511660405161032a81611993565b600381528960005b898110610659575050604051610347816119af565b600b81526a0c2cecabedeeccae4be62760ab1b8b82015261036782611aca565b5261037181611aca565b5060405161037e816119af565b600a8152693ab9afb1b4ba34bd32b760b11b8b82015261039d82611aed565b526103a781611aed565b506040516103b4816119af565b60118152701c185cdcdc1bdc9d17dd995c9a599a5959607a1b8b8201526103da82611afd565b526103e481611afd565b5060405180926324d8366960e21b82526044820190600483015260406024830152825180915260648201908c8060648360051b8601019501926000915b83831061062c575050505050806000920381897f0000000000000000000000000000000000000000000000000000000000000000165afa928315610620576000936105ae575b505060405193878986015242604086015233871b878601526054855261048c85611993565b6040519761049989611977565b8852888801998a5260408801906104b090826119fa565b8688019182526080880192835260a088019542875260c089019586526040519a8b998b808c01525160408b015251168789015251608088016104f191611824565b51948260a088015285516101208801608090526101a0880161051291611854565b8887015161011f1991828a8203016101408b015261052f91611854565b604088015191898203016101608a015261054891611854565b95015161018087015251603f1994858782030160c088015261056991611854565b92519085015251918382030161010084015261058491611854565b03601f198101835261059690836119cb565b60405191818392835282016105aa91611854565b0390f35b909192503d806000843e6105c281846119cb565b820191898184031261017d57805191821161017d570181601f8201121561017d5780516105ee81611a06565b926105fc60405194856119cb565b8184528a828401011161017d57610618918a8085019101611831565b903880610467565b6040513d6000823e3d90fd5b809193955061064960019395976063198a82030186528851611854565b960192019201859391928e610421565b89828285010152018a90610332565b634e487b7160e01b600052602160045260246000fd5b634e487b7160e01b600052604160045260246000fd5b60405162461bcd60e51b81526004810183905260136024820152721058dd1a5bdb881b9bdd081d995c9a599a5959606a1b6044820152606490fd5b3461017d57602036600319011261017d57600435600052600360205261076360406000206040519061070c8261070581846118e1565b03836119cb565b61077f6040519161072b8361072481600185016118e1565b03846119cb565b61077160036040519261074c8461074581600285016118e1565b03856119cb565b015493604051968796608088526080880190611854565b908682036020880152611854565b908482036040860152611854565b9060608301520390f35b3461017d5760031960603682011261017d5760043590602491823567ffffffffffffffff9283821161017d5760808260040191833603011261017d57604491823585811161017d576107df903690600401611879565b5050336000526020926005845260ff6040600020541615610f6c57600085815280855260409020546001600160a01b039690871615610f3157856000526000855260ff60066040600020015416610eee5785600052600085528660406000205416966040516377be34cf60e11b815288600482015260a0818b81857f0000000000000000000000000000000000000000000000000000000000000000165afa91821561062057600092610e57575b5050604081015115159081610e48575b5015610dfa57856000526000855260ff600260406000200154166004811015610de55715610d57575b85151580610d4f575b15610cfc57856000526000855260066040600020019260019360ff19908582825416179055848752846040600020918254161790556000865260ff600260406000200154166004811015610ce75715610971575b87877f57e9f49bef17cc3e4f1e7c9cdeb54ba3789a34d0a506069a1ee6024bc6e0d46e604089836000526000815260ff6002836000200154169061096983518093611824565b4290820152a3005b8660005260039283875260406000209261098b8780611a76565b90828211610be55781906109a9826109a389546118a7565b89611a22565b600090601f8311600114610c8657600092610c7b575b505060001982881b1c191690871b1784555b8584016109e08c850189611a76565b90838211610c665781906109fe826109f886546118a7565b86611a22565b600090601f8311600114610c0557600092610bfa575b505060001982891b1c191690881b1790555b6002840191830195610a388789611a76565b928311610be5578a9b9c50610a54836109f8869d9c9d546118a7565b600090601f8411600114610b30579383807f57e9f49bef17cc3e4f1e7c9cdeb54ba3789a34d0a506069a1ee6024bc6e0d46e9d9b989560649560409e9c99957f1966a8163e57cd2496352b22dfa4ee3ae8c438022e676de3f1a3c397e7ef39b59c99600094610b25575b50501b9160001990881b1c19161790555b01359182910155610b11610aee610ae68580611a76565b949095611a76565b610b048a51968796606088526060880191611aa9565b918583038a870152611aa9565b90878301520390a290849392868080610923565b013592503880610abe565b601f93929319831691856000528c6000209260005b818110610bcd57509360409c9a97937f1966a8163e57cd2496352b22dfa4ee3ae8c438022e676de3f1a3c397e7ef39b59a97937f57e9f49bef17cc3e4f1e7c9cdeb54ba3789a34d0a506069a1ee6024bc6e0d46e9f9d9a97938360649810610bb5575b505050811b019055610acf565b0135600019838a1b60f8161c19169055388080610ba8565b8284013585558f9d5093860193918e01918e01610b45565b8c634e487b7160e01b60005260416004526000fd5b013590508e80610a14565b60008581528d81208c95509290601f198516908f5b828210610c4f5750508411610c37575b505050811b019055610a26565b0135600019838b1b60f8161c191690558e8080610c2a565b8385013586558e979095019492830192018f610c1a565b8d634e487b7160e01b60005260416004526000fd5b013590508d806109bf565b60008881528c81208b95509290601f198516908e5b828210610cd05750508411610cb8575b505050811b0184556109d1565b0135600019838a1b60f8161c191690558d8080610cab565b8385013586558d979095019492830192018e610c9b565b89634e487b7160e01b60005260216004526000fd5b60405162461bcd60e51b8152600481018690526027818a01527f416374696f6e2061757468656e74696369747920766572696669636174696f6e81840152660819985a5b195960ca1b6064820152608490fd5b5060016108cf565b610d618480611a76565b9050151580610dcf575b80610dc2575b6108c65760405162461bcd60e51b8152600481018690526021818a01527f435743206d6573736167652064656c6976657279206e6f74207665726966696581840152601960fa1b6064820152608490fd5b5060648301351515610d71565b50610ddc82840185611a76565b90501515610d6b565b88634e487b7160e01b60005260216004526000fd5b60405162461bcd60e51b8152600481018690526022818a01527f53656c662050726f746f636f6c20766572696669636174696f6e2065787069728184015261195960f21b6064820152608490fd5b6080915001514211158961089d565b90915060a0823d8211610ee6575b81610e7260a093836119cb565b8101031261017d576040519160a0830183811085821117610ed1576040528051918216820361017d5760809183528781015188840152610eb4604082016119ed565b60408401526060810151606084015201516080820152898061088d565b8b634e487b7160e01b60005260416004526000fd5b3d9150610e65565b60405162461bcd60e51b8152600481018690526017818a01527f416374696f6e20616c726561647920766572696669656400000000000000000081840152606490fd5b60405162461bcd60e51b8152600481018690526015818a0152741058dd1a5bdb88191bd95cc81b9bdd08195e1a5cdd605a1b81840152606490fd5b837f4e6f7420617574686f72697a6564206f70657261746f7200000000000000000060649260178a6040519462461bcd60e51b86526004860152840152820152fd5b3461017d57602036600319011261017d576004356000526001602052602060ff604060002054166040519015158152f35b3461017d57608036600319011261017d576004602435101561017d576064803567ffffffffffffffff811161017d5761101c903690600401611879565b916004351561154157600435600052600160205260ff6040600020541661150757604051631bc7e25f60e11b81523360048201527f00000000000000000000000000000000000000000000000000000000000000006001600160a01b031690602081602481855afa908115610620576000916114cd575b501561149357336000526002602052604060002054610e10810180911161147d574210611444576040516328a39a4360e11b815233600482015260126024820152602081604481855afa9081156106205760009161140a575b50156113c75760206044916040519283809263e06f553d60e01b825233600483015261555360f01b60248301525afa9081156106205760009161138d575b501561135657506040519161113e83611977565b3383526004356020840152611158602435604085016119fa565b604435606084015242608084015261116f81611a06565b9161117d60405193846119cb565b818352368282011161017d5781600092602092838601378301015260a0820152600060c08201526004356000526000602052604060002060018060a01b038251166bffffffffffffffffffffffff60a01b82541617815560208201516001820155600281019060408301519160048310156106685760ff199260ff84835416911617905560608301516003820155608083015160048201556005810160a084015180519067ffffffffffffffff821161067e576112448261123e85546118a7565b85611a22565b602090601f83116001146112e657928260069360ff969360c0966000926112db575b50508160011b916000199060031b1c19161790555b019301511515918354169116179055336000526002602052426040600020556040516112a981602435611824565b42602082015233907f4c31e150a6fc6d52f1b1a86fc0d8baf9875e3adeaf8fae772fab45eeebe39c93604060043592a3005b015190508980611266565b90601f198316918460005260206000209260005b81811061133e57509360ff969360c096936001938360069810611325575b505050811b01905561127b565b015160001960f88460031b161c19169055898080611318565b929360206001819287860151815501950193016112fa565b60405162461bcd60e51b815260206004820152601260248201527126bab9ba103132902aa99031b4ba34bd32b760711b6044820152fd5b90506020813d6020116113bf575b816113a8602093836119cb565b8101031261017d576113b9906119ed565b8461112a565b3d915061139b565b5060405162461bcd60e51b815260206004820152601a60248201527f4d7573742062652031382b20746f2070617274696369706174650000000000006044820152fd5b90506020813d60201161143c575b81611425602093836119cb565b8101031261017d57611436906119ed565b856110ec565b3d9150611418565b5060405162461bcd60e51b81526020600482015260136024820152721058dd1a5bdb881d1bdbc8199c995c5d595b9d606a1b6044820152fd5b634e487b7160e01b600052601160045260246000fd5b5060405162461bcd60e51b815260206004820152601460248201527310da5d1a5e995b881b9bdd081d995c9a599a595960621b6044820152fd5b90506020813d6020116114ff575b816114e8602093836119cb565b8101031261017d576114f9906119ed565b85611093565b3d91506114db565b60405162461bcd60e51b8152602060048201526015602482015274416374696f6e20616c72656164792065786973747360581b6044820152fd5b60405162461bcd60e51b8152602060048201526013602482015272092dcecc2d8d2c840c2c6e8d2dedc40d0c2e6d606b1b6044820152fd5b3461017d57600036600319011261017d5760206040516301e133808152f35b3461017d57600036600319011261017d576040517f00000000000000000000000000000000000000000000000000000000000000006001600160a01b03168152602090f35b3461017d57600036600319011261017d576004546040516001600160a01b039091168152602090f35b3461017d57600036600319011261017d576020604051610e108152f35b3461017d57602036600319011261017d576004356001600160a01b038181169182900361017d5761165990600454163314611b0d565b6000908152600560205260409020805460ff19166001179055005b3461017d57602036600319011261017d576004356001600160a01b0381169081900361017d5760005260026020526020604060002054604051908152f35b3461017d57602036600319011261017d576004356001600160a01b0381169081900361017d576000526005602052602060ff604060002054166040519015158152f35b823461017d576020918260031936011261017d5760c081611717600093611977565b8281528285820152826040820152826060820152826080820152606060a08201520152600435600052600082526040600020916040519161175783611977565b61181860018060a01b0394858154168552600181015484860190815260ff6002830154166117896040880191826119fa565b6117fa6003840154916060890192835260048501549360808a0194855260ff6006604051976117c6896117bf81600585016118e1565b038a6119cb565b60a08d019889520154169860c08b019915158a526040519b8c9b828d525116908b01525160408a0152516060890190611824565b5160808701525160a0860152518260c0860152610100850190611854565b91511515908301520390f35b9060048210156106685752565b60005b8381106118445750506000910152565b8181015183820152602001611834565b9060209161186d81518092818552858086019101611831565b601f01601f1916010190565b9181601f8401121561017d5782359167ffffffffffffffff831161017d576020838186019501011161017d57565b90600182811c921680156118d7575b60208310146118c157565b634e487b7160e01b600052602260045260246000fd5b91607f16916118b6565b90600092918054916118f2836118a7565b9182825260019384811690816000146119545750600114611914575b50505050565b90919394506000526020928360002092846000945b83861061194057505050500101903880808061190e565b805485870183015294019385908201611929565b9294505050602093945060ff191683830152151560051b0101903880808061190e565b60e0810190811067ffffffffffffffff82111761067e57604052565b6080810190811067ffffffffffffffff82111761067e57604052565b6040810190811067ffffffffffffffff82111761067e57604052565b90601f8019910116810190811067ffffffffffffffff82111761067e57604052565b5190811515820361017d57565b60048210156106685752565b67ffffffffffffffff811161067e57601f01601f191660200190565b90601f8111611a3057505050565b600091825260208220906020601f850160051c83019410611a6c575b601f0160051c01915b828110611a6157505050565b818155600101611a55565b9092508290611a4c565b903590601e198136030182121561017d570180359067ffffffffffffffff821161017d5760200191813603831361017d57565b908060209392818452848401376000828201840152601f01601f1916010190565b805115611ad75760200190565b634e487b7160e01b600052603260045260246000fd5b805160011015611ad75760400190565b805160021015611ad75760600190565b15611b1457565b60405162461bcd60e51b81526020600482015260166024820152754f6e6c79206f70657261746f7220726567697374727960501b6044820152606490fdfea2646970667358221220706837bd68226f0f0d8970ef7c369ef8cbea41232377150bdaa880fcc304cdf764736f6c63430008130033","linkReferences":{}},"methodIdentifiers":{"MIN_ACTION_INTERVAL()":"56e5d4bd","VERIFICATION_VALIDITY_PERIOD()":"93e30a6a","actions(bytes32)":"f3abde32","addAuthorizedOperator(address)":"404d2cf8","authorizedOperators(address)":"181d989b","citizenLastAction(address)":"3aaa1eea","cwcVerifications(bytes32)":"dae45bbf","generateVerificationProof(bytes32)":"e31d4052","getCivicAction(bytes32)":"11d2b86b","isActionVerified(bytes32)":"d3e66605","operatorRegistry()":"58c2225b","removeAuthorizedOperator(address)":"e3f8a79c","selfProtocol()":"705ed273","submitCivicAction(bytes32,uint8,bytes32,bytes)":"a616e45c","verifiedActions(bytes32)":"afd481f6","verifyCivicAction(bytes32,(string,bytes,string,uint256),bytes)":"d778532e"},"id":2}