{"abi":[{"type":"constructor","inputs":[],"stateMutability":"nonpayable"},{"type":"function","name":"ADMIN_ROLE","inputs":[],"outputs":[{"name":"","type":"bytes32","internalType":"bytes32"}],"stateMutability":"view"},{"type":"function","name":"BASE_APR","inputs":[],"outputs":[{"name":"","type":"uint256","internalType":"uint256"}],"stateMutability":"view"},{"type":"function","name":"BURNER_ROLE","inputs":[],"outputs":[{"name":"","type":"bytes32","internalType":"bytes32"}],"stateMutability":"view"},{"type":"function","name":"CLOCK_MODE","inputs":[],"outputs":[{"name":"","type":"string","internalType":"string"}],"stateMutability":"view"},{"type":"function","name":"DEFAULT_ADMIN_ROLE","inputs":[],"outputs":[{"name":"","type":"bytes32","internalType":"bytes32"}],"stateMutability":"view"},{"type":"function","name":"DOMAIN_SEPARATOR","inputs":[],"outputs":[{"name":"","type":"bytes32","internalType":"bytes32"}],"stateMutability":"view"},{"type":"function","name":"INITIAL_MINT_CAP","inputs":[],"outputs":[{"name":"","type":"uint256","internalType":"uint256"}],"stateMutability":"view"},{"type":"function","name":"MAX_STAKE_DURATION","inputs":[],"outputs":[{"name":"","type":"uint256","internalType":"uint256"}],"stateMutability":"view"},{"type":"function","name":"MINTER_ROLE","inputs":[],"outputs":[{"name":"","type":"bytes32","internalType":"bytes32"}],"stateMutability":"view"},{"type":"function","name":"MIN_STAKE_DURATION","inputs":[],"outputs":[{"name":"","type":"uint256","internalType":"uint256"}],"stateMutability":"view"},{"type":"function","name":"addToRewardPool","inputs":[{"name":"amount","type":"uint256","internalType":"uint256"}],"outputs":[],"stateMutability":"nonpayable"},{"type":"function","name":"allowance","inputs":[{"name":"owner","type":"address","internalType":"address"},{"name":"spender","type":"address","internalType":"address"}],"outputs":[{"name":"","type":"uint256","internalType":"uint256"}],"stateMutability":"view"},{"type":"function","name":"approve","inputs":[{"name":"spender","type":"address","internalType":"address"},{"name":"amount","type":"uint256","internalType":"uint256"}],"outputs":[{"name":"","type":"bool","internalType":"bool"}],"stateMutability":"nonpayable"},{"type":"function","name":"balanceOf","inputs":[{"name":"account","type":"address","internalType":"address"}],"outputs":[{"name":"","type":"uint256","internalType":"uint256"}],"stateMutability":"view"},{"type":"function","name":"burn","inputs":[{"name":"amount","type":"uint256","internalType":"uint256"}],"outputs":[],"stateMutability":"nonpayable"},{"type":"function","name":"checkpoints","inputs":[{"name":"account","type":"address","internalType":"address"},{"name":"pos","type":"uint32","internalType":"uint32"}],"outputs":[{"name":"","type":"tuple","internalType":"struct ERC20Votes.Checkpoint","components":[{"name":"fromBlock","type":"uint32","internalType":"uint32"},{"name":"votes","type":"uint224","internalType":"uint224"}]}],"stateMutability":"view"},{"type":"function","name":"civicActions","inputs":[{"name":"","type":"address","internalType":"address"}],"outputs":[{"name":"","type":"uint256","internalType":"uint256"}],"stateMutability":"view"},{"type":"function","name":"clock","inputs":[],"outputs":[{"name":"","type":"uint48","internalType":"uint48"}],"stateMutability":"view"},{"type":"function","name":"decimals","inputs":[],"outputs":[{"name":"","type":"uint8","internalType":"uint8"}],"stateMutability":"view"},{"type":"function","name":"decreaseAllowance","inputs":[{"name":"spender","type":"address","internalType":"address"},{"name":"subtractedValue","type":"uint256","internalType":"uint256"}],"outputs":[{"name":"","type":"bool","internalType":"bool"}],"stateMutability":"nonpayable"},{"type":"function","name":"delegate","inputs":[{"name":"delegatee","type":"address","internalType":"address"}],"outputs":[],"stateMutability":"nonpayable"},{"type":"function","name":"delegateBySig","inputs":[{"name":"delegatee","type":"address","internalType":"address"},{"name":"nonce","type":"uint256","internalType":"uint256"},{"name":"expiry","type":"uint256","internalType":"uint256"},{"name":"v","type":"uint8","internalType":"uint8"},{"name":"r","type":"bytes32","internalType":"bytes32"},{"name":"s","type":"bytes32","internalType":"bytes32"}],"outputs":[],"stateMutability":"nonpayable"},{"type":"function","name":"delegates","inputs":[{"name":"account","type":"address","internalType":"address"}],"outputs":[{"name":"","type":"address","internalType":"address"}],"stateMutability":"view"},{"type":"function","name":"eip712Domain","inputs":[],"outputs":[{"name":"fields","type":"bytes1","internalType":"bytes1"},{"name":"name","type":"string","internalType":"string"},{"name":"version","type":"string","internalType":"string"},{"name":"chainId","type":"uint256","internalType":"uint256"},{"name":"verifyingContract","type":"address","internalType":"address"},{"name":"salt","type":"bytes32","internalType":"bytes32"},{"name":"extensions","type":"uint256[]","internalType":"uint256[]"}],"stateMutability":"view"},{"type":"function","name":"getPastTotalSupply","inputs":[{"name":"timepoint","type":"uint256","internalType":"uint256"}],"outputs":[{"name":"","type":"uint256","internalType":"uint256"}],"stateMutability":"view"},{"type":"function","name":"getPastVotes","inputs":[{"name":"account","type":"address","internalType":"address"},{"name":"timepoint","type":"uint256","internalType":"uint256"}],"outputs":[{"name":"","type":"uint256","internalType":"uint256"}],"stateMutability":"view"},{"type":"function","name":"getRoleAdmin","inputs":[{"name":"role","type":"bytes32","internalType":"bytes32"}],"outputs":[{"name":"","type":"bytes32","internalType":"bytes32"}],"stateMutability":"view"},{"type":"function","name":"getTotalStaked","inputs":[{"name":"user","type":"address","internalType":"address"}],"outputs":[{"name":"","type":"uint256","internalType":"uint256"}],"stateMutability":"view"},{"type":"function","name":"getVotes","inputs":[{"name":"account","type":"address","internalType":"address"}],"outputs":[{"name":"","type":"uint256","internalType":"uint256"}],"stateMutability":"view"},{"type":"function","name":"grantRole","inputs":[{"name":"role","type":"bytes32","internalType":"bytes32"},{"name":"account","type":"address","internalType":"address"}],"outputs":[],"stateMutability":"nonpayable"},{"type":"function","name":"hasRole","inputs":[{"name":"role","type":"bytes32","internalType":"bytes32"},{"name":"account","type":"address","internalType":"address"}],"outputs":[{"name":"","type":"bool","internalType":"bool"}],"stateMutability":"view"},{"type":"function","name":"increaseAllowance","inputs":[{"name":"spender","type":"address","internalType":"address"},{"name":"addedValue","type":"uint256","internalType":"uint256"}],"outputs":[{"name":"","type":"bool","internalType":"bool"}],"stateMutability":"nonpayable"},{"type":"function","name":"mintForCivicAction","inputs":[{"name":"to","type":"address","internalType":"address"},{"name":"amount","type":"uint256","internalType":"uint256"},{"name":"actionType","type":"string","internalType":"string"}],"outputs":[],"stateMutability":"nonpayable"},{"type":"function","name":"name","inputs":[],"outputs":[{"name":"","type":"string","internalType":"string"}],"stateMutability":"view"},{"type":"function","name":"nonces","inputs":[{"name":"owner","type":"address","internalType":"address"}],"outputs":[{"name":"","type":"uint256","internalType":"uint256"}],"stateMutability":"view"},{"type":"function","name":"numCheckpoints","inputs":[{"name":"account","type":"address","internalType":"address"}],"outputs":[{"name":"","type":"uint32","internalType":"uint32"}],"stateMutability":"view"},{"type":"function","name":"pause","inputs":[],"outputs":[],"stateMutability":"nonpayable"},{"type":"function","name":"paused","inputs":[],"outputs":[{"name":"","type":"bool","internalType":"bool"}],"stateMutability":"view"},{"type":"function","name":"permit","inputs":[{"name":"owner","type":"address","internalType":"address"},{"name":"spender","type":"address","internalType":"address"},{"name":"value","type":"uint256","internalType":"uint256"},{"name":"deadline","type":"uint256","internalType":"uint256"},{"name":"v","type":"uint8","internalType":"uint8"},{"name":"r","type":"bytes32","internalType":"bytes32"},{"name":"s","type":"bytes32","internalType":"bytes32"}],"outputs":[],"stateMutability":"nonpayable"},{"type":"function","name":"renounceRole","inputs":[{"name":"role","type":"bytes32","internalType":"bytes32"},{"name":"account","type":"address","internalType":"address"}],"outputs":[],"stateMutability":"nonpayable"},{"type":"function","name":"revokeRole","inputs":[{"name":"role","type":"bytes32","internalType":"bytes32"},{"name":"account","type":"address","internalType":"address"}],"outputs":[],"stateMutability":"nonpayable"},{"type":"function","name":"rewardPool","inputs":[],"outputs":[{"name":"","type":"uint256","internalType":"uint256"}],"stateMutability":"view"},{"type":"function","name":"stake","inputs":[{"name":"amount","type":"uint256","internalType":"uint256"},{"name":"duration","type":"uint256","internalType":"uint256"}],"outputs":[],"stateMutability":"nonpayable"},{"type":"function","name":"stakingRewards","inputs":[{"name":"","type":"address","internalType":"address"}],"outputs":[{"name":"","type":"uint256","internalType":"uint256"}],"stateMutability":"view"},{"type":"function","name":"supportsInterface","inputs":[{"name":"interfaceId","type":"bytes4","internalType":"bytes4"}],"outputs":[{"name":"","type":"bool","internalType":"bool"}],"stateMutability":"view"},{"type":"function","name":"symbol","inputs":[],"outputs":[{"name":"","type":"string","internalType":"string"}],"stateMutability":"view"},{"type":"function","name":"totalStaked","inputs":[],"outputs":[{"name":"","type":"uint256","internalType":"uint256"}],"stateMutability":"view"},{"type":"function","name":"totalSupply","inputs":[],"outputs":[{"name":"","type":"uint256","internalType":"uint256"}],"stateMutability":"view"},{"type":"function","name":"transfer","inputs":[{"name":"to","type":"address","internalType":"address"},{"name":"amount","type":"uint256","internalType":"uint256"}],"outputs":[{"name":"","type":"bool","internalType":"bool"}],"stateMutability":"nonpayable"},{"type":"function","name":"transferFrom","inputs":[{"name":"from","type":"address","internalType":"address"},{"name":"to","type":"address","internalType":"address"},{"name":"amount","type":"uint256","internalType":"uint256"}],"outputs":[{"name":"","type":"bool","internalType":"bool"}],"stateMutability":"nonpayable"},{"type":"function","name":"unpause","inputs":[],"outputs":[],"stateMutability":"nonpayable"},{"type":"function","name":"unstake","inputs":[{"name":"stakeIndex","type":"uint256","internalType":"uint256"}],"outputs":[],"stateMutability":"nonpayable"},{"type":"function","name":"userStakes","inputs":[{"name":"","type":"address","internalType":"address"},{"name":"","type":"uint256","internalType":"uint256"}],"outputs":[{"name":"amount","type":"uint256","internalType":"uint256"},{"name":"timestamp","type":"uint256","internalType":"uint256"},{"name":"lockDuration","type":"uint256","internalType":"uint256"},{"name":"withdrawn","type":"bool","internalType":"bool"}],"stateMutability":"view"},{"type":"event","name":"Approval","inputs":[{"name":"owner","type":"address","indexed":true,"internalType":"address"},{"name":"spender","type":"address","indexed":true,"internalType":"address"},{"name":"value","type":"uint256","indexed":false,"internalType":"uint256"}],"anonymous":false},{"type":"event","name":"DelegateChanged","inputs":[{"name":"delegator","type":"address","indexed":true,"internalType":"address"},{"name":"fromDelegate","type":"address","indexed":true,"internalType":"address"},{"name":"toDelegate","type":"address","indexed":true,"internalType":"address"}],"anonymous":false},{"type":"event","name":"DelegateVotesChanged","inputs":[{"name":"delegate","type":"address","indexed":true,"internalType":"address"},{"name":"previousBalance","type":"uint256","indexed":false,"internalType":"uint256"},{"name":"newBalance","type":"uint256","indexed":false,"internalType":"uint256"}],"anonymous":false},{"type":"event","name":"EIP712DomainChanged","inputs":[],"anonymous":false},{"type":"event","name":"Paused","inputs":[{"name":"account","type":"address","indexed":false,"internalType":"address"}],"anonymous":false},{"type":"event","name":"RoleAdminChanged","inputs":[{"name":"role","type":"bytes32","indexed":true,"internalType":"bytes32"},{"name":"previousAdminRole","type":"bytes32","indexed":true,"internalType":"bytes32"},{"name":"newAdminRole","type":"bytes32","indexed":true,"internalType":"bytes32"}],"anonymous":false},{"type":"event","name":"RoleGranted","inputs":[{"name":"role","type":"bytes32","indexed":true,"internalType":"bytes32"},{"name":"account","type":"address","indexed":true,"internalType":"address"},{"name":"sender","type":"address","indexed":true,"internalType":"address"}],"anonymous":false},{"type":"event","name":"RoleRevoked","inputs":[{"name":"role","type":"bytes32","indexed":true,"internalType":"bytes32"},{"name":"account","type":"address","indexed":true,"internalType":"address"},{"name":"sender","type":"address","indexed":true,"internalType":"address"}],"anonymous":false},{"type":"event","name":"TokensEarned","inputs":[{"name":"citizen","type":"address","indexed":true,"internalType":"address"},{"name":"amount","type":"uint256","indexed":false,"internalType":"uint256"},{"name":"actionType","type":"string","indexed":false,"internalType":"string"}],"anonymous":false},{"type":"event","name":"TokensStaked","inputs":[{"name":"user","type":"address","indexed":true,"internalType":"address"},{"name":"amount","type":"uint256","indexed":false,"internalType":"uint256"},{"name":"duration","type":"uint256","indexed":false,"internalType":"uint256"}],"anonymous":false},{"type":"event","name":"TokensUnstaked","inputs":[{"name":"user","type":"address","indexed":true,"internalType":"address"},{"name":"amount","type":"uint256","indexed":false,"internalType":"uint256"},{"name":"rewards","type":"uint256","indexed":false,"internalType":"uint256"}],"anonymous":false},{"type":"event","name":"Transfer","inputs":[{"name":"from","type":"address","indexed":true,"internalType":"address"},{"name":"to","type":"address","indexed":true,"internalType":"address"},{"name":"value","type":"uint256","indexed":false,"internalType":"uint256"}],"anonymous":false},{"type":"event","name":"Unpaused","inputs":[{"name":"account","type":"address","indexed":false,"internalType":"address"}],"anonymous":false},{"type":"error","name":"InvalidShortString","inputs":[]},{"type":"error","name":"StringTooLong","inputs":[{"name":"str","type":"string","internalType":"string"}]}],"bytecode":{"object":"0x610160604052346200022b57620000156200029d565b6200001f6200029d565b906200002a62000273565b9160209264434956494360d81b848201526200004562000288565b603160f81b858201908152835190939192916001600160401b03821162000225576200007e8262000078600354620002d8565b62000315565b8690601f83116001146200019557620000b89392916000918362000189575b50508160011b916000199060031b1c19161760035562000479565b620000c38362000dbd565b92610120938452620000d58262000ed0565b94610140958652815191012060e052519020916101009283524660a052620000fc62001081565b6080523060c0526200010e6001600d55565b6200011e60ff19600e5416600e55565b62000129336200056c565b6200013433620005ff565b6200013f336200071a565b60405191613ad493846200125985396080518461352e015260a051846135e9015260c051846134f8015260e0518461357d015251836135a301525182611288015251816112b10152f35b0151905038806200009d565b6003600052601f19831691907fc2575a0e9e593c00f959f8c92f12db2869c3395a3b0502d05e2516446f71f85b9260005b8a8282106200020e575050916001939185620000b897969410620001f4575b505050811b0160035562000479565b015160001960f88460031b161c19169055388080620001e5565b6001859682939686015181550195019301620001c6565b62000230565b600080fd5b634e487b7160e01b600052604160045260246000fd5b604081019081106001600160401b038211176200022557604052565b60405190620002718262000246565b565b60405190620002828262000246565b60058252565b60405190620002978262000246565b60018252565b60405190620002ac8262000246565b601682527f434956494320476f7665726e616e636520546f6b656e000000000000000000006020830152565b90600182811c921680156200030a575b6020831014620002f457565b634e487b7160e01b600052602260045260246000fd5b91607f1691620002e8565b601f811162000322575050565b6000906003825260208220906020601f850160051c8301941062000363575b601f0160051c01915b8281106200035757505050565b8181556001016200034a565b909250829062000341565b601f81116200037b575050565b6000906004825260208220906020601f850160051c83019410620003bc575b601f0160051c01915b828110620003b057505050565b818155600101620003a3565b90925082906200039a565b601f8111620003d4575050565b6000906005825260208220906020601f850160051c8301941062000415575b601f0160051c01915b8281106200040957505050565b818155600101620003fc565b9092508290620003f3565b601f81116200042d575050565b6000906006825260208220906020601f850160051c830194106200046e575b601f0160051c01915b8281106200046257505050565b81815560010162000455565b90925082906200044c565b80519091906001600160401b0381116200022557620004a5816200049f600454620002d8565b6200036e565b602080601f8311600114620004e45750819293600092620004d8575b50508160011b916000199060031b1c191617600455565b015190503880620004c1565b6004600052601f198316949091907f8a35acfbc15ff81a39ae7d344fd709f28e8600b4aa8c65c6b64bfe7fe36bd19b926000905b8782106200055357505083600195961062000539575b505050811b01600455565b015160001960f88460031b161c191690553880806200052e565b8060018596829496860151815501950193019062000518565b6001600160a01b03811660009081527f13649b2456f1b42fef0f0040b3aaeabcd21a76a0f3f5defd4f583839455116e8602052604081205460ff1615620005b1575050565b808052600c602090815260408083206001600160a01b038516600090815292529020805460ff1916600117905533916001600160a01b03169060008051602062004d2d8339815191528180a4565b6001600160a01b03811660009081527e3ceef2c1db83b6787a5c41679a318a5ac9afba2aefaa5b63262a742c74a3a860205260408120547fa49807205ce4d355092ef5a8a18f56e8913cf4a201fbe287825b095693c217759060ff16156200066657505050565b808252600c602090815260408084206001600160a01b038616600090815292529020805460ff1916600117905533926001600160a01b03169160008051602062004d2d8339815191529080a4565b15620006bc57565b60405162461bcd60e51b815260206004820152603060248201527f4552433230566f7465733a20746f74616c20737570706c79207269736b73206f60448201526f766572666c6f77696e6720766f74657360801b6064820152608490fd5b6001600160a01b038116908115620007ea57620007c4916200073b62000864565b620007516200074c60025462000845565b600255565b6001600160a01b03821660009081526020819052604090206a52b7d2dcc80cd2e4000000815401905560007fddf252ad1be2c89b69c2b068fc378daa952ba7f163c4a11628f55a4df523b3ef60405180620007bb81906a52b7d2dcc80cd2e4000000602083019252565b0390a3620008a9565b600254620007dc906001600160e01b031015620006b4565b620007e662000aac565b5050565b60405162461bcd60e51b815260206004820152601f60248201527f45524332303a206d696e7420746f20746865207a65726f2061646472657373006044820152606490fd5b634e487b7160e01b600052601160045260246000fd5b906a52b7d2dcc80cd2e400000082018092116200085e57565b6200082f565b60ff600e54166200087157565b60405162461bcd60e51b815260206004820152601060248201526f14185d5cd8589b194e881c185d5cd95960821b6044820152606490fd5b60096020527fec8156718a8372b1db44bb411437d0870f3e3790d4a08526d024ce1b0b668f6b546001600160a01b039182166000908152604081205483169290911690818314158062000999575b6200090157505050565b816200095a575b505080620009135750565b6001600160a01b0381166000908152600a6020526040902060008051602062004d4d83398151915290620009479062000d53565b60408051928352602083019190915290a2565b620009806040828460008051602062004d4d8339815191529452600a6020522062000c32565b60408051928352602083019190915290a2388062000908565b506001620008f7565b604080519192919081016001600160401b038111828210176200022557604052602081935463ffffffff81168352811c910152565b600b54906801000000000000000082101562000225576001820180600b5582101562000a4557600b600052805160209182015190911b63ffffffff191663ffffffff91909116177f0175b7a638427703f0dbe7bb9bbf987a2551717b34e79f33b5b1008d1fa01db990910155565b634e487b7160e01b600052603260045260246000fd5b9081546801000000000000000081101562000225576001810180845581101562000a4557600092835260209283902082519284015190931b63ffffffff191663ffffffff9290921691909117910155565b600b5490811590811562000bf35762000ac462000262565b6000815260006020820152925b602084015162000af1906001600160e01b03165b6001600160e01b031690565b9362000afd8562001225565b9315908162000bcc575b501562000b6457620002719062000b4d62000b2285620010ed565b600b600052917f0175b7a638427703f0dbe7bb9bbf987a2551717b34e79f33b5b1008d1fa01db80190565b9063ffffffff82549181199060201b169116179055565b506200027162000b8d62000b8762000b7c4362001157565b65ffffffffffff1690565b620011bf565b62000bc662000b9c85620010ed565b62000bb662000baa62000262565b63ffffffff9094168452565b6001600160e01b03166020830152565b620009d7565b5163ffffffff16905063ffffffff62000be962000b7c4362001157565b9116143862000b07565b600b60005262000c2b7f0175b7a638427703f0dbe7bb9bbf987a2551717b34e79f33b5b1008d1fa01db88401620009a2565b620009a2565b9262000ad1565b805491821591821562000d325762000c4962000262565b6000815260006020820152935b602085015162000c6f906001600160e01b031662000ae5565b9462000c7b866200123e565b9415908162000d0b575b501562000cb25762000b4d620002719262000ca086620010ed565b92600019019060005260206000200190565b50620002719062000ccb62000b8762000b7c4362001157565b9062000d0562000cdb86620010ed565b62000cf562000ce962000262565b63ffffffff9095168552565b6001600160e01b03166020840152565b62000a5b565b5163ffffffff16905063ffffffff62000d2862000b7c4362001157565b9116143862000c85565b62000d4c62000c2560001986018360005260206000200190565b9362000c56565b805491821591821562000d9c5762000d6a62000262565b6000815260006020820152935b602085015162000d90906001600160e01b031662000ae5565b9462000c7b8662001225565b62000db662000c2560001986018360005260206000200190565b9362000d77565b908151602080821060001462000dde5750509062000ddb9062001004565b90565b6001600160401b038211620002255762000e058262000dff600554620002d8565b620003c7565b80601f831160011462000e45575081929360009262000e39575b50508160011b916000199060031b1c19161760055560ff90565b01519050388062000e1f565b6005600052601f198316949091907f036b6384b5eca791c62761152d0c79bb0604c104a5fb6f4eb0703f3154bb3db0926000905b87821062000eb757505083600195961062000e9d575b505050811b0160055560ff90565b015160001960f88460031b161c1916905538808062000e8f565b8060018596829496860151815501950193019062000e79565b908151602080821060001462000eee5750509062000ddb9062001004565b6001600160401b038211620002255762000f158262000f0f600654620002d8565b62000420565b80601f831160011462000f55575081929360009262000f49575b50508160011b916000199060031b1c19161760065560ff90565b01519050388062000f2f565b6006600052601f198316949091907ff652222313e28459528d920b65115c16c04f3efc82aaedc97be59f3f377c0d3f926000905b87821062000fc757505083600195961062000fad575b505050811b0160065560ff90565b015160001960f88460031b161c1916905538808062000f9f565b8060018596829496860151815501950193019062000f89565b60208151910151906020811062000ff5575090565b6000199060200360031b1b1690565b601f8151116200101f57620010198162000fe0565b90511790565b6040519063305a27a960e01b82528160208060048301528251908160248401526000935b82851062001067575050604492506000838284010152601f80199101168101030190fd5b848101820151868601604401529381019385935062001043565b60e051610100516040519060208201927f8b73c3c69bb8fe3d512ecc4cf759cc79239f7b179b0ffacaa9a75d522b39400f8452604083015260608201524660808201523060a082015260a0815260c0810181811060018060401b03821117620002255760405251902090565b6001600160e01b039081811162001102571690565b60405162461bcd60e51b815260206004820152602760248201527f53616665436173743a2076616c756520646f65736e27742066697420696e20326044820152663234206269747360c81b6064820152608490fd5b65ffffffffffff908181116200116b571690565b60405162461bcd60e51b815260206004820152602660248201527f53616665436173743a2076616c756520646f65736e27742066697420696e203460448201526538206269747360d01b6064820152608490fd5b63ffffffff90818111620011d1571690565b60405162461bcd60e51b815260206004820152602660248201527f53616665436173743a2076616c756520646f65736e27742066697420696e203360448201526532206269747360d01b6064820152608490fd5b6a52b7d2dcc80cd2e400000081018091116200085e5790565b6a52b7d2dcc80cd2e3ffffff1981019081116200085e579056fe6080604052600436101561001257600080fd5b60003560e01c806301ffc9a71461036757806306fdde0314610362578063095ea7b31461035d5780630b7fc36b1461035857806318160ddd1461035357806323b872dd1461034e578063248a9ca314610349578063282c51f3146103445780632e17de781461033f5780632f2ff15d1461033a578063313ce567146103355780633644e5151461033057806336568abe1461032b57806339509351146103265780633a46b1a8146103215780633f4ba83a1461031c57806342966c6814610317578063499d7f96146103125780634bf5d7e91461030d578063587cde1e146103085780635c19a95c146103035780635c975abb146102fe57806366666aa9146102f95780636fcfff45146102f457806370a08231146102ef57806375b238fc146102ea5780637b0472f0146102e55780637ecebe00146102e0578063817b1cd2146102db57806381cad434146102d65780638456cb59146102d157806384b0196e146102cc5780638e539e8c146102c757806391d14854146102c257806391ddadf4146102bd57806395d89b41146102b85780639ab24eb0146102b3578063a217fddf146102ae578063a457c2d7146102a9578063a5b626bf146102a4578063a9059cbb1461029f578063aa902b4d1461029a578063b5d5b5fa14610295578063b95ffbce14610290578063c3cda5201461028b578063d505accf14610286578063d539139314610281578063d547741f1461027c578063dd2a8b1114610277578063dd62ed3e14610272578063e0c570ba1461026d578063e4fd18c9146102685763f1127ed81461026357600080fd5b611c83565b611c66565b611c48565b611bf0565b611b35565b611af6565b611abb565b611975565b61184a565b6117d7565b61175c565b611706565b6116e0565b6116a6565b6115f8565b6115dc565b61157a565b6114d3565b6114a7565b611455565b611365565b61126d565b611213565b611192565b61108f565b611055565b610f54565b610f19565b610edf565b610e97565b610e79565b610e56565b610e34565b610df9565b610d47565b610d0d565b610c11565b610b7d565b610a28565b6109d0565b61093e565b61091b565b6108ff565b610836565b6106d9565b61069e565b61066f565b6105a4565b610586565b610560565b61052f565b61041e565b346103bd5760203660031901126103bd5760043563ffffffff60e01b81168091036103bd57602090637965db0b60e01b81149081156103ac575b506040519015158152f35b6301ffc9a760e01b149050386103a1565b600080fd5b60005b8381106103d55750506000910152565b81810151838201526020016103c5565b906020916103fe815180928185528580860191016103c2565b601f01601f1916010190565b90602061041b9281815201906103e5565b90565b346103bd576000806003193601126105005760405190806003546104418161257e565b808552916001918083169081156104d6575060011461047b575b6104778561046b81870382611138565b6040519182918261040a565b0390f35b9250600383527fc2575a0e9e593c00f959f8c92f12db2869c3395a3b0502d05e2516446f71f85b5b8284106104be57505050810160200161046b8261047761045b565b805460208587018101919091529093019281016104a3565b8695506104779693506020925061046b94915060ff191682840152151560051b820101929361045b565b80fd5b600435906001600160a01b03821682036103bd57565b602435906001600160a01b03821682036103bd57565b346103bd5760403660031901126103bd5761055561054b610503565b602435903361277f565b602060405160018152f35b346103bd5760003660031901126103bd5760206040516a52b7d2dcc80cd2e40000008152f35b346103bd5760003660031901126103bd576020600254604051908152f35b346103bd5760603660031901126103bd576105bd610503565b6105c5610519565b6001600160a01b03821660009081526001602090815260408083203384529091529020604435919054926001840161060e575b610602935061266b565b60405160018152602090f35b82841061062a57610625836106029503338361277f565b6105f8565b60405162461bcd60e51b815260206004820152601d60248201527f45524332303a20696e73756666696369656e7420616c6c6f77616e63650000006044820152606490fd5b346103bd5760203660031901126103bd57600435600052600c6020526020600160406000200154604051908152f35b346103bd5760003660031901126103bd5760206040517f3c11d16cbaffd01df69ce1c404f6340ee057498f5f00246190ea54220576a8488152f35b346103bd5760203660031901126103bd576004356106f5612528565b336000908152600f6020526040902061071090548210612069565b336000908152600f602052604090207f6f2d3e000c89d37446b7c0374c0125068ff316d1e3ee302336478a8cd03c2336906107f79061075590849061173b565b61173b565b506107ad61079f600383019561077b610776610772895460ff1690565b1590565b6120ab565b610799610791600186015460028701549061205c565b4210156120eb565b3361218e565b855460ff1916600117909555565b6107c26107bd8254601254612126565b601255565b8315158061082a575b610806575b6107dc8154333061266b565b54604080519182526020820194909452339390918291820190565b0390a26108046001600d55565b005b61081a61081585601354612126565b601355565b61082584333061266b565b6107d0565b508360135410156107cb565b346103bd5760403660031901126103bd57600435610852610519565b600091808352600c60205261086d6001604085200154612387565b808352600c602090815260408085206001600160a01b0385166000908152925290205460ff161561089c578280f35b808352600c602090815260408085206001600160a01b038516600090815292529020805460ff1916600117905533916001600160a01b0316907f2f8788117e7eff1d82e926ec794901d17c78024a50270940304540a733656f0d8480a438808280f35b346103bd5760003660031901126103bd57602060405160128152f35b346103bd5760003660031901126103bd5760206109366134f5565b604051908152f35b346103bd5760403660031901126103bd57610957610519565b336001600160a01b038216036109735761080490600435612451565b60405162461bcd60e51b815260206004820152602f60248201527f416363657373436f6e74726f6c3a2063616e206f6e6c792072656e6f756e636560448201526e103937b632b9903337b91039b2b63360891b6064820152608490fd5b346103bd5760403660031901126103bd576109e9610503565b3360009081526001602090815260408083206001600160a01b03851684529091529020546024358101809111610a2357610555913361277f565b611ed2565b346103bd5760403660031901126103bd57610a41610503565b60243590610a6065ffffffffffff610a58436139b8565b168310612935565b6001600160a01b03166000908152600a6020526040812080549290918360058111610b2c575b50905b838210610ad757505081610ab0575050602060005b6040516001600160e01b039091168152f35b610acb610ad291602093600019019060005260206000200190565b5460201c90565b610a9e565b9092610ae381856137e8565b90818363ffffffff610b09610aff848960005260206000200190565b5463ffffffff1690565b161115610b1a575050925b90610a89565b909450610b27915061204e565b610b14565b80610b3c610b42929693966137fd565b90612126565b908263ffffffff610b5d610aff858860005260206000200190565b161115610b6d5750925b38610a86565b9350610b789061204e565b610b67565b346103bd5760003660031901126103bd57610b96612252565b600e5460ff811615610bd55760ff1916600e557f5db9ee0a495bf2e6ff9c91a7834c1ba4fdd244a5e8aa4e537bd38aeae4b073aa6020604051338152a1005b60405162461bcd60e51b815260206004820152601460248201527314185d5cd8589b194e881b9bdd081c185d5cd95960621b6044820152606490fd5b346103bd5760203660031901126103bd57600435610c2d612333565b3315610cbe5761080490610c3f6124e4565b336000908152602081905260409020819054610c5d82821015612a32565b3360009081526020819052604090209190039055610c7e8160025403600255565b60405181815260009033907fddf252ad1be2c89b69c2b068fc378daa952ba7f163c4a11628f55a4df523b3ef90602090a3610cb98133612a89565b612e8f565b60405162461bcd60e51b815260206004820152602160248201527f45524332303a206275726e2066726f6d20746865207a65726f206164647265736044820152607360f81b6064820152608490fd5b346103bd5760203660031901126103bd576001600160a01b03610d2e610503565b1660005260106020526020604060002054604051908152f35b346103bd5760003660031901126103bd574365ffffffffffff610d69436139b8565b1603610db457610477604051610d7e816110c3565b601d81527f6d6f64653d626c6f636b6e756d6265722666726f6d3d64656661756c7400000060208201526040519182918261040a565b60405162461bcd60e51b815260206004820152601d60248201527f4552433230566f7465733a2062726f6b656e20636c6f636b206d6f64650000006044820152606490fd5b346103bd5760203660031901126103bd5760206001600160a01b0380610e1d610503565b166000526009825260406000205416604051908152f35b346103bd5760203660031901126103bd57610804610e50610503565b33612b54565b346103bd5760003660031901126103bd57602060ff600e54166040519015158152f35b346103bd5760003660031901126103bd576020601354604051908152f35b346103bd5760203660031901126103bd576001600160a01b03610eb8610503565b16600052600a6020526020610ed1604060002054613a1f565b63ffffffff60405191168152f35b346103bd5760203660031901126103bd576001600160a01b03610f00610503565b1660005260006020526020604060002054604051908152f35b346103bd5760003660031901126103bd5760206040517fa49807205ce4d355092ef5a8a18f56e8913cf4a201fbe287825b095693c217758152f35b346103bd5760403660031901126103bd576004357fdd2a19c3bdd089cbe77c04f5655f83de0504d6140d12c8667646f55d0557c4dc6107f7602435610f97612528565b610f9f6124e4565b610faa841515611f0e565b62278d0081101580611047575b610fc090611f51565b336000908152602081905260409020610fdd908590541015611f90565b610fe884303361266b565b336000908152600f6020526040902061101f9061100361115a565b9086825242602083015283604083015260006060830152611fe9565b61102e6107bd8560125461205c565b6040805194855260208501919091523393918291820190565b506301e13380811115610fb7565b346103bd5760203660031901126103bd576001600160a01b03611076610503565b1660005260076020526020604060002054604051908152f35b346103bd5760003660031901126103bd576020601254604051908152f35b634e487b7160e01b600052604160045260246000fd5b6040810190811067ffffffffffffffff8211176110df57604052565b6110ad565b6080810190811067ffffffffffffffff8211176110df57604052565b6020810190811067ffffffffffffffff8211176110df57604052565b60c0810190811067ffffffffffffffff8211176110df57604052565b90601f8019910116810190811067ffffffffffffffff8211176110df57604052565b60405190611167826110e4565b565b60405190611167826110c3565b67ffffffffffffffff81116110df57601f01601f191660200190565b346103bd5760603660031901126103bd576111ab610503565b6044359067ffffffffffffffff82116103bd57366023830112156103bd578160040135906111d882611176565b916111e66040519384611138565b80835236602482860101116103bd5760208160009260246108049701838701378401015260243590611d0a565b346103bd5760003660031901126103bd5761122c612252565b6112346124e4565b600160ff19600e541617600e557f62e78cea01bee320cd4e420270b5ea74000d11b0c9f74754ebdbfc544b05a2586020604051338152a1005b346103bd5760008060031936011261050057611317906112ac7f0000000000000000000000000000000000000000000000000000000000000000613635565b6112d57f000000000000000000000000000000000000000000000000000000000000000061372e565b91604051916112e383611100565b818352604051948594600f60f81b865261130960209360e08589015260e08801906103e5565b9086820360408801526103e5565b904660608601523060808601528260a086015284820360c08601528080855193848152019401925b82811061134e57505050500390f35b83518552869550938101939281019260010161133f565b346103bd5760203660031901126103bd5760043561139465ffffffffffff61138c436139b8565b168210612935565b600b549060008260058111611412575b50905b8282106113d35782806113c1575060405160008152602090f35b610ad2610acb60209260001901613091565b90916113df81846137e8565b908263ffffffff6113f2610aff85613091565b1611156114025750915b906113a7565b925061140d9061204e565b6113fc565b80610b3c611422929593956137fd565b908263ffffffff611435610aff85613091565b1611156114455750915b386113a4565b92506114509061204e565b61143f565b346103bd5760403660031901126103bd57602060ff61149b611475610519565b600435600052600c845260406000209060018060a01b0316600052602052604060002090565b54166040519015158152f35b346103bd5760003660031901126103bd5760206114c3436139b8565b65ffffffffffff60405191168152f35b346103bd576000806003193601126105005760405190806004546114f68161257e565b808552916001918083169081156104d6575060011461151f576104778561046b81870382611138565b9250600483527f8a35acfbc15ff81a39ae7d344fd709f28e8600b4aa8c65c6b64bfe7fe36bd19b5b82841061156257505050810160200161046b8261047761045b565b80546020858701810191909152909301928101611547565b346103bd5760203660031901126103bd576001600160a01b0361159b610503565b16600052600a6020526040600020805480156000146115c257505060405160008152602090f35b6020916115d39160001901906128fb565b5054811c610a9e565b346103bd5760003660031901126103bd57602060405160008152f35b346103bd5760403660031901126103bd57611611610503565b6024359033600052600160205261163e8160406000209060018060a01b0316600052602052604060002090565b5491808310611653576106029203903361277f565b60405162461bcd60e51b815260206004820152602560248201527f45524332303a2064656372656173656420616c6c6f77616e63652062656c6f77604482015264207a65726f60d81b6064820152608490fd5b346103bd5760203660031901126103bd576001600160a01b036116c7610503565b1660005260116020526020604060002054604051908152f35b346103bd5760403660031901126103bd576105556116fc610503565b602435903361266b565b346103bd5760003660031901126103bd5760206040516301e133808152f35b634e487b7160e01b600052603260045260246000fd5b80548210156117575760005260206000209060021b0190600090565b611725565b346103bd5760403660031901126103bd57611775610503565b6001600160a01b03166000908152600f60205260409020805460243591908210156103bd576080916117a69161173b565b5080549060018101549060ff6003600283015492015416916040519384526020840152604083015215156060820152f35b346103bd5760203660031901126103bd576004356117f3612252565b33600052600060205261180d816040600020541015611f90565b61181881303361266b565b601354908101809111610a2357601355005b6064359060ff821682036103bd57565b6084359060ff821682036103bd57565b346103bd5760c03660031901126103bd57611863610503565b6044359060243561187261182a565b928042116119305761190261192b9161080495604051906118ea826118dc6020820195898b8860609194939260808201957fe48329057bfd03d55e49b547132e39cffd9c1820ad7b9d4c5307691425d15adf835260018060a01b0316602083015260408201520152565b03601f198101845283611138565b6118fd60a435936084359351902061360f565b61330f565b6001600160a01b0381166000908152600760205260409020805460018101909155909214612981565b612b54565b60405162461bcd60e51b815260206004820152601d60248201527f4552433230566f7465733a207369676e617475726520657870697265640000006044820152606490fd5b346103bd5760e03660031901126103bd5761198e610503565b611996610519565b60443590606435926119a661183a565b93804211611a7657611a5e611a71916118dc61080497611a4b6119e48760018060a01b03166000526007602052604060002090815491600183019055565b604080517f6e71edae12b1b97f4d1f60370fef10105fa2faae0126114a169c64845d6126c9602082019081526001600160a01b03808c1693830193909352918b166060820152608081018c905260a081019290925260c082019590955292839060e0820190565b6118fd60c4359360a4359351902061360f565b6001600160a01b038381169116146128af565b61277f565b60405162461bcd60e51b815260206004820152601d60248201527f45524332305065726d69743a206578706972656420646561646c696e650000006044820152606490fd5b346103bd5760003660031901126103bd5760206040517f9f2df0fed2c77648de5860a4cc508cd0818c85b8b8a1ab4ceeef8d981c8956a68152f35b346103bd5760403660031901126103bd57610804600435611b15610519565b9080600052600c602052611b30600160406000200154612387565b612451565b346103bd576020806003193601126103bd57611b4f610503565b6000916001600160a01b0382169190835b83600052600f825260406000208054821015611be55760ff6003611b8784611b8f9461173b565b500154161590565b611ba8575b90611ba0600f92611ee8565b909150611b60565b9390611ba0611bdb600f93611bd3886107508860018060a01b0316600052600f602052604060002090565b50549061205c565b9591925050611b94565b604051868152602090f35b346103bd5760403660031901126103bd576020611c3f611c0e610503565b611c16610519565b6001600160a01b0391821660009081526001855260408082209290931681526020919091522090565b54604051908152f35b346103bd5760003660031901126103bd57602060405162278d008152f35b346103bd5760003660031901126103bd5760206040516101f48152f35b346103bd5760403660031901126103bd57611c9c610503565b63ffffffff60243581811681036103bd57611ce6611cec91604094600060208751611cc6816110c3565b82815201526001600160a01b03166000908152600a6020528590206128fb565b50612913565b8251815190921682526020908101516001600160e01b031690820152f35b3360009081527f28716b1ac0502292c83929abc9e37796cf2f7a586c58ec02e6ceeac1b694cbc360205260409020549192909160ff1615611e9557611d4d6124e4565b6001600160a01b038216928315611e5c57611e3c7f1859479aa911d9ecbfc0aaead896a2a04a3319062dc3bc20e999ed757cb21bff93611d8b6124e4565b611d9f611d9a8460025461205c565b600255565b6001600160a01b03811660009081526020819052604090208381540190558560007fddf252ad1be2c89b69c2b068fc378daa952ba7f163c4a11628f55a4df523b3ef60405180611df488829190602083019252565b0390a3611e018382612ad7565b600254611e17906001600160e01b0310156129cd565b611e2083612f7f565b50506001600160a01b0316600090815260116020526040902090565b611e468154611ee8565b9055611e5760405192839283611ef7565b0390a2565b60405162461bcd60e51b8152602060048201526011602482015270125b9d985b1a59081c9958da5c1a595b9d607a1b6044820152606490fd5b60405162461bcd60e51b81526020600482015260156024820152742737ba1030baba3437b934bd32b21036b4b73a32b960591b6044820152606490fd5b634e487b7160e01b600052601160045260246000fd5b6000198114610a235760010190565b60409061041b9392815281602082015201906103e5565b15611f1557565b60405162461bcd60e51b8152602060048201526014602482015273125b9d985b1a59081cdd185ad948185b5bdd5b9d60621b6044820152606490fd5b15611f5857565b60405162461bcd60e51b815260206004820152601060248201526f24b73b30b634b210323ab930ba34b7b760811b6044820152606490fd5b15611f9757565b60405162461bcd60e51b8152602060048201526014602482015273496e73756666696369656e742062616c616e636560601b6044820152606490fd5b634e487b7160e01b600052600060045260246000fd5b8054600160401b8110156110df576120069160018201815561173b565b61203b57600360609183518155602084015160018201556040840151600282015501910151151560ff80198354169116179055565b611fd3565b6064019081606411610a2357565b9060018201809211610a2357565b91908201809211610a2357565b1561207057565b60405162461bcd60e51b8152602060048201526013602482015272092dcecc2d8d2c840e6e8c2d6ca40d2dcc8caf606b1b6044820152606490fd5b156120b257565b60405162461bcd60e51b815260206004820152601160248201527020b63932b0b23c903bb4ba34323930bbb760791b6044820152606490fd5b156120f257565b60405162461bcd60e51b815260206004820152600c60248201526b14dd1a5b1b081b1bd8dad95960a21b6044820152606490fd5b91908203918211610a2357565b90606482029180830460641490151715610a2357565b906101f49180830292830403610a2357565b81810292918115918404141715610a2357565b8115612178570490565b634e487b7160e01b600052601260045260246000fd5b6121b361041b9261223f9260018060a01b0316600052600f602052604060002061173b565b50604051906121c1826110e4565b805482526121f4600182015480602085015260ff6003600285015494604087019586520154161515606085015242612126565b90519182821161224a575b61223361222c61222761222261221861223a9697612133565b6301e13380900490565b612040565b612149565b6064900490565b905161215b565b61215b565b64496cebb800900490565b8291506121ff565b3360009081527e3ceef2c1db83b6787a5c41679a318a5ac9afba2aefaa5b63262a742c74a3a8602052604090205460ff161561228a57565b61232f604861231761229b3361315c565b6123096122a66131ed565b6040519485937f416363657373436f6e74726f6c3a206163636f756e742000000000000000000060208601526122e68151809260206037890191016103c2565b84017001034b99036b4b9b9b4b733903937b6329607d1b6037820152019061243a565b03601f198101835282611138565b60405162461bcd60e51b81529182916004830161040a565b0390fd5b3360009081527e1cc5d77f691f3f29bd797d00fb54dbfca601fc89d79085dfe95ee6241d87cb602052604090205460ff161561236b57565b61232f604861231761237c3361315c565b6123096122a661327e565b6000818152600c6020908152604080832033845290915290205460ff16156123ac5750565b6123b53361315c565b6123bd6130bb565b9160306123c9846130d6565b5360786123d5846130e3565b5360415b600181116123f85761232f604861231785612309886122a68815613111565b90600f811690601082101561175757612435916f181899199a1a9b1b9c1cb0b131b232b360811b901a61242b84876130f3565b5360041c91613104565b6123d9565b9061244d602092828151948592016103c2565b0190565b600090808252600c60205260ff61247d84604085209060018060a01b0316600052602052604060002090565b541661248857505050565b808252600c602090815260408084206001600160a01b038616600090815292529020805460ff1916905533926001600160a01b0316917ff6391f5c32d9c69d2a47ea670b442974b53935d1edc7fd64eb21e047a839171b9080a4565b60ff600e54166124f057565b60405162461bcd60e51b815260206004820152601060248201526f14185d5cd8589b194e881c185d5cd95960821b6044820152606490fd5b6002600d5414612539576002600d55565b60405162461bcd60e51b815260206004820152601f60248201527f5265656e7472616e637947756172643a207265656e7472616e742063616c6c006044820152606490fd5b90600182811c921680156125ae575b602083101461259857565b634e487b7160e01b600052602260045260246000fd5b91607f169161258d565b156125bf57565b60405162461bcd60e51b815260206004820152602360248201527f45524332303a207472616e7366657220746f20746865207a65726f206164647260448201526265737360e81b6064820152608490fd5b1561261757565b60405162461bcd60e51b815260206004820152602660248201527f45524332303a207472616e7366657220616d6f756e7420657863656564732062604482015265616c616e636560d01b6064820152608490fd5b6001600160a01b03929190838116801561272c57611167948316906126918215156125b8565b6126996124e4565b6001600160a01b03831660009081526020819052604090208590546126c082821015612610565b036126dd8460018060a01b03166000526000602052604060002090565b556001600160a01b0384166000908152602081815260409182902080548801905590518681527fddf252ad1be2c89b69c2b068fc378daa952ba7f163c4a11628f55a4df523b3ef9190a3612b22565b60405162461bcd60e51b815260206004820152602560248201527f45524332303a207472616e736665722066726f6d20746865207a65726f206164604482015264647265737360d81b6064820152608490fd5b6001600160a01b03808216929190831561285e57821693841561280e57806127f87f8c5be1e5ebec7d5bd14f71427d1e84f3dd0314c0f7b2291e5b200ac8c7c3b925946127e16128099560018060a01b03166000526001602052604060002090565b9060018060a01b0316600052602052604060002090565b556040519081529081906020820190565b0390a3565b60405162461bcd60e51b815260206004820152602260248201527f45524332303a20617070726f766520746f20746865207a65726f206164647265604482015261737360f01b6064820152608490fd5b60405162461bcd60e51b8152602060048201526024808201527f45524332303a20617070726f76652066726f6d20746865207a65726f206164646044820152637265737360e01b6064820152608490fd5b156128b657565b60405162461bcd60e51b815260206004820152601e60248201527f45524332305065726d69743a20696e76616c6964207369676e617475726500006044820152606490fd5b80548210156117575760005260206000200190600090565b90604051612920816110c3565b602081935463ffffffff81168352811c910152565b1561293c57565b60405162461bcd60e51b815260206004820152601960248201527f4552433230566f7465733a20667574757265206c6f6f6b7570000000000000006044820152606490fd5b1561298857565b60405162461bcd60e51b815260206004820152601960248201527f4552433230566f7465733a20696e76616c6964206e6f6e6365000000000000006044820152606490fd5b156129d457565b60405162461bcd60e51b815260206004820152603060248201527f4552433230566f7465733a20746f74616c20737570706c79207269736b73206f60448201526f766572666c6f77696e6720766f74657360801b6064820152608490fd5b15612a3957565b60405162461bcd60e51b815260206004820152602260248201527f45524332303a206275726e20616d6f756e7420657863656564732062616c616e604482015261636560f01b6064820152608490fd5b6001600160a01b039081166000908152600960205260408120549080527fec8156718a8372b1db44bb411437d0870f3e3790d4a08526d024ce1b0b668f6b5461116793929081169116612bc8565b60096020527fec8156718a8372b1db44bb411437d0870f3e3790d4a08526d024ce1b0b668f6b546001600160a01b039182166000908152604090205461116793929081169116612bc8565b6001600160a01b0390811660009081526009602052604080822054938316825290205461116793929082169116612bc8565b6111679160018060a01b038092166000928184526009602052806040852054168092856020527f3134e8a2e6d97e929a7e54011ea5485d7d196dd5f0ba4d4ef95803e8e3fc257f60408720549660096020526040812094871694856bffffffffffffffffffffffff60a01b82541617905580a45b6001600160a01b03808316939291168084141580612ddb575b612bec575b50505050565b80612c5a575b5082612bff575b80612be6565b6001600160a01b03166000908152600a602052604090207fdec2bacdd2f05b59de34da9b523dff8be42e5e38e818c82fdb0bae774387a72491612c4191612fd8565b60408051928352602083019190915290a2388080612bf9565b80600052600a6020527fdec2bacdd2f05b59de34da9b523dff8be42e5e38e818c82fdb0bae774387a7246040600020805480159182600014612db857612c9e611169565b6000815260006020820152915b6020830151612cca906001600160e01b03165b6001600160e01b031690565b92612cd58985613a84565b94159081612d95575b5015612d3357612d06612d1d92612cf48661394f565b92600019019060005260206000200190565b9063ffffffff82549181199060201b169116179055565b604080519182526020820192909252a238612bf2565b50612d9090612d57612d52612d47436139b8565b65ffffffffffff1690565b613a1f565b90612d8b612d648661394f565b612d7b612d6f611169565b63ffffffff9095168552565b6001600160e01b03166020840152565b612e4b565b612d1d565b5163ffffffff16905063ffffffff612daf612d47436139b8565b91161438612cde565b612dd5612dd060001984018360005260206000200190565b612913565b91612cab565b50821515612be1565b600b5490600160401b8210156110df576001820180600b5582101561175757600b600052805160209182015190911b63ffffffff191663ffffffff91909116177f0175b7a638427703f0dbe7bb9bbf987a2551717b34e79f33b5b1008d1fa01db990910155565b8054600160401b8110156110df57612e68916001820181556128fb565b61203b57815160209283015190921b63ffffffff191663ffffffff92909216919091179055565b600b5490918115918215612f6a57612ea5611169565b60008152600060208201525b6020810151612ed390612ecc906001600160e01b0316612cbe565b9586613a84565b93159081612f47575b5015612efc5761116790612d06612ef28561394f565b9160001901613091565b50611167612f0f612d52612d47436139b8565b612f42612f1b8561394f565b612f32612f26611169565b63ffffffff9094168452565b6001600160e01b03166020830152565b612de4565b5163ffffffff16905063ffffffff612f61612d47436139b8565b91161438612edc565b612f7a612dd06000198301613091565b612eb1565b600b5490918115918215612fc357612f95611169565b60008152600060208201525b6020810151612ed390612fbc906001600160e01b0316612cbe565b9586613a91565b612fd3612dd06000198301613091565b612fa1565b90918154918215928360001461307457612ff0611169565b60008152600060208201525b602081015161301e90613017906001600160e01b0316612cbe565b9687613a91565b94159081613051575b501561303d57612d0661116792612cf48661394f565b5061116790612d57612d52612d47436139b8565b5163ffffffff16905063ffffffff61306b612d47436139b8565b91161438613027565b61308c612dd060001983018460005260206000200190565b612ffc565b600b6000527f0175b7a638427703f0dbe7bb9bbf987a2551717b34e79f33b5b1008d1fa01db90190565b604051906130c8826110e4565b604282526060366020840137565b8051156117575760200190565b8051600110156117575760210190565b908151811015611757570160200190565b8015610a23576000190190565b1561311857565b606460405162461bcd60e51b815260206004820152602060248201527f537472696e67733a20686578206c656e67746820696e73756666696369656e746044820152fd5b604051906060820182811067ffffffffffffffff8211176110df57604052602a825260403660208401376030613191836130d6565b53607861319d836130e3565b536029905b600182116131b55761041b915015613111565b600f8116906010821015611757576131e7916f181899199a1a9b1b9c1cb0b131b232b360811b901a61242b84866130f3565b906131a2565b7fa49807205ce4d355092ef5a8a18f56e8913cf4a201fbe287825b095693c217756132166130bb565b906030613222836130d6565b53607861322e836130e3565b536041905b600182116132465761041b915015613111565b600f811690601082101561175757613278916f181899199a1a9b1b9c1cb0b131b232b360811b901a61242b84866130f3565b90613233565b7f3c11d16cbaffd01df69ce1c404f6340ee057498f5f00246190ea54220576a8486132a76130bb565b9060306132b3836130d6565b5360786132bf836130e3565b536041905b600182116132d75761041b915015613111565b600f811690601082101561175757613309916f181899199a1a9b1b9c1cb0b131b232b360811b901a61242b84866130f3565b906132c4565b9161041b939161331e93613466565b919091613346565b6005111561333057565b634e487b7160e01b600052602160045260246000fd5b61334f81613326565b806133575750565b61336081613326565b600181036133ad5760405162461bcd60e51b815260206004820152601860248201527f45434453413a20696e76616c6964207369676e617475726500000000000000006044820152606490fd5b6133b681613326565b600281036134035760405162461bcd60e51b815260206004820152601f60248201527f45434453413a20696e76616c6964207369676e6174757265206c656e677468006044820152606490fd5b8061340f600392613326565b1461341657565b60405162461bcd60e51b815260206004820152602260248201527f45434453413a20696e76616c6964207369676e6174757265202773272076616c604482015261756560f01b6064820152608490fd5b9291907f7fffffffffffffffffffffffffffffff5d576e7357a4501ddfe92f46681b20a083116134e95791608094939160ff602094604051948552168484015260408301526060820152600093849182805260015afa156134dc5781516001600160a01b038116156134d6579190565b50600190565b50604051903d90823e3d90fd5b50505050600090600390565b307f00000000000000000000000000000000000000000000000000000000000000006001600160a01b031614806135e6575b15613550577f000000000000000000000000000000000000000000000000000000000000000090565b60405160208101907f8b73c3c69bb8fe3d512ecc4cf759cc79239f7b179b0ffacaa9a75d522b39400f82527f000000000000000000000000000000000000000000000000000000000000000060408201527f000000000000000000000000000000000000000000000000000000000000000060608201524660808201523060a082015260a081526135e08161111c565b51902090565b507f00000000000000000000000000000000000000000000000000000000000000004614613527565b60429061361a6134f5565b906040519161190160f01b8352600283015260228201522090565b60ff81146136735760ff811690601f82116136615760405191613657836110c3565b8252602082015290565b604051632cd44ac360e21b8152600490fd5b506040516005548160006136868361257e565b8083529260019081811690811561370c57506001146136ad575b5061041b92500382611138565b6005600090815291507f036b6384b5eca791c62761152d0c79bb0604c104a5fb6f4eb0703f3154bb3db05b8483106136f1575061041b9350508101602001386136a0565b819350908160209254838589010152019101909184926136d8565b90506020925061041b94915060ff191682840152151560051b820101386136a0565b60ff81146137505760ff811690601f82116136615760405191613657836110c3565b506040516006548160006137638361257e565b8083529260019081811690811561370c5750600114613789575061041b92500382611138565b6006600090815291507ff652222313e28459528d920b65115c16c04f3efc82aaedc97be59f3f377c0d3f5b8483106137cd575061041b9350508101602001386136a0565b819350908160209254838589010152019101909184926137b4565b90808216911860011c8101809111610a235790565b801561393757806138d06138c96138bf6138b56138ab6138a161389761388d600161041b9a6000908b60801c8061392b575b508060401c8061391e575b508060201c80613911575b508060101c80613904575b508060081c806138f7575b508060041c806138ea575b508060021c806138dd575b50821c6138d6575b811c1b613886818b61216e565b0160011c90565b613886818a61216e565b613886818961216e565b613886818861216e565b613886818761216e565b613886818661216e565b613886818561216e565b809261216e565b9061393d565b8101613879565b6002915091019038613871565b6004915091019038613866565b600891509101903861385b565b6010915091019038613850565b6020915091019038613845565b604091509101903861383a565b9150506080903861382f565b50600090565b908082101561394a575090565b905090565b6001600160e01b0390818111613963571690565b60405162461bcd60e51b815260206004820152602760248201527f53616665436173743a2076616c756520646f65736e27742066697420696e20326044820152663234206269747360c81b6064820152608490fd5b65ffffffffffff908181116139cb571690565b60405162461bcd60e51b815260206004820152602660248201527f53616665436173743a2076616c756520646f65736e27742066697420696e203460448201526538206269747360d01b6064820152608490fd5b63ffffffff90818111613a30571690565b60405162461bcd60e51b815260206004820152602660248201527f53616665436173743a2076616c756520646f65736e27742066697420696e203360448201526532206269747360d01b6064820152608490fd5b908103908111610a235790565b908101809111610a23579056fea2646970667358221220479a37cc975349deb08cb28a0991801fc3e1924cf44015b32b027893452ae95164736f6c634300081300332f8788117e7eff1d82e926ec794901d17c78024a50270940304540a733656f0ddec2bacdd2f05b59de34da9b523dff8be42e5e38e818c82fdb0bae774387a724","linkReferences":{}},"methodIdentifiers":{"ADMIN_ROLE()":"75b238fc","BASE_APR()":"e4fd18c9","BURNER_ROLE()":"282c51f3","CLOCK_MODE()":"4bf5d7e9","DEFAULT_ADMIN_ROLE()":"a217fddf","DOMAIN_SEPARATOR()":"3644e515","INITIAL_MINT_CAP()":"0b7fc36b","MAX_STAKE_DURATION()":"aa902b4d","MINTER_ROLE()":"d5391393","MIN_STAKE_DURATION()":"e0c570ba","addToRewardPool(uint256)":"b95ffbce","allowance(address,address)":"dd62ed3e","approve(address,uint256)":"095ea7b3","balanceOf(address)":"70a08231","burn(uint256)":"42966c68","checkpoints(address,uint32)":"f1127ed8","civicActions(address)":"a5b626bf","clock()":"91ddadf4","decimals()":"313ce567","decreaseAllowance(address,uint256)":"a457c2d7","delegate(address)":"5c19a95c","delegateBySig(address,uint256,uint256,uint8,bytes32,bytes32)":"c3cda520","delegates(address)":"587cde1e","eip712Domain()":"84b0196e","getPastTotalSupply(uint256)":"8e539e8c","getPastVotes(address,uint256)":"3a46b1a8","getRoleAdmin(bytes32)":"248a9ca3","getTotalStaked(address)":"dd2a8b11","getVotes(address)":"9ab24eb0","grantRole(bytes32,address)":"2f2ff15d","hasRole(bytes32,address)":"91d14854","increaseAllowance(address,uint256)":"39509351","mintForCivicAction(address,uint256,string)":"81cad434","name()":"06fdde03","nonces(address)":"7ecebe00","numCheckpoints(address)":"6fcfff45","pause()":"8456cb59","paused()":"5c975abb","permit(address,address,uint256,uint256,uint8,bytes32,bytes32)":"d505accf","renounceRole(bytes32,address)":"36568abe","revokeRole(bytes32,address)":"d547741f","rewardPool()":"66666aa9","stake(uint256,uint256)":"7b0472f0","stakingRewards(address)":"499d7f96","supportsInterface(bytes4)":"01ffc9a7","symbol()":"95d89b41","totalStaked()":"817b1cd2","totalSupply()":"18160ddd","transfer(address,uint256)":"a9059cbb","transferFrom(address,address,uint256)":"23b872dd","unpause()":"3f4ba83a","unstake(uint256)":"2e17de78","userStakes(address,uint256)":"b5d5b5fa"},"id":1}