{"abi":[{"type":"constructor","inputs":[],"stateMutability":"nonpayable"},{"type":"function","name":"ADMIN_ROLE","inputs":[],"outputs":[{"name":"","type":"bytes32","internalType":"bytes32"}],"stateMutability":"view"},{"type":"function","name":"BASE_APR","inputs":[],"outputs":[{"name":"","type":"uint256","internalType":"uint256"}],"stateMutability":"view"},{"type":"function","name":"BURNER_ROLE","inputs":[],"outputs":[{"name":"","type":"bytes32","internalType":"bytes32"}],"stateMutability":"view"},{"type":"function","name":"CLOCK_MODE","inputs":[],"outputs":[{"name":"","type":"string","internalType":"string"}],"stateMutability":"view"},{"type":"function","name":"DEFAULT_ADMIN_ROLE","inputs":[],"outputs":[{"name":"","type":"bytes32","internalType":"bytes32"}],"stateMutability":"view"},{"type":"function","name":"DOMAIN_SEPARATOR","inputs":[],"outputs":[{"name":"","type":"bytes32","internalType":"bytes32"}],"stateMutability":"view"},{"type":"function","name":"INITIAL_MINT_CAP","inputs":[],"outputs":[{"name":"","type":"uint256","internalType":"uint256"}],"stateMutability":"view"},{"type":"function","name":"MAX_STAKE_DURATION","inputs":[],"outputs":[{"name":"","type":"uint256","internalType":"uint256"}],"stateMutability":"view"},{"type":"function","name":"MAX_SUPPLY","inputs":[],"outputs":[{"name":"","type":"uint256","internalType":"uint256"}],"stateMutability":"view"},{"type":"function","name":"MINTER_ROLE","inputs":[],"outputs":[{"name":"","type":"bytes32","internalType":"bytes32"}],"stateMutability":"view"},{"type":"function","name":"MIN_STAKE_DURATION","inputs":[],"outputs":[{"name":"","type":"uint256","internalType":"uint256"}],"stateMutability":"view"},{"type":"function","name":"addToRewardPool","inputs":[{"name":"amount","type":"uint256","internalType":"uint256"}],"outputs":[],"stateMutability":"nonpayable"},{"type":"function","name":"allowance","inputs":[{"name":"owner","type":"address","internalType":"address"},{"name":"spender","type":"address","internalType":"address"}],"outputs":[{"name":"","type":"uint256","internalType":"uint256"}],"stateMutability":"view"},{"type":"function","name":"approve","inputs":[{"name":"spender","type":"address","internalType":"address"},{"name":"amount","type":"uint256","internalType":"uint256"}],"outputs":[{"name":"","type":"bool","internalType":"bool"}],"stateMutability":"nonpayable"},{"type":"function","name":"balanceOf","inputs":[{"name":"account","type":"address","internalType":"address"}],"outputs":[{"name":"","type":"uint256","internalType":"uint256"}],"stateMutability":"view"},{"type":"function","name":"burn","inputs":[{"name":"amount","type":"uint256","internalType":"uint256"}],"outputs":[],"stateMutability":"nonpayable"},{"type":"function","name":"checkpoints","inputs":[{"name":"account","type":"address","internalType":"address"},{"name":"pos","type":"uint32","internalType":"uint32"}],"outputs":[{"name":"","type":"tuple","internalType":"struct ERC20Votes.Checkpoint","components":[{"name":"fromBlock","type":"uint32","internalType":"uint32"},{"name":"votes","type":"uint224","internalType":"uint224"}]}],"stateMutability":"view"},{"type":"function","name":"civicActions","inputs":[{"name":"","type":"address","internalType":"address"}],"outputs":[{"name":"","type":"uint256","internalType":"uint256"}],"stateMutability":"view"},{"type":"function","name":"clock","inputs":[],"outputs":[{"name":"","type":"uint48","internalType":"uint48"}],"stateMutability":"view"},{"type":"function","name":"decimals","inputs":[],"outputs":[{"name":"","type":"uint8","internalType":"uint8"}],"stateMutability":"view"},{"type":"function","name":"decreaseAllowance","inputs":[{"name":"spender","type":"address","internalType":"address"},{"name":"subtractedValue","type":"uint256","internalType":"uint256"}],"outputs":[{"name":"","type":"bool","internalType":"bool"}],"stateMutability":"nonpayable"},{"type":"function","name":"delegate","inputs":[{"name":"delegatee","type":"address","internalType":"address"}],"outputs":[],"stateMutability":"nonpayable"},{"type":"function","name":"delegateBySig","inputs":[{"name":"delegatee","type":"address","internalType":"address"},{"name":"nonce","type":"uint256","internalType":"uint256"},{"name":"expiry","type":"uint256","internalType":"uint256"},{"name":"v","type":"uint8","internalType":"uint8"},{"name":"r","type":"bytes32","internalType":"bytes32"},{"name":"s","type":"bytes32","internalType":"bytes32"}],"outputs":[],"stateMutability":"nonpayable"},{"type":"function","name":"delegates","inputs":[{"name":"account","type":"address","internalType":"address"}],"outputs":[{"name":"","type":"address","internalType":"address"}],"stateMutability":"view"},{"type":"function","name":"eip712Domain","inputs":[],"outputs":[{"name":"fields","type":"bytes1","internalType":"bytes1"},{"name":"name","type":"string","internalType":"string"},{"name":"version","type":"string","internalType":"string"},{"name":"chainId","type":"uint256","internalType":"uint256"},{"name":"verifyingContract","type":"address","internalType":"address"},{"name":"salt","type":"bytes32","internalType":"bytes32"},{"name":"extensions","type":"uint256[]","internalType":"uint256[]"}],"stateMutability":"view"},{"type":"function","name":"getPastTotalSupply","inputs":[{"name":"timepoint","type":"uint256","internalType":"uint256"}],"outputs":[{"name":"","type":"uint256","internalType":"uint256"}],"stateMutability":"view"},{"type":"function","name":"getPastVotes","inputs":[{"name":"account","type":"address","internalType":"address"},{"name":"timepoint","type":"uint256","internalType":"uint256"}],"outputs":[{"name":"","type":"uint256","internalType":"uint256"}],"stateMutability":"view"},{"type":"function","name":"getRoleAdmin","inputs":[{"name":"role","type":"bytes32","internalType":"bytes32"}],"outputs":[{"name":"","type":"bytes32","internalType":"bytes32"}],"stateMutability":"view"},{"type":"function","name":"getTotalStaked","inputs":[{"name":"user","type":"address","internalType":"address"}],"outputs":[{"name":"","type":"uint256","internalType":"uint256"}],"stateMutability":"view"},{"type":"function","name":"getVotes","inputs":[{"name":"account","type":"address","internalType":"address"}],"outputs":[{"name":"","type":"uint256","internalType":"uint256"}],"stateMutability":"view"},{"type":"function","name":"grantRole","inputs":[{"name":"role","type":"bytes32","internalType":"bytes32"},{"name":"account","type":"address","internalType":"address"}],"outputs":[],"stateMutability":"nonpayable"},{"type":"function","name":"hasRole","inputs":[{"name":"role","type":"bytes32","internalType":"bytes32"},{"name":"account","type":"address","internalType":"address"}],"outputs":[{"name":"","type":"bool","internalType":"bool"}],"stateMutability":"view"},{"type":"function","name":"increaseAllowance","inputs":[{"name":"spender","type":"address","internalType":"address"},{"name":"addedValue","type":"uint256","internalType":"uint256"}],"outputs":[{"name":"","type":"bool","internalType":"bool"}],"stateMutability":"nonpayable"},{"type":"function","name":"mintForCivicAction","inputs":[{"name":"to","type":"address","internalType":"address"},{"name":"amount","type":"uint256","internalType":"uint256"},{"name":"actionType","type":"string","internalType":"string"}],"outputs":[],"stateMutability":"nonpayable"},{"type":"function","name":"name","inputs":[],"outputs":[{"name":"","type":"string","internalType":"string"}],"stateMutability":"view"},{"type":"function","name":"nonces","inputs":[{"name":"owner","type":"address","internalType":"address"}],"outputs":[{"name":"","type":"uint256","internalType":"uint256"}],"stateMutability":"view"},{"type":"function","name":"numCheckpoints","inputs":[{"name":"account","type":"address","internalType":"address"}],"outputs":[{"name":"","type":"uint32","internalType":"uint32"}],"stateMutability":"view"},{"type":"function","name":"pause","inputs":[],"outputs":[],"stateMutability":"nonpayable"},{"type":"function","name":"paused","inputs":[],"outputs":[{"name":"","type":"bool","internalType":"bool"}],"stateMutability":"view"},{"type":"function","name":"permit","inputs":[{"name":"owner","type":"address","internalType":"address"},{"name":"spender","type":"address","internalType":"address"},{"name":"value","type":"uint256","internalType":"uint256"},{"name":"deadline","type":"uint256","internalType":"uint256"},{"name":"v","type":"uint8","internalType":"uint8"},{"name":"r","type":"bytes32","internalType":"bytes32"},{"name":"s","type":"bytes32","internalType":"bytes32"}],"outputs":[],"stateMutability":"nonpayable"},{"type":"function","name":"renounceRole","inputs":[{"name":"role","type":"bytes32","internalType":"bytes32"},{"name":"account","type":"address","internalType":"address"}],"outputs":[],"stateMutability":"nonpayable"},{"type":"function","name":"revokeRole","inputs":[{"name":"role","type":"bytes32","internalType":"bytes32"},{"name":"account","type":"address","internalType":"address"}],"outputs":[],"stateMutability":"nonpayable"},{"type":"function","name":"rewardPool","inputs":[],"outputs":[{"name":"","type":"uint256","internalType":"uint256"}],"stateMutability":"view"},{"type":"function","name":"stake","inputs":[{"name":"amount","type":"uint256","internalType":"uint256"},{"name":"duration","type":"uint256","internalType":"uint256"}],"outputs":[],"stateMutability":"nonpayable"},{"type":"function","name":"stakingRewards","inputs":[{"name":"","type":"address","internalType":"address"}],"outputs":[{"name":"","type":"uint256","internalType":"uint256"}],"stateMutability":"view"},{"type":"function","name":"supportsInterface","inputs":[{"name":"interfaceId","type":"bytes4","internalType":"bytes4"}],"outputs":[{"name":"","type":"bool","internalType":"bool"}],"stateMutability":"view"},{"type":"function","name":"symbol","inputs":[],"outputs":[{"name":"","type":"string","internalType":"string"}],"stateMutability":"view"},{"type":"function","name":"totalStaked","inputs":[],"outputs":[{"name":"","type":"uint256","internalType":"uint256"}],"stateMutability":"view"},{"type":"function","name":"totalSupply","inputs":[],"outputs":[{"name":"","type":"uint256","internalType":"uint256"}],"stateMutability":"view"},{"type":"function","name":"transfer","inputs":[{"name":"to","type":"address","internalType":"address"},{"name":"amount","type":"uint256","internalType":"uint256"}],"outputs":[{"name":"","type":"bool","internalType":"bool"}],"stateMutability":"nonpayable"},{"type":"function","name":"transferFrom","inputs":[{"name":"from","type":"address","internalType":"address"},{"name":"to","type":"address","internalType":"address"},{"name":"amount","type":"uint256","internalType":"uint256"}],"outputs":[{"name":"","type":"bool","internalType":"bool"}],"stateMutability":"nonpayable"},{"type":"function","name":"unpause","inputs":[],"outputs":[],"stateMutability":"nonpayable"},{"type":"function","name":"unstake","inputs":[{"name":"stakeIndex","type":"uint256","internalType":"uint256"}],"outputs":[],"stateMutability":"nonpayable"},{"type":"function","name":"userStakes","inputs":[{"name":"","type":"address","internalType":"address"},{"name":"","type":"uint256","internalType":"uint256"}],"outputs":[{"name":"amount","type":"uint256","internalType":"uint256"},{"name":"timestamp","type":"uint256","internalType":"uint256"},{"name":"lockDuration","type":"uint256","internalType":"uint256"},{"name":"withdrawn","type":"bool","internalType":"bool"}],"stateMutability":"view"},{"type":"event","name":"Approval","inputs":[{"name":"owner","type":"address","indexed":true,"internalType":"address"},{"name":"spender","type":"address","indexed":true,"internalType":"address"},{"name":"value","type":"uint256","indexed":false,"internalType":"uint256"}],"anonymous":false},{"type":"event","name":"DelegateChanged","inputs":[{"name":"delegator","type":"address","indexed":true,"internalType":"address"},{"name":"fromDelegate","type":"address","indexed":true,"internalType":"address"},{"name":"toDelegate","type":"address","indexed":true,"internalType":"address"}],"anonymous":false},{"type":"event","name":"DelegateVotesChanged","inputs":[{"name":"delegate","type":"address","indexed":true,"internalType":"address"},{"name":"previousBalance","type":"uint256","indexed":false,"internalType":"uint256"},{"name":"newBalance","type":"uint256","indexed":false,"internalType":"uint256"}],"anonymous":false},{"type":"event","name":"EIP712DomainChanged","inputs":[],"anonymous":false},{"type":"event","name":"Paused","inputs":[{"name":"account","type":"address","indexed":false,"internalType":"address"}],"anonymous":false},{"type":"event","name":"RoleAdminChanged","inputs":[{"name":"role","type":"bytes32","indexed":true,"internalType":"bytes32"},{"name":"previousAdminRole","type":"bytes32","indexed":true,"internalType":"bytes32"},{"name":"newAdminRole","type":"bytes32","indexed":true,"internalType":"bytes32"}],"anonymous":false},{"type":"event","name":"RoleGranted","inputs":[{"name":"role","type":"bytes32","indexed":true,"internalType":"bytes32"},{"name":"account","type":"address","indexed":true,"internalType":"address"},{"name":"sender","type":"address","indexed":true,"internalType":"address"}],"anonymous":false},{"type":"event","name":"RoleRevoked","inputs":[{"name":"role","type":"bytes32","indexed":true,"internalType":"bytes32"},{"name":"account","type":"address","indexed":true,"internalType":"address"},{"name":"sender","type":"address","indexed":true,"internalType":"address"}],"anonymous":false},{"type":"event","name":"TokensEarned","inputs":[{"name":"citizen","type":"address","indexed":true,"internalType":"address"},{"name":"amount","type":"uint256","indexed":false,"internalType":"uint256"},{"name":"actionType","type":"string","indexed":false,"internalType":"string"}],"anonymous":false},{"type":"event","name":"TokensStaked","inputs":[{"name":"user","type":"address","indexed":true,"internalType":"address"},{"name":"amount","type":"uint256","indexed":false,"internalType":"uint256"},{"name":"duration","type":"uint256","indexed":false,"internalType":"uint256"}],"anonymous":false},{"type":"event","name":"TokensUnstaked","inputs":[{"name":"user","type":"address","indexed":true,"internalType":"address"},{"name":"amount","type":"uint256","indexed":false,"internalType":"uint256"},{"name":"rewards","type":"uint256","indexed":false,"internalType":"uint256"}],"anonymous":false},{"type":"event","name":"Transfer","inputs":[{"name":"from","type":"address","indexed":true,"internalType":"address"},{"name":"to","type":"address","indexed":true,"internalType":"address"},{"name":"value","type":"uint256","indexed":false,"internalType":"uint256"}],"anonymous":false},{"type":"event","name":"Unpaused","inputs":[{"name":"account","type":"address","indexed":false,"internalType":"address"}],"anonymous":false},{"type":"error","name":"InvalidShortString","inputs":[]},{"type":"error","name":"StringTooLong","inputs":[{"name":"str","type":"string","internalType":"string"}]}],"bytecode":{"object":"0x610160604052346200022b57620000156200029d565b6200001f6200029d565b906200002a62000273565b9160209264434956494360d81b848201526200004562000288565b603160f81b858201908152835190939192916001600160401b03821162000225576200007e8262000078600354620002d8565b62000315565b8690601f83116001146200019557620000b89392916000918362000189575b50508160011b916000199060031b1c19161760035562000479565b620000c38362000dbd565b92610120938452620000d58262000ed0565b94610140958652815191012060e052519020916101009283524660a052620000fc62001081565b6080523060c0526200010e6001600d55565b6200011e60ff19600e5416600e55565b62000129336200056c565b6200013433620005ff565b6200013f336200071a565b60405191613bc493846200125985396080518461361e015260a051846136d9015260c051846135e8015260e0518461366d01525183613693015251826112bf015251816112e80152f35b0151905038806200009d565b6003600052601f19831691907fc2575a0e9e593c00f959f8c92f12db2869c3395a3b0502d05e2516446f71f85b9260005b8a8282106200020e575050916001939185620000b897969410620001f4575b505050811b0160035562000479565b015160001960f88460031b161c19169055388080620001e5565b6001859682939686015181550195019301620001c6565b62000230565b600080fd5b634e487b7160e01b600052604160045260246000fd5b604081019081106001600160401b038211176200022557604052565b60405190620002718262000246565b565b60405190620002828262000246565b60058252565b60405190620002978262000246565b60018252565b60405190620002ac8262000246565b601682527f434956494320476f7665726e616e636520546f6b656e000000000000000000006020830152565b90600182811c921680156200030a575b6020831014620002f457565b634e487b7160e01b600052602260045260246000fd5b91607f1691620002e8565b601f811162000322575050565b6000906003825260208220906020601f850160051c8301941062000363575b601f0160051c01915b8281106200035757505050565b8181556001016200034a565b909250829062000341565b601f81116200037b575050565b6000906004825260208220906020601f850160051c83019410620003bc575b601f0160051c01915b828110620003b057505050565b818155600101620003a3565b90925082906200039a565b601f8111620003d4575050565b6000906005825260208220906020601f850160051c8301941062000415575b601f0160051c01915b8281106200040957505050565b818155600101620003fc565b9092508290620003f3565b601f81116200042d575050565b6000906006825260208220906020601f850160051c830194106200046e575b601f0160051c01915b8281106200046257505050565b81815560010162000455565b90925082906200044c565b80519091906001600160401b0381116200022557620004a5816200049f600454620002d8565b6200036e565b602080601f8311600114620004e45750819293600092620004d8575b50508160011b916000199060031b1c191617600455565b015190503880620004c1565b6004600052601f198316949091907f8a35acfbc15ff81a39ae7d344fd709f28e8600b4aa8c65c6b64bfe7fe36bd19b926000905b8782106200055357505083600195961062000539575b505050811b01600455565b015160001960f88460031b161c191690553880806200052e565b8060018596829496860151815501950193019062000518565b6001600160a01b03811660009081527f13649b2456f1b42fef0f0040b3aaeabcd21a76a0f3f5defd4f583839455116e8602052604081205460ff1615620005b1575050565b808052600c602090815260408083206001600160a01b038516600090815292529020805460ff1916600117905533916001600160a01b03169060008051602062004e1d8339815191528180a4565b6001600160a01b03811660009081527e3ceef2c1db83b6787a5c41679a318a5ac9afba2aefaa5b63262a742c74a3a860205260408120547fa49807205ce4d355092ef5a8a18f56e8913cf4a201fbe287825b095693c217759060ff16156200066657505050565b808252600c602090815260408084206001600160a01b038616600090815292529020805460ff1916600117905533926001600160a01b03169160008051602062004e1d8339815191529080a4565b15620006bc57565b60405162461bcd60e51b815260206004820152603060248201527f4552433230566f7465733a20746f74616c20737570706c79207269736b73206f60448201526f766572666c6f77696e6720766f74657360801b6064820152608490fd5b6001600160a01b038116908115620007ea57620007c4916200073b62000864565b620007516200074c60025462000845565b600255565b6001600160a01b03821660009081526020819052604090206a52b7d2dcc80cd2e4000000815401905560007fddf252ad1be2c89b69c2b068fc378daa952ba7f163c4a11628f55a4df523b3ef60405180620007bb81906a52b7d2dcc80cd2e4000000602083019252565b0390a3620008a9565b600254620007dc906001600160e01b031015620006b4565b620007e662000aac565b5050565b60405162461bcd60e51b815260206004820152601f60248201527f45524332303a206d696e7420746f20746865207a65726f2061646472657373006044820152606490fd5b634e487b7160e01b600052601160045260246000fd5b906a52b7d2dcc80cd2e400000082018092116200085e57565b6200082f565b60ff600e54166200087157565b60405162461bcd60e51b815260206004820152601060248201526f14185d5cd8589b194e881c185d5cd95960821b6044820152606490fd5b60096020527fec8156718a8372b1db44bb411437d0870f3e3790d4a08526d024ce1b0b668f6b546001600160a01b039182166000908152604081205483169290911690818314158062000999575b6200090157505050565b816200095a575b505080620009135750565b6001600160a01b0381166000908152600a6020526040902060008051602062004e3d83398151915290620009479062000d53565b60408051928352602083019190915290a2565b620009806040828460008051602062004e3d8339815191529452600a6020522062000c32565b60408051928352602083019190915290a2388062000908565b506001620008f7565b604080519192919081016001600160401b038111828210176200022557604052602081935463ffffffff81168352811c910152565b600b54906801000000000000000082101562000225576001820180600b5582101562000a4557600b600052805160209182015190911b63ffffffff191663ffffffff91909116177f0175b7a638427703f0dbe7bb9bbf987a2551717b34e79f33b5b1008d1fa01db990910155565b634e487b7160e01b600052603260045260246000fd5b9081546801000000000000000081101562000225576001810180845581101562000a4557600092835260209283902082519284015190931b63ffffffff191663ffffffff9290921691909117910155565b600b5490811590811562000bf35762000ac462000262565b6000815260006020820152925b602084015162000af1906001600160e01b03165b6001600160e01b031690565b9362000afd8562001225565b9315908162000bcc575b501562000b6457620002719062000b4d62000b2285620010ed565b600b600052917f0175b7a638427703f0dbe7bb9bbf987a2551717b34e79f33b5b1008d1fa01db80190565b9063ffffffff82549181199060201b169116179055565b506200027162000b8d62000b8762000b7c4362001157565b65ffffffffffff1690565b620011bf565b62000bc662000b9c85620010ed565b62000bb662000baa62000262565b63ffffffff9094168452565b6001600160e01b03166020830152565b620009d7565b5163ffffffff16905063ffffffff62000be962000b7c4362001157565b9116143862000b07565b600b60005262000c2b7f0175b7a638427703f0dbe7bb9bbf987a2551717b34e79f33b5b1008d1fa01db88401620009a2565b620009a2565b9262000ad1565b805491821591821562000d325762000c4962000262565b6000815260006020820152935b602085015162000c6f906001600160e01b031662000ae5565b9462000c7b866200123e565b9415908162000d0b575b501562000cb25762000b4d620002719262000ca086620010ed565b92600019019060005260206000200190565b50620002719062000ccb62000b8762000b7c4362001157565b9062000d0562000cdb86620010ed565b62000cf562000ce962000262565b63ffffffff9095168552565b6001600160e01b03166020840152565b62000a5b565b5163ffffffff16905063ffffffff62000d2862000b7c4362001157565b9116143862000c85565b62000d4c62000c2560001986018360005260206000200190565b9362000c56565b805491821591821562000d9c5762000d6a62000262565b6000815260006020820152935b602085015162000d90906001600160e01b031662000ae5565b9462000c7b8662001225565b62000db662000c2560001986018360005260206000200190565b9362000d77565b908151602080821060001462000dde5750509062000ddb9062001004565b90565b6001600160401b038211620002255762000e058262000dff600554620002d8565b620003c7565b80601f831160011462000e45575081929360009262000e39575b50508160011b916000199060031b1c19161760055560ff90565b01519050388062000e1f565b6005600052601f198316949091907f036b6384b5eca791c62761152d0c79bb0604c104a5fb6f4eb0703f3154bb3db0926000905b87821062000eb757505083600195961062000e9d575b505050811b0160055560ff90565b015160001960f88460031b161c1916905538808062000e8f565b8060018596829496860151815501950193019062000e79565b908151602080821060001462000eee5750509062000ddb9062001004565b6001600160401b038211620002255762000f158262000f0f600654620002d8565b62000420565b80601f831160011462000f55575081929360009262000f49575b50508160011b916000199060031b1c19161760065560ff90565b01519050388062000f2f565b6006600052601f198316949091907ff652222313e28459528d920b65115c16c04f3efc82aaedc97be59f3f377c0d3f926000905b87821062000fc757505083600195961062000fad575b505050811b0160065560ff90565b015160001960f88460031b161c1916905538808062000f9f565b8060018596829496860151815501950193019062000f89565b60208151910151906020811062000ff5575090565b6000199060200360031b1b1690565b601f8151116200101f57620010198162000fe0565b90511790565b6040519063305a27a960e01b82528160208060048301528251908160248401526000935b82851062001067575050604492506000838284010152601f80199101168101030190fd5b848101820151868601604401529381019385935062001043565b60e051610100516040519060208201927f8b73c3c69bb8fe3d512ecc4cf759cc79239f7b179b0ffacaa9a75d522b39400f8452604083015260608201524660808201523060a082015260a0815260c0810181811060018060401b03821117620002255760405251902090565b6001600160e01b039081811162001102571690565b60405162461bcd60e51b815260206004820152602760248201527f53616665436173743a2076616c756520646f65736e27742066697420696e20326044820152663234206269747360c81b6064820152608490fd5b65ffffffffffff908181116200116b571690565b60405162461bcd60e51b815260206004820152602660248201527f53616665436173743a2076616c756520646f65736e27742066697420696e203460448201526538206269747360d01b6064820152608490fd5b63ffffffff90818111620011d1571690565b60405162461bcd60e51b815260206004820152602660248201527f53616665436173743a2076616c756520646f65736e27742066697420696e203360448201526532206269747360d01b6064820152608490fd5b6a52b7d2dcc80cd2e400000081018091116200085e5790565b6a52b7d2dcc80cd2e3ffffff1981019081116200085e579056fe6080604052600436101561001257600080fd5b60003560e01c806301ffc9a71461037757806306fdde0314610372578063095ea7b31461036d5780630b7fc36b1461036857806318160ddd1461036357806323b872dd1461035e578063248a9ca314610359578063282c51f3146103545780632e17de781461034f5780632f2ff15d1461034a578063313ce5671461034557806332cb6b0c146103405780633644e5151461033b57806336568abe1461033657806339509351146103315780633a46b1a81461032c5780633f4ba83a1461032757806342966c6814610322578063499d7f961461031d5780634bf5d7e914610318578063587cde1e146103135780635c19a95c1461030e5780635c975abb1461030957806366666aa9146103045780636fcfff45146102ff57806370a08231146102fa57806375b238fc146102f55780637b0472f0146102f05780637ecebe00146102eb578063817b1cd2146102e657806381cad434146102e15780638456cb59146102dc57806384b0196e146102d75780638e539e8c146102d257806391d14854146102cd57806391ddadf4146102c857806395d89b41146102c35780639ab24eb0146102be578063a217fddf146102b9578063a457c2d7146102b4578063a5b626bf146102af578063a9059cbb146102aa578063aa902b4d146102a5578063b5d5b5fa146102a0578063b95ffbce1461029b578063c3cda52014610296578063d505accf14610291578063d53913931461028c578063d547741f14610287578063dd2a8b1114610282578063dd62ed3e1461027d578063e0c570ba14610278578063e4fd18c9146102735763f1127ed81461026e57600080fd5b611cba565b611c9d565b611c7f565b611c27565b611b6c565b611b2d565b611af2565b6119ac565b611881565b61180e565b611793565b61173d565b611717565b6116dd565b61162f565b611613565b6115b1565b61150a565b6114de565b61148c565b61139c565b6112a4565b61124a565b6111c9565b6110c6565b61108c565b610f8b565b610f50565b610f16565b610ece565b610eb0565b610e8d565b610e6b565b610e30565b610d7e565b610d44565b610c48565b610bb4565b610a5f565b610a07565b610975565b610952565b61092b565b61090f565b610846565b6106e9565b6106ae565b61067f565b6105b4565b610596565b610570565b61053f565b61042e565b346103cd5760203660031901126103cd5760043563ffffffff60e01b81168091036103cd57602090637965db0b60e01b81149081156103bc575b506040519015158152f35b6301ffc9a760e01b149050386103b1565b600080fd5b60005b8381106103e55750506000910152565b81810151838201526020016103d5565b9060209161040e815180928185528580860191016103d2565b601f01601f1916010190565b90602061042b9281815201906103f5565b90565b346103cd5760008060031936011261051057604051908060035461045181612586565b808552916001918083169081156104e6575060011461048b575b6104878561047b8187038261116f565b6040519182918261041a565b0390f35b9250600383527fc2575a0e9e593c00f959f8c92f12db2869c3395a3b0502d05e2516446f71f85b5b8284106104ce57505050810160200161047b8261048761046b565b805460208587018101919091529093019281016104b3565b8695506104879693506020925061047b94915060ff191682840152151560051b820101929361046b565b80fd5b600435906001600160a01b03821682036103cd57565b602435906001600160a01b03821682036103cd57565b346103cd5760403660031901126103cd5761056561055b610513565b6024359033612787565b602060405160018152f35b346103cd5760003660031901126103cd5760206040516a52b7d2dcc80cd2e40000008152f35b346103cd5760003660031901126103cd576020600254604051908152f35b346103cd5760603660031901126103cd576105cd610513565b6105d5610529565b6001600160a01b03821660009081526001602090815260408083203384529091529020604435919054926001840161061e575b6106129350612673565b60405160018152602090f35b82841061063a576106358361061295033383612787565b610608565b60405162461bcd60e51b815260206004820152601d60248201527f45524332303a20696e73756666696369656e7420616c6c6f77616e63650000006044820152606490fd5b346103cd5760203660031901126103cd57600435600052600c6020526020600160406000200154604051908152f35b346103cd5760003660031901126103cd5760206040517f3c11d16cbaffd01df69ce1c404f6340ee057498f5f00246190ea54220576a8488152f35b346103cd5760203660031901126103cd57600435610705612530565b336000908152600f6020526040902061072090548210612071565b336000908152600f602052604090207f6f2d3e000c89d37446b7c0374c0125068ff316d1e3ee302336478a8cd03c23369061080790610765908490611772565b611772565b506107bd6107af600383019561078b610786610782895460ff1690565b1590565b6120b3565b6107a96107a16001860154600287015490611ecc565b4210156120f3565b33612196565b855460ff1916600117909555565b6107d26107cd825460125461212e565b601255565b8315158061083a575b610816575b6107ec81543330612673565b54604080519182526020820194909452339390918291820190565b0390a26108146001600d55565b005b61082a6108258560135461212e565b601355565b610835843330612673565b6107e0565b508360135410156107db565b346103cd5760403660031901126103cd57600435610862610529565b600091808352600c60205261087d600160408520015461238f565b808352600c602090815260408085206001600160a01b0385166000908152925290205460ff16156108ac578280f35b808352600c602090815260408085206001600160a01b038516600090815292529020805460ff1916600117905533916001600160a01b0316907f2f8788117e7eff1d82e926ec794901d17c78024a50270940304540a733656f0d8480a438808280f35b346103cd5760003660031901126103cd57602060405160128152f35b346103cd5760003660031901126103cd5760206040516b033b2e3c9fd0803ce80000008152f35b346103cd5760003660031901126103cd57602061096d6135e5565b604051908152f35b346103cd5760403660031901126103cd5761098e610529565b336001600160a01b038216036109aa5761081490600435612459565b60405162461bcd60e51b815260206004820152602f60248201527f416363657373436f6e74726f6c3a2063616e206f6e6c792072656e6f756e636560448201526e103937b632b9903337b91039b2b63360891b6064820152608490fd5b346103cd5760403660031901126103cd57610a20610513565b3360009081526001602090815260408083206001600160a01b03851684529091529020546024358101809111610a5a576105659133612787565b611e9a565b346103cd5760403660031901126103cd57610a78610513565b60243590610a9765ffffffffffff610a8f43613aa8565b16831061293d565b6001600160a01b03166000908152600a6020526040812080549290918360058111610b63575b50905b838210610b0e57505081610ae7575050602060005b6040516001600160e01b039091168152f35b610b02610b0991602093600019019060005260206000200190565b5460201c90565b610ad5565b9092610b1a81856138d8565b90818363ffffffff610b40610b36848960005260206000200190565b5463ffffffff1690565b161115610b51575050925b90610ac0565b909450610b5e9150611ebe565b610b4b565b80610b73610b79929693966138ed565b9061212e565b908263ffffffff610b94610b36858860005260206000200190565b161115610ba45750925b38610abd565b9350610baf90611ebe565b610b9e565b346103cd5760003660031901126103cd57610bcd61225a565b600e5460ff811615610c0c5760ff1916600e557f5db9ee0a495bf2e6ff9c91a7834c1ba4fdd244a5e8aa4e537bd38aeae4b073aa6020604051338152a1005b60405162461bcd60e51b815260206004820152601460248201527314185d5cd8589b194e881b9bdd081c185d5cd95960621b6044820152606490fd5b346103cd5760203660031901126103cd57600435610c6461233b565b3315610cf55761081490610c766124ec565b336000908152602081905260409020819054610c9482821015612b22565b3360009081526020819052604090209190039055610cb58160025403600255565b60405181815260009033907fddf252ad1be2c89b69c2b068fc378daa952ba7f163c4a11628f55a4df523b3ef90602090a3610cf08133612b79565b612f7f565b60405162461bcd60e51b815260206004820152602160248201527f45524332303a206275726e2066726f6d20746865207a65726f206164647265736044820152607360f81b6064820152608490fd5b346103cd5760203660031901126103cd576001600160a01b03610d65610513565b1660005260106020526020604060002054604051908152f35b346103cd5760003660031901126103cd574365ffffffffffff610da043613aa8565b1603610deb57610487604051610db5816110fa565b601d81527f6d6f64653d626c6f636b6e756d6265722666726f6d3d64656661756c7400000060208201526040519182918261041a565b60405162461bcd60e51b815260206004820152601d60248201527f4552433230566f7465733a2062726f6b656e20636c6f636b206d6f64650000006044820152606490fd5b346103cd5760203660031901126103cd5760206001600160a01b0380610e54610513565b166000526009825260406000205416604051908152f35b346103cd5760203660031901126103cd57610814610e87610513565b33612c44565b346103cd5760003660031901126103cd57602060ff600e54166040519015158152f35b346103cd5760003660031901126103cd576020601354604051908152f35b346103cd5760203660031901126103cd576001600160a01b03610eef610513565b16600052600a6020526020610f08604060002054613b0f565b63ffffffff60405191168152f35b346103cd5760203660031901126103cd576001600160a01b03610f37610513565b1660005260006020526020604060002054604051908152f35b346103cd5760003660031901126103cd5760206040517fa49807205ce4d355092ef5a8a18f56e8913cf4a201fbe287825b095693c217758152f35b346103cd5760403660031901126103cd576004357fdd2a19c3bdd089cbe77c04f5655f83de0504d6140d12c8667646f55d0557c4dc610807602435610fce612530565b610fd66124ec565b610fe1841515611f3f565b62278d008110158061107e575b610ff790611f82565b336000908152602081905260409020611014908590541015611fc1565b61101f843033612673565b336000908152600f602052604090206110569061103a611191565b908682524260208301528360408301526000606083015261201a565b6110656107cd85601254611ecc565b6040805194855260208501919091523393918291820190565b506301e13380811115610fee565b346103cd5760203660031901126103cd576001600160a01b036110ad610513565b1660005260076020526020604060002054604051908152f35b346103cd5760003660031901126103cd576020601254604051908152f35b634e487b7160e01b600052604160045260246000fd5b6040810190811067ffffffffffffffff82111761111657604052565b6110e4565b6080810190811067ffffffffffffffff82111761111657604052565b6020810190811067ffffffffffffffff82111761111657604052565b60c0810190811067ffffffffffffffff82111761111657604052565b90601f8019910116810190811067ffffffffffffffff82111761111657604052565b6040519061119e8261111b565b565b6040519061119e826110fa565b67ffffffffffffffff811161111657601f01601f191660200190565b346103cd5760603660031901126103cd576111e2610513565b6044359067ffffffffffffffff82116103cd57366023830112156103cd5781600401359061120f826111ad565b9161121d604051938461116f565b80835236602482860101116103cd5760208160009260246108149701838701378401015260243590611d41565b346103cd5760003660031901126103cd5761126361225a565b61126b6124ec565b600160ff19600e541617600e557f62e78cea01bee320cd4e420270b5ea74000d11b0c9f74754ebdbfc544b05a2586020604051338152a1005b346103cd576000806003193601126105105761134e906112e37f0000000000000000000000000000000000000000000000000000000000000000613725565b61130c7f000000000000000000000000000000000000000000000000000000000000000061381e565b916040519161131a83611137565b818352604051948594600f60f81b865261134060209360e08589015260e08801906103f5565b9086820360408801526103f5565b904660608601523060808601528260a086015284820360c08601528080855193848152019401925b82811061138557505050500390f35b835185528695509381019392810192600101611376565b346103cd5760203660031901126103cd576004356113cb65ffffffffffff6113c343613aa8565b16821061293d565b600b549060008260058111611449575b50905b82821061140a5782806113f8575060405160008152602090f35b610b09610b0260209260001901613181565b909161141681846138d8565b908263ffffffff611429610b3685613181565b1611156114395750915b906113de565b925061144490611ebe565b611433565b80610b73611459929593956138ed565b908263ffffffff61146c610b3685613181565b16111561147c5750915b386113db565b925061148790611ebe565b611476565b346103cd5760403660031901126103cd57602060ff6114d26114ac610529565b600435600052600c845260406000209060018060a01b0316600052602052604060002090565b54166040519015158152f35b346103cd5760003660031901126103cd5760206114fa43613aa8565b65ffffffffffff60405191168152f35b346103cd5760008060031936011261051057604051908060045461152d81612586565b808552916001918083169081156104e65750600114611556576104878561047b8187038261116f565b9250600483527f8a35acfbc15ff81a39ae7d344fd709f28e8600b4aa8c65c6b64bfe7fe36bd19b5b82841061159957505050810160200161047b8261048761046b565b8054602085870181019190915290930192810161157e565b346103cd5760203660031901126103cd576001600160a01b036115d2610513565b16600052600a6020526040600020805480156000146115f957505060405160008152602090f35b60209161160a916000190190612903565b5054811c610ad5565b346103cd5760003660031901126103cd57602060405160008152f35b346103cd5760403660031901126103cd57611648610513565b602435903360005260016020526116758160406000209060018060a01b0316600052602052604060002090565b549180831061168a5761061292039033612787565b60405162461bcd60e51b815260206004820152602560248201527f45524332303a2064656372656173656420616c6c6f77616e63652062656c6f77604482015264207a65726f60d81b6064820152608490fd5b346103cd5760203660031901126103cd576001600160a01b036116fe610513565b1660005260116020526020604060002054604051908152f35b346103cd5760403660031901126103cd57610565611733610513565b6024359033612673565b346103cd5760003660031901126103cd5760206040516301e133808152f35b634e487b7160e01b600052603260045260246000fd5b805482101561178e5760005260206000209060021b0190600090565b61175c565b346103cd5760403660031901126103cd576117ac610513565b6001600160a01b03166000908152600f60205260409020805460243591908210156103cd576080916117dd91611772565b5080549060018101549060ff6003600283015492015416916040519384526020840152604083015215156060820152f35b346103cd5760203660031901126103cd5760043561182a61225a565b336000526000602052611844816040600020541015611fc1565b61184f813033612673565b601354908101809111610a5a57601355005b6064359060ff821682036103cd57565b6084359060ff821682036103cd57565b346103cd5760c03660031901126103cd5761189a610513565b604435906024356118a9611861565b9280421161196757611939611962916108149560405190611921826119136020820195898b8860609194939260808201957fe48329057bfd03d55e49b547132e39cffd9c1820ad7b9d4c5307691425d15adf835260018060a01b0316602083015260408201520152565b03601f19810184528361116f565b61193460a43593608435935190206136ff565b6133ff565b6001600160a01b0381166000908152600760205260409020805460018101909155909214612989565b612c44565b60405162461bcd60e51b815260206004820152601d60248201527f4552433230566f7465733a207369676e617475726520657870697265640000006044820152606490fd5b346103cd5760e03660031901126103cd576119c5610513565b6119cd610529565b60443590606435926119dd611871565b93804211611aad57611a95611aa89161191361081497611a82611a1b8760018060a01b03166000526007602052604060002090815491600183019055565b604080517f6e71edae12b1b97f4d1f60370fef10105fa2faae0126114a169c64845d6126c9602082019081526001600160a01b03808c1693830193909352918b166060820152608081018c905260a081019290925260c082019590955292839060e0820190565b61193460c4359360a435935190206136ff565b6001600160a01b038381169116146128b7565b612787565b60405162461bcd60e51b815260206004820152601d60248201527f45524332305065726d69743a206578706972656420646561646c696e650000006044820152606490fd5b346103cd5760003660031901126103cd5760206040517f9f2df0fed2c77648de5860a4cc508cd0818c85b8b8a1ab4ceeef8d981c8956a68152f35b346103cd5760403660031901126103cd57610814600435611b4c610529565b9080600052600c602052611b6760016040600020015461238f565b612459565b346103cd576020806003193601126103cd57611b86610513565b6000916001600160a01b0382169190835b83600052600f825260406000208054821015611c1c5760ff6003611bbe84611bc694611772565b500154161590565b611bdf575b90611bd7600f92611f19565b909150611b97565b9390611bd7611c12600f93611c0a886107608860018060a01b0316600052600f602052604060002090565b505490611ecc565b9591925050611bcb565b604051868152602090f35b346103cd5760403660031901126103cd576020611c76611c45610513565b611c4d610529565b6001600160a01b0391821660009081526001855260408082209290931681526020919091522090565b54604051908152f35b346103cd5760003660031901126103cd57602060405162278d008152f35b346103cd5760003660031901126103cd5760206040516101f48152f35b346103cd5760403660031901126103cd57611cd3610513565b63ffffffff60243581811681036103cd57611d1d611d2391604094600060208751611cfd816110fa565b82815201526001600160a01b03166000908152600a602052859020612903565b5061291b565b8251815190921682526020908101516001600160e01b031690820152f35b3360009081527f28716b1ac0502292c83929abc9e37796cf2f7a586c58ec02e6ceeac1b694cbc3602052604090205490929060ff1615611e5d57611d836124ec565b600254828101809111610a5a576b033b2e3c9fd0803ce800000010611e23576001600160a01b038316927f1859479aa911d9ecbfc0aaead896a2a04a3319062dc3bc20e999ed757cb21bff9290611e0390611ddf861515611ed9565b611de98382612a3a565b6001600160a01b0316600090815260116020526040902090565b611e0d8154611f19565b9055611e1e60405192839283611f28565b0390a2565b60405162461bcd60e51b815260206004820152601260248201527145786365656473206d617820737570706c7960701b6044820152606490fd5b60405162461bcd60e51b81526020600482015260156024820152742737ba1030baba3437b934bd32b21036b4b73a32b960591b6044820152606490fd5b634e487b7160e01b600052601160045260246000fd5b6064019081606411610a5a57565b9060018201809211610a5a57565b91908201809211610a5a57565b15611ee057565b60405162461bcd60e51b8152602060048201526011602482015270125b9d985b1a59081c9958da5c1a595b9d607a1b6044820152606490fd5b6000198114610a5a5760010190565b60409061042b9392815281602082015201906103f5565b15611f4657565b60405162461bcd60e51b8152602060048201526014602482015273125b9d985b1a59081cdd185ad948185b5bdd5b9d60621b6044820152606490fd5b15611f8957565b60405162461bcd60e51b815260206004820152601060248201526f24b73b30b634b210323ab930ba34b7b760811b6044820152606490fd5b15611fc857565b60405162461bcd60e51b8152602060048201526014602482015273496e73756666696369656e742062616c616e636560601b6044820152606490fd5b634e487b7160e01b600052600060045260246000fd5b8054600160401b8110156111165761203791600182018155611772565b61206c57600360609183518155602084015160018201556040840151600282015501910151151560ff80198354169116179055565b612004565b1561207857565b60405162461bcd60e51b8152602060048201526013602482015272092dcecc2d8d2c840e6e8c2d6ca40d2dcc8caf606b1b6044820152606490fd5b156120ba57565b60405162461bcd60e51b815260206004820152601160248201527020b63932b0b23c903bb4ba34323930bbb760791b6044820152606490fd5b156120fa57565b60405162461bcd60e51b815260206004820152600c60248201526b14dd1a5b1b081b1bd8dad95960a21b6044820152606490fd5b91908203918211610a5a57565b90606482029180830460641490151715610a5a57565b906101f49180830292830403610a5a57565b81810292918115918404141715610a5a57565b8115612180570490565b634e487b7160e01b600052601260045260246000fd5b6121bb61042b926122479260018060a01b0316600052600f6020526040600020611772565b50604051906121c98261111b565b805482526121fc600182015480602085015260ff600360028501549460408701958652015416151560608501524261212e565b905191828211612252575b61223b61223461222f61222a612220612242969761213b565b6301e13380900490565b611eb0565b612151565b6064900490565b9051612163565b612163565b64496cebb800900490565b829150612207565b3360009081527e3ceef2c1db83b6787a5c41679a318a5ac9afba2aefaa5b63262a742c74a3a8602052604090205460ff161561229257565b612337604861231f6122a33361324c565b6123116122ae6132dd565b6040519485937f416363657373436f6e74726f6c3a206163636f756e742000000000000000000060208601526122ee8151809260206037890191016103d2565b84017001034b99036b4b9b9b4b733903937b6329607d1b60378201520190612442565b03601f19810183528261116f565b60405162461bcd60e51b81529182916004830161041a565b0390fd5b3360009081527e1cc5d77f691f3f29bd797d00fb54dbfca601fc89d79085dfe95ee6241d87cb602052604090205460ff161561237357565b612337604861231f6123843361324c565b6123116122ae61336e565b6000818152600c6020908152604080832033845290915290205460ff16156123b45750565b6123bd3361324c565b6123c56131ab565b9160306123d1846131c6565b5360786123dd846131d3565b5360415b6001811161240057612337604861231f85612311886122ae8815613201565b90600f811690601082101561178e5761243d916f181899199a1a9b1b9c1cb0b131b232b360811b901a61243384876131e3565b5360041c916131f4565b6123e1565b90612455602092828151948592016103d2565b0190565b600090808252600c60205260ff61248584604085209060018060a01b0316600052602052604060002090565b541661249057505050565b808252600c602090815260408084206001600160a01b038616600090815292529020805460ff1916905533926001600160a01b0316917ff6391f5c32d9c69d2a47ea670b442974b53935d1edc7fd64eb21e047a839171b9080a4565b60ff600e54166124f857565b60405162461bcd60e51b815260206004820152601060248201526f14185d5cd8589b194e881c185d5cd95960821b6044820152606490fd5b6002600d5414612541576002600d55565b60405162461bcd60e51b815260206004820152601f60248201527f5265656e7472616e637947756172643a207265656e7472616e742063616c6c006044820152606490fd5b90600182811c921680156125b6575b60208310146125a057565b634e487b7160e01b600052602260045260246000fd5b91607f1691612595565b156125c757565b60405162461bcd60e51b815260206004820152602360248201527f45524332303a207472616e7366657220746f20746865207a65726f206164647260448201526265737360e81b6064820152608490fd5b1561261f57565b60405162461bcd60e51b815260206004820152602660248201527f45524332303a207472616e7366657220616d6f756e7420657863656564732062604482015265616c616e636560d01b6064820152608490fd5b6001600160a01b0392919083811680156127345761119e948316906126998215156125c0565b6126a16124ec565b6001600160a01b03831660009081526020819052604090208590546126c882821015612618565b036126e58460018060a01b03166000526000602052604060002090565b556001600160a01b0384166000908152602081815260409182902080548801905590518681527fddf252ad1be2c89b69c2b068fc378daa952ba7f163c4a11628f55a4df523b3ef9190a3612c12565b60405162461bcd60e51b815260206004820152602560248201527f45524332303a207472616e736665722066726f6d20746865207a65726f206164604482015264647265737360d81b6064820152608490fd5b6001600160a01b03808216929190831561286657821693841561281657806128007f8c5be1e5ebec7d5bd14f71427d1e84f3dd0314c0f7b2291e5b200ac8c7c3b925946127e96128119560018060a01b03166000526001602052604060002090565b9060018060a01b0316600052602052604060002090565b556040519081529081906020820190565b0390a3565b60405162461bcd60e51b815260206004820152602260248201527f45524332303a20617070726f766520746f20746865207a65726f206164647265604482015261737360f01b6064820152608490fd5b60405162461bcd60e51b8152602060048201526024808201527f45524332303a20617070726f76652066726f6d20746865207a65726f206164646044820152637265737360e01b6064820152608490fd5b156128be57565b60405162461bcd60e51b815260206004820152601e60248201527f45524332305065726d69743a20696e76616c6964207369676e617475726500006044820152606490fd5b805482101561178e5760005260206000200190600090565b90604051612928816110fa565b602081935463ffffffff81168352811c910152565b1561294457565b60405162461bcd60e51b815260206004820152601960248201527f4552433230566f7465733a20667574757265206c6f6f6b7570000000000000006044820152606490fd5b1561299057565b60405162461bcd60e51b815260206004820152601960248201527f4552433230566f7465733a20696e76616c6964206e6f6e6365000000000000006044820152606490fd5b156129dc57565b60405162461bcd60e51b815260206004820152603060248201527f4552433230566f7465733a20746f74616c20737570706c79207269736b73206f60448201526f766572666c6f77696e6720766f74657360801b6064820152608490fd5b906001600160a01b0382168015612add57612a536124ec565b600254828101809111610a5a57612ad993612abe92612a728593600255565b6001600160a01b038216600090815260208181526040808320805487019055518581527fddf252ad1be2c89b69c2b068fc378daa952ba7f163c4a11628f55a4df523b3ef9190a3612bc7565b600254612ad4906001600160e01b0310156129d5565b61306f565b5050565b60405162461bcd60e51b815260206004820152601f60248201527f45524332303a206d696e7420746f20746865207a65726f2061646472657373006044820152606490fd5b15612b2957565b60405162461bcd60e51b815260206004820152602260248201527f45524332303a206275726e20616d6f756e7420657863656564732062616c616e604482015261636560f01b6064820152608490fd5b6001600160a01b039081166000908152600960205260408120549080527fec8156718a8372b1db44bb411437d0870f3e3790d4a08526d024ce1b0b668f6b5461119e93929081169116612cb8565b60096020527fec8156718a8372b1db44bb411437d0870f3e3790d4a08526d024ce1b0b668f6b546001600160a01b039182166000908152604090205461119e93929081169116612cb8565b6001600160a01b0390811660009081526009602052604080822054938316825290205461119e93929082169116612cb8565b61119e9160018060a01b038092166000928184526009602052806040852054168092856020527f3134e8a2e6d97e929a7e54011ea5485d7d196dd5f0ba4d4ef95803e8e3fc257f60408720549660096020526040812094871694856bffffffffffffffffffffffff60a01b82541617905580a45b6001600160a01b03808316939291168084141580612ecb575b612cdc575b50505050565b80612d4a575b5082612cef575b80612cd6565b6001600160a01b03166000908152600a602052604090207fdec2bacdd2f05b59de34da9b523dff8be42e5e38e818c82fdb0bae774387a72491612d31916130c8565b60408051928352602083019190915290a2388080612ce9565b80600052600a6020527fdec2bacdd2f05b59de34da9b523dff8be42e5e38e818c82fdb0bae774387a7246040600020805480159182600014612ea857612d8e6111a0565b6000815260006020820152915b6020830151612dba906001600160e01b03165b6001600160e01b031690565b92612dc58985613b74565b94159081612e85575b5015612e2357612df6612e0d92612de486613a3f565b92600019019060005260206000200190565b9063ffffffff82549181199060201b169116179055565b604080519182526020820192909252a238612ce2565b50612e8090612e47612e42612e3743613aa8565b65ffffffffffff1690565b613b0f565b90612e7b612e5486613a3f565b612e6b612e5f6111a0565b63ffffffff9095168552565b6001600160e01b03166020840152565b612f3b565b612e0d565b5163ffffffff16905063ffffffff612e9f612e3743613aa8565b91161438612dce565b612ec5612ec060001984018360005260206000200190565b61291b565b91612d9b565b50821515612cd1565b600b5490600160401b821015611116576001820180600b5582101561178e57600b600052805160209182015190911b63ffffffff191663ffffffff91909116177f0175b7a638427703f0dbe7bb9bbf987a2551717b34e79f33b5b1008d1fa01db990910155565b8054600160401b81101561111657612f5891600182018155612903565b61206c57815160209283015190921b63ffffffff191663ffffffff92909216919091179055565b600b549091811591821561305a57612f956111a0565b60008152600060208201525b6020810151612fc390612fbc906001600160e01b0316612dae565b9586613b74565b93159081613037575b5015612fec5761119e90612df6612fe285613a3f565b9160001901613181565b5061119e612fff612e42612e3743613aa8565b61303261300b85613a3f565b6130226130166111a0565b63ffffffff9094168452565b6001600160e01b03166020830152565b612ed4565b5163ffffffff16905063ffffffff613051612e3743613aa8565b91161438612fcc565b61306a612ec06000198301613181565b612fa1565b600b54909181159182156130b3576130856111a0565b60008152600060208201525b6020810151612fc3906130ac906001600160e01b0316612dae565b9586613b81565b6130c3612ec06000198301613181565b613091565b909181549182159283600014613164576130e06111a0565b60008152600060208201525b602081015161310e90613107906001600160e01b0316612dae565b9687613b81565b94159081613141575b501561312d57612df661119e92612de486613a3f565b5061119e90612e47612e42612e3743613aa8565b5163ffffffff16905063ffffffff61315b612e3743613aa8565b91161438613117565b61317c612ec060001983018460005260206000200190565b6130ec565b600b6000527f0175b7a638427703f0dbe7bb9bbf987a2551717b34e79f33b5b1008d1fa01db90190565b604051906131b88261111b565b604282526060366020840137565b80511561178e5760200190565b80516001101561178e5760210190565b90815181101561178e570160200190565b8015610a5a576000190190565b1561320857565b606460405162461bcd60e51b815260206004820152602060248201527f537472696e67733a20686578206c656e67746820696e73756666696369656e746044820152fd5b604051906060820182811067ffffffffffffffff82111761111657604052602a825260403660208401376030613281836131c6565b53607861328d836131d3565b536029905b600182116132a55761042b915015613201565b600f811690601082101561178e576132d7916f181899199a1a9b1b9c1cb0b131b232b360811b901a61243384866131e3565b90613292565b7fa49807205ce4d355092ef5a8a18f56e8913cf4a201fbe287825b095693c217756133066131ab565b906030613312836131c6565b53607861331e836131d3565b536041905b600182116133365761042b915015613201565b600f811690601082101561178e57613368916f181899199a1a9b1b9c1cb0b131b232b360811b901a61243384866131e3565b90613323565b7f3c11d16cbaffd01df69ce1c404f6340ee057498f5f00246190ea54220576a8486133976131ab565b9060306133a3836131c6565b5360786133af836131d3565b536041905b600182116133c75761042b915015613201565b600f811690601082101561178e576133f9916f181899199a1a9b1b9c1cb0b131b232b360811b901a61243384866131e3565b906133b4565b9161042b939161340e93613556565b919091613436565b6005111561342057565b634e487b7160e01b600052602160045260246000fd5b61343f81613416565b806134475750565b61345081613416565b6001810361349d5760405162461bcd60e51b815260206004820152601860248201527f45434453413a20696e76616c6964207369676e617475726500000000000000006044820152606490fd5b6134a681613416565b600281036134f35760405162461bcd60e51b815260206004820152601f60248201527f45434453413a20696e76616c6964207369676e6174757265206c656e677468006044820152606490fd5b806134ff600392613416565b1461350657565b60405162461bcd60e51b815260206004820152602260248201527f45434453413a20696e76616c6964207369676e6174757265202773272076616c604482015261756560f01b6064820152608490fd5b9291907f7fffffffffffffffffffffffffffffff5d576e7357a4501ddfe92f46681b20a083116135d95791608094939160ff602094604051948552168484015260408301526060820152600093849182805260015afa156135cc5781516001600160a01b038116156135c6579190565b50600190565b50604051903d90823e3d90fd5b50505050600090600390565b307f00000000000000000000000000000000000000000000000000000000000000006001600160a01b031614806136d6575b15613640577f000000000000000000000000000000000000000000000000000000000000000090565b60405160208101907f8b73c3c69bb8fe3d512ecc4cf759cc79239f7b179b0ffacaa9a75d522b39400f82527f000000000000000000000000000000000000000000000000000000000000000060408201527f000000000000000000000000000000000000000000000000000000000000000060608201524660808201523060a082015260a081526136d081611153565b51902090565b507f00000000000000000000000000000000000000000000000000000000000000004614613617565b60429061370a6135e5565b906040519161190160f01b8352600283015260228201522090565b60ff81146137635760ff811690601f82116137515760405191613747836110fa565b8252602082015290565b604051632cd44ac360e21b8152600490fd5b5060405160055481600061377683612586565b808352926001908181169081156137fc575060011461379d575b5061042b9250038261116f565b6005600090815291507f036b6384b5eca791c62761152d0c79bb0604c104a5fb6f4eb0703f3154bb3db05b8483106137e1575061042b935050810160200138613790565b819350908160209254838589010152019101909184926137c8565b90506020925061042b94915060ff191682840152151560051b82010138613790565b60ff81146138405760ff811690601f82116137515760405191613747836110fa565b5060405160065481600061385383612586565b808352926001908181169081156137fc5750600114613879575061042b9250038261116f565b6006600090815291507ff652222313e28459528d920b65115c16c04f3efc82aaedc97be59f3f377c0d3f5b8483106138bd575061042b935050810160200138613790565b819350908160209254838589010152019101909184926138a4565b90808216911860011c8101809111610a5a5790565b8015613a2757806139c06139b96139af6139a561399b61399161398761397d600161042b9a6000908b60801c80613a1b575b508060401c80613a0e575b508060201c80613a01575b508060101c806139f4575b508060081c806139e7575b508060041c806139da575b508060021c806139cd575b50821c6139c6575b811c1b613976818b612176565b0160011c90565b613976818a612176565b6139768189612176565b6139768188612176565b6139768187612176565b6139768186612176565b6139768185612176565b8092612176565b90613a2d565b8101613969565b6002915091019038613961565b6004915091019038613956565b600891509101903861394b565b6010915091019038613940565b6020915091019038613935565b604091509101903861392a565b9150506080903861391f565b50600090565b9080821015613a3a575090565b905090565b6001600160e01b0390818111613a53571690565b60405162461bcd60e51b815260206004820152602760248201527f53616665436173743a2076616c756520646f65736e27742066697420696e20326044820152663234206269747360c81b6064820152608490fd5b65ffffffffffff90818111613abb571690565b60405162461bcd60e51b815260206004820152602660248201527f53616665436173743a2076616c756520646f65736e27742066697420696e203460448201526538206269747360d01b6064820152608490fd5b63ffffffff90818111613b20571690565b60405162461bcd60e51b815260206004820152602660248201527f53616665436173743a2076616c756520646f65736e27742066697420696e203360448201526532206269747360d01b6064820152608490fd5b908103908111610a5a5790565b908101809111610a5a579056fea2646970667358221220ba26b5b671284502f3b213f73886f0e9b87e5118fdbdeeaea805fc3965b12fc164736f6c634300081300332f8788117e7eff1d82e926ec794901d17c78024a50270940304540a733656f0ddec2bacdd2f05b59de34da9b523dff8be42e5e38e818c82fdb0bae774387a724","linkReferences":{}},"methodIdentifiers":{"ADMIN_ROLE()":"75b238fc","BASE_APR()":"e4fd18c9","BURNER_ROLE()":"282c51f3","CLOCK_MODE()":"4bf5d7e9","DEFAULT_ADMIN_ROLE()":"a217fddf","DOMAIN_SEPARATOR()":"3644e515","INITIAL_MINT_CAP()":"0b7fc36b","MAX_STAKE_DURATION()":"aa902b4d","MAX_SUPPLY()":"32cb6b0c","MINTER_ROLE()":"d5391393","MIN_STAKE_DURATION()":"e0c570ba","addToRewardPool(uint256)":"b95ffbce","allowance(address,address)":"dd62ed3e","approve(address,uint256)":"095ea7b3","balanceOf(address)":"70a08231","burn(uint256)":"42966c68","checkpoints(address,uint32)":"f1127ed8","civicActions(address)":"a5b626bf","clock()":"91ddadf4","decimals()":"313ce567","decreaseAllowance(address,uint256)":"a457c2d7","delegate(address)":"5c19a95c","delegateBySig(address,uint256,uint256,uint8,bytes32,bytes32)":"c3cda520","delegates(address)":"587cde1e","eip712Domain()":"84b0196e","getPastTotalSupply(uint256)":"8e539e8c","getPastVotes(address,uint256)":"3a46b1a8","getRoleAdmin(bytes32)":"248a9ca3","getTotalStaked(address)":"dd2a8b11","getVotes(address)":"9ab24eb0","grantRole(bytes32,address)":"2f2ff15d","hasRole(bytes32,address)":"91d14854","increaseAllowance(address,uint256)":"39509351","mintForCivicAction(address,uint256,string)":"81cad434","name()":"06fdde03","nonces(address)":"7ecebe00","numCheckpoints(address)":"6fcfff45","pause()":"8456cb59","paused()":"5c975abb","permit(address,address,uint256,uint256,uint8,bytes32,bytes32)":"d505accf","renounceRole(bytes32,address)":"36568abe","revokeRole(bytes32,address)":"d547741f","rewardPool()":"66666aa9","stake(uint256,uint256)":"7b0472f0","stakingRewards(address)":"499d7f96","supportsInterface(bytes4)":"01ffc9a7","symbol()":"95d89b41","totalStaked()":"817b1cd2","totalSupply()":"18160ddd","transfer(address,uint256)":"a9059cbb","transferFrom(address,address,uint256)":"23b872dd","unpause()":"3f4ba83a","unstake(uint256)":"2e17de78","userStakes(address,uint256)":"b5d5b5fa"},"id":1}